:100000000C9454050C947C050C947C050C947C0594
:100010000C947C050C947C050C947C050C947C055C
:100020000C947C050C947C050C947C050C947C054C
:100030000C947C050C947C050C947C050C947C053C
:100040000C9449110C947C050C949D0E0C94770E25
:100050000C947C050C947C050C947C050C947C051C
:100060000C94970F0C947C05DB40A4A62EAF2000C7
:10007000A1C8D300408DAED580A80000600000006C
:100080000000000000000000000000E00000000090
:1000900000000000000000000001E000000000007F
:1000A000000000000000000001F00000000000005F
:1000B0000000000000000003F0000000000000004D
:1000C00000000000000007F0000000000000000039
:1000D000000000000007F800000000000000000021
:1000E000000000000FF800000003C0007E000001C7
:1000F000E0007F0FF800000003C000FE000001E0F8
:1001000000FFEFF800000003C000FE000001E00067
:10011000FFFFF800000003C000F00000000F007FA8
:10012000FE7FC0000003C000F00000000F003FFE93
:100130007FF83FF1FBCFFCFEF3BC3DEFE01FFE7FFD
:10014000FF7FFBFFDFFEFEFFBC3DEFE01FC6FFFFB2
:100150007FFBFFDFFEFEFFBC3DEFE00FE3C7FE7855
:100160007BC3DE1EF0FFBC3DEF0007FF87FC787B02
:10017000C3DE1EF0F83C3DEF0001FFFFF0007BC343
:10018000C01EF0F03C3DEF0001F37FE03FFBC3CF2A
:10019000FEF0F03C3DEF0003E33F807FFBC3DFFE5A
:1001A000F0F03C3DEF0007E73C00787BC3DE1EF03B
:1001B000F03C3DEF0007FFBE00787BC3DE1EF0F091
:1001C0003C3DEF0007FFFE00787BC3DE1EF0F03CF5
:1001D0003DEF000FFFFE007FFBFFDFFEF0F03FFD75
:1001E000EFE00FFFFF007FFBFFDFFEF0F03FFDEFD2
:1001F000E00FF9FF003E79F9CF9EF0F01F3DE7E0F8
:100200001FF1FF0000000000000000000000001FC0
:1002100080FF007FFFFFFFFFFFFFFFFFFFE01C00ED
:100220007F007FFFFFFFFEB46D888D18E000001F88
:10023000007FFFFFFFFE95AD7DB577E000000F006A
:100240007FFFFFFFFEA5AD9D8D19E0000006007F3A
:10025000FFFFFFFEB5ADEDB57EE000000000000140
:10026000800000000000000000000380000000008B
:10027000000000000007C0000000000000000000B7
:1002800007C00000000000000000000FC0000000D8
:100290000000000000001FE000000000000000005F
:1002A000001FE00000000000000000003FE0000030
:1002B000000000000000003FF0000000000000000F
:1002C00000007FF0000000000000001FF87FF00039
:1002D0000000000000003FFE7FF000000000000072
:1002E000003FFF7FF0000000000000001FFFFBE068
:1002F000000000000000000FFFF9FFC00000000038
:1003000000000FFFF9FFF800000000000007FFF1F8
:10031000FFFF00000000000003FC73FFFF800000EF
:1003200000000001FE3FFFFF80000000000000FF12
:100330001E0FFF000000000000007FFE1FFC0000F9
:1003400000000000003FFFFFF80000000000000078
:100350000FDFFFE0000000000000001F19FFC000D9
:100360000000000000003F3CFF0000000000000013
:10037000007E7CF800000000000000007FFE7C0092
:1003800000000000000000FFFFFC00000000000073
:100390000000FFFFFE0000000000000000FFFFFE65
:1003A0000000000000000001FFEFFE000000000060
:1003B000000001FFCFFE0000000000000003FF0767
:1003C000FE0000000000000003FC07FE000000002B
:1003D00000000003F003FE000000000000000180A8
:1003E00000FE000000000000000000007E00000091
:1003F000000000000000003E0000000000000000BF
:1004000000000C000000000000078000FC0000035A
:10041000C0000000078001FC000003C000000007CE
:100420008001FC000003C0000000078001E0000024
:10043000001E000000078001E00000001E007FE3B6
:10044000F79FF9FDE7787BDFC0FFF7FFBFFDFDFFFA
:10045000787BDFC0FFF7FFBFFDFDFF787BDFC0F0DB
:10046000F787BC3DE1FF787BDE00F0F787BC3DE11C
:10047000F0787BDE0000F787803DE1E0787BDE00EE
:100480007FF7879FFDE1E0787BDE00FFF787BFFD08
:10049000E1E0787BDE00F0F787BC3DE1E0787BDED1
:1004A00000F0F787BC3DE1E0787BDE00F0F787BC29
:1004B0003DE1E0787BDE00FFF7FFBFFDE1E07FFB81
:1004C000DFC0FFF7FFBFFDE1E07FFBDFC07CF3F3A0
:1004D0009F3DE1E03E7BCFC0000000000000000037
:1004E000000000FFFFFFFFFFFFFFFFFFFFC0FFFF58
:1004F000FFFFFD68DB111A31C0FFFFFFFFFD2B5A24
:10050000FB6AEFC0FFFFFFFFFD4B5B3B1A33C0FFF1
:10051000FFFFFFFD6B5BDB6AFDC02200FF21005384
:1005200053443133303620616C6C6F636174696F92
:100530006E206661696C656400000000002400277D
:10054000002A0000000000250028002B0000000009
:100550000800020100000304070000000000000082
:1005600000000103070F1F3F7F0080C0E0F0F8FC90
:10057000FE00000000003E5B4F5B3E3E6B4F6B3E5B
:100580001C3E7C3E1C183C7E3C181C577D571C1C96
:100590005E7F5E1C00183C1800FFE7C3E7FF0018F1
:1005A000241800FFE7DBE7FF30483A060E262979DA
:1005B0002926407F050507407F05253F5A3CE73C3B
:1005C0005A7F3E1C1C08081C1C3E7F14227F2214EC
:1005D0005F5F005F5F06097F017F006689956A6043
:1005E0006060606094A2FFA29408047E040810205A
:1005F0007E201008082A1C08081C2A08081E101053
:1006000010100C1E0C1E0C30383E3830060E3E0EFC
:1006100006000000000000005F0000000700070067
:10062000147F147F14242A7F2A122313086462364D
:10063000495620500008070300001C2241000041D9
:10064000221C002A1C7F1C2A08083E080800807013
:100650003000080808080800006060002010080446
:10066000023E5149453E00427F4000724949494699
:100670002141494D331814127F1027454545393C17
:100680004A49493141211109073649494936464904
:1006900049291E0000140000004034000000081426
:1006A000224114141414140041221408020159099F
:1006B000063E415D594E7C1211127C7F49494936F4
:1006C0003E414141227F4141413E7F494949417F6D
:1006D000090909013E414151737F0808087F004123
:1006E0007F41002040413F017F081422417F40406C
:1006F00040407F021C027F7F0408107F3E41414141
:100700003E7F090909063E4151215E7F09192946AC
:10071000264949493203017F01033F4040403F1FC2
:100720002040201F3F4038403F63140814630304F7
:100730007804036159494D43007F41414102040857
:100740001020004141417F0402010204404040402A
:1007500040000307080020545478407F2844443860
:100760003844444428384444287F385454541800AA
:10077000087E090218A4A49C787F08040478004429
:100780007D40002040403D007F1028440000417F14
:1007900040007C047804787C08040478384444449D
:1007A00038FC1824241818242418FC7C0804040895
:1007B000485454542404043F44243C4040207C1CAE
:1007C0002040201C3C4030403C44281028444C90A1
:1007D00090907C4464544C440008364100000077FB
:1007E0000000004136080002010204023C262326D4
:1007F0003C1EA1A161123A4040207A385454555908
:10080000215555794122545478422155547840203D
:10081000545579400C1E5272123955555559395458
:1008200054545939555454580000457C41000245F0
:100830007D420001457C407D1211127DF028252863
:10084000F07C545545002054547C547C0A097F495F
:1008500032494949323A4444443A324A4848303AA3
:100860004141217A3A42402078009DA0A07D3D423E
:1008700042423D3D4040403D3C24FF2424487E49C7
:1008800043662B2FFC2F2BFF0929F620C0887E09F9
:100890000320545479410000447D413048484A3295
:1008A000384040227A007A0A0A727D0D19317D267D
:1008B00029292F28262929292630484D4020380863
:1008C00008080808080808382F10C8ACBA2F1028E4
:1008D00034FA00007B000008142A142222142A147F
:1008E000085500550055AA55AA55AAFF55FF55FFB2
:1008F000000000FF00101010FF00141414FF00107F
:1009000010FF00FF1010F010F0141414FC00141469
:10091000F700FF0000FF00FF1414F404FC14141788
:10092000101F10101F101F1414141F00101010F0AF
:10093000000000001F101010101F10101010F010F9
:10094000000000FF101010101010101010FF100009
:100950000000FF140000FF00FF00001F1017000040
:10096000FC04F414141710171414F404F40000FF1A
:1009700000F714141414141414F700F714141417B3
:100980001410101F101F141414F4141010F010F091
:1009900000001F101F0000001F14000000FC1400C6
:1009A00000F010F01010FF10FF141414FF141010BA
:1009B000101F00000000F010FFFFFFFFFFF0F0F03D
:1009C000F0F0FFFFFF0000000000FFFF0F0F0F0F10
:1009D0000F3844443844FC4A4A4A347E0202060630
:1009E000027E027E0263554941633844443C044020
:1009F0007E201E2006027E020299A5E7A5991C2AE8
:100A0000492A1C4C7201724C304A4D4D30304878A6
:100A10004830BC625A463D3E494949007E010101C9
:100A20007E2A2A2A2A2A44445F444440514A4440A8
:100A300040444A51400000FF0103E080FF000008ED
:100A4000086B6B083612362436060F090F060000B5
:100A500018180000001010003040FF0101001F01B5
:100A6000011E00191D1712003C3C3C3C0000000018
:100A700000000000002300260029000404040404F0
:100A8000040404020202020202030303030303013B
:100A90000204081020408001020408102001020412
:100AA000081020002A23371D11241FBECFEFD8E0E5
:100AB000DEBFCDBF12E0A0E0B1E0E8E4FFE402C099
:100AC00005900D92A433B107D9F724E0A4E3B2E076
:100AD00001C01D92A431B207E1F715E0C3E5D5E0EE
:100AE00004C02197FE010E941924C235D107C9F71D
:100AF0000E94461D0C9497270C940000CF92DF9221
:100B0000EF92FF920F931F93CF93DF936C017A01C3
:100B10008B01C0E0D0E0CE15DF0581F0D8016D91EA
:100B20008D01D601ED91FC910190F081E02DC6017F
:100B30000995892B11F02196EECF7E01C701DF9137
:100B4000CF911F910F91FF90EF90DF90CF9008957C
:100B5000FC01538D448D252F30E0842F90E0821BC3
:100B6000930B541710F0CF96089501970895FC0148
:100B7000918D828D981761F0828DDF01A80FB11DD4
:100B80005D968C91928D9F5F9F73928F90E00895F8
:100B90008FEF9FEF0895FC01918D828D981731F0B2
:100BA000828DE80FF11D858D90E008958FEF9FEF06
:100BB0000895FC01918D228D892F90E0805C9F4FDC
:100BC000821B91098F739927089582EF92E00E940A
:100BD000D90521E0892B09F420E0822F0895FC013A
:100BE000848DDF01A80FB11DA35ABF4F2C91848DB6
:100BF00090E001968F739927848FA689B7892C93EB
:100C0000A089B1898C91837080648C93938D848D3D
:100C1000981306C00288F389E02D80818F7D808340
:100C20000895EF92FF920F931F93CF93DF93EC0100
:100C300081E0888F9B8D8C8D981305C0E889F98998
:100C4000808185FD26C0F62E0B8D10E00F5F1F4FB3
:100C50000F731127E02E8C8DE8120CC00FB607FC25
:100C6000FACFE889F989808185FFF5CFCE010E940E
:100C7000EF05F1CF8B8DFE01E80FF11DE35AFF4F19
:100C8000F0829FB7F8940B8FEA89FB89808180629C
:100C90000AC09FB7F894EE89FF896083E889F989D3
:100CA00080818370806480839FBF81E090E0DF91CA
:100CB000CF911F910F91FF90EF900895CF93DF9305
:100CC000EC01888D8823C9F0EA89FB89808185FD44
:100CD00005C0A889B9898C9186FD0FC00FB607FCA5
:100CE000F5CF808185FFF2CFA889B9898C9185FFE6
:100CF000EDCFCE010E94EF05E7CFDF91CF910895B0
:100D000080E090E0892B29F00E94E50581110C9488
:100D100000000895FC0177FDB9C0808591856817B2
:100D200079070CF0B3C057FDB1C082859385481791
:100D300059070CF008958689823079F48481958171
:100D4000DC01A61BB70BBD0161507109868197813B
:100D5000DC01A41BB50BAD010EC0833009F084C0CB
:100D600064277527CA018627972768277927468130
:100D70005781481B590B415051092130310531F041
:100D800048F12230310509F44AC00895CA0157FDDF
:100D900007969C01A3E035952795AA95E1F7A481D4
:100DA000B5812A9FC0012B9F900D3A9F900D112471
:100DB000680F791F078CF0A1E02DE60FF71F477031
:100DC000552781E090E001C0880F4A95EAF79081AD
:100DD000892B48C0CA0157FD07969C0193E03595C1
:100DE00027959A95E1F7A481B5812A9FC0012B9F91
:100DF000900D3A9F900D1124680F791F078CF0A178
:100E0000E02DE60FF71F4770552781E090E001C005
:100E1000880F4A95EAF780959081892323C0CA01FB
:100E200057FD07969C0183E0359527958A95E1F754
:100E3000A481B5812A9FC0012B9F900D3A9F900DF0
:100E40001124680F791F078CF0A1E02DE60FF71F22
:100E50004770552781E090E001C0880F4A95EAF776
:100E60009081892780830895813009F086CF642797
:100E70007527462757276427752784819581DC01CC
:100E8000A61BB70BBD016150710977CF0895089576
:100E9000FC016370668B8481958126813781613086
:100EA00039F0633029F0918780873387228708954E
:100EB000318720879387828708956F927F928F92E0
:100EC0009F92AF92BF92CF92DF92EF92FF920F93D9
:100ED0001F93CF93DF93EC014B015A016901380155
:100EE000E881F9810284F385E02D0995E881F98193
:100EF0000288F389E02D87019601A501B401CE0196
:100F00000995A501460D571D41505109E881F98108
:100F10000288F389E02D9601B401CE010995E8819C
:100F2000F9810088F189E02D9301A501B401CE017A
:100F30000995C80CD91CB60161507109E881F98185
:100F40000088F189E02D9301A501CE010995E88182
:100F5000F9810688F789E02DCE01DF91CF911F91AD
:100F60000F91FF90EF90DF90CF90BF90AF909F9048
:100F70008F907F906F9009948F929F92AF92BF92C3
:100F8000CF92DF92EF92FF920F931F93CF93DF9355
:100F90004C016B015A01E901DC01ED91FC916217F2
:100FA000730781F40417150724F48B2D5801042FBF
:100FB000182F0A191B0998012F5F3F4F048CF58DDC
:100FC000E02D12C04017510709F52617370724F402
:100FD0008D2D6901C62FD82F9E012C193D092F5F39
:100FE0003F4F068CF78DE02D8701A501B601C401A6
:100FF0000995DF91CF911F910F91FF90EF90DF90B6
:10100000CF90BF90AF909F908F9008950284F3850A
:10101000E02D0995D401ED91FC910488F589E02D2E
:101020009E01A501B601C4010995D401ED91FC9181
:101030000688F789E02DC401DF91CF911F910F91B0
:10104000FF90EF90DF90CF90BF90AF909F908F90E8
:101050000994EF92FF920F931F93DC011A960D9162
:101060001C911B9718962D913C911997ED91FC912D
:1010700000A0F1A1E02D7B0140E050E060E070E0D5
:1010800009951F910F91FF90EF9008954F925F92F5
:101090006F927F928F929F92AF92BF92CF92DF9288
:1010A000EF92FF920F931F93CF93DF936C012B016D
:1010B0005A0139014801DC01ED91FC910284F3856C
:1010C000E02D0995E201640C751CD601ED91FC91AF
:1010D000C615D7055CF40088F189E02D87019401DD
:1010E000A501BE01C60109952196EFCF0688F789B3
:1010F000E02DC601DF91CF911F910F91FF90EF90EE
:10110000DF90CF90BF90AF909F908F907F906F9027
:101110005F904F9009948F929F92AF92BF92CF921F
:10112000DF92EF92FF920F931F93CF93DF93EC0127
:101130005B014A016901E881F9810284F385E02DB0
:10114000099595012C0D3D1D21503109E881F9814A
:101150000488F589E02D78018401A401B501CE0150
:101160000995E881F9810688F789E02DCE01DF91A4
:10117000CF911F910F91FF90EF90DF90CF90BF9094
:10118000AF909F908F9009948F929F92AF92BF9251
:10119000CF92DF92EF92FF920F931F93CF93DF9343
:1011A000EC015B014A0169017801E881F98102845F
:1011B000F385E02D0995C80CD91C86010150110951
:1011C000E881F9810488F589E02D9501A401B50134
:1011D000CE010995E881F9810688F789E02DCE01D5
:1011E000DF91CF911F910F91FF90EF90DF90CF9003
:1011F000BF90AF909F908F9009940895EF92FF92C7
:101200000F931F93DC01ED91FC9100A0F1A1E02D63
:1012100009951F910F91FF90EF9008950F931F93E1
:10122000DC01ED91FC91068CF78DE02D09951F9165
:101230000F9108950F931F93DC01ED91FC91048CA5
:10124000F58DE02D09951F910F910895DC01ED9129
:10125000FC910084F185E02D09942F923F924F92EA
:101260005F926F927F928F929F92AF92BF92CF9236
:10127000DF92EF92FF920F931F93CF93DF9300D0F3
:1012800000D000D0CDB7DEB72C017E836D836A011C
:101290005901C801FC82EB824801841A950A97FE25
:1012A00003C091948194910835012D813E81621A89
:1012B000730A77FE03C0719461947108681479040D
:1012C0005CF43A2D2B2D5C01832F922F3D812E81D2
:1012D000DE82CD82C32ED22EAD81BE81AA16BB0680
:1012E0005CF43C2D2D2D6C01832F922F3D812E819E
:1012F000BE82AD82A32EB22E85012D813E81021BBE
:10130000130B1C012C183D0837FE03C031942194A7
:101310003108780117FF03C03FEFE31AF30AF59491
:10132000E794C816D9062CF08FEF9FEF9A83898334
:1013300004C0A1E0B0E0BA83A9832D813E81A2164A
:10134000B30624F1D201ED91FC910484F585E02DE2
:101350002B813C816814790424F44D815E81B601AF
:1013600003C0A6016D817E81C2010995E218F308D0
:10137000F7FE06C029813A81C20ED31EE00EF11E8F
:101380008D819E8101969E838D83D7CF26960FB641
:10139000F894DEBF0FBECDBFDF91CF911F910F91AB
:1013A000FF90EF90DF90CF90BF90AF909F908F9085
:1013B0007F906F905F904F903F902F90089585EDB4
:1013C0008093BC008091BC0084FDFCCF1092C702CA
:1013D000089540917402262F30E0240F311D2132F0
:1013E0003105DCF42091C7022430C9F4FC0180E00F
:1013F00090E0861758F4309174022191DC01AC5AC8
:10140000BD4FA30FB11D2C930196F3CF80917402B1
:10141000680F6093740280E0089581E0089582E08F
:10142000089508950895E091C9028091C802E817CF
:1014300030F4F0E0E653FD4F808190E008958FEFA7
:101440009FEF08959091C9028091C802981750F4B7
:10145000E92FF0E0E653FD4F208130E09F5F90934D
:10146000C90202C02FEF3FEFC90108958091C80261
:1014700090E02091C902821B91090895CF92DF92DA
:10148000EF92FF920F931F93CF93DF937C01CB01D9
:101490008A012091ED02222389F0EB016B01C40E39
:1014A000D51ECC15DD0569F06991D701ED91FC9150
:1014B0000190F081E02DC7010995F3CF642F0E94C0
:1014C000E909C801DF91CF911F910F91FF90EF9033
:1014D000DF90CF900895CF93DF931F92CDB7DEB703
:1014E00069832091ED022223D1F02091EA0220327B
:1014F00040F021E030E0FC013383228380E090E083
:1015000015C08091EB02E82FF0E0EC5CFD4F998173
:1015100090838F5F8093EB028093EA0205C061E0C5
:10152000CE0101960E94E90981E090E00F90DF91E1
:10153000CF910895089580E090E0089508950F9365
:101540001F93CF93DF938C01EB0188E2DB011D92A7
:101550008A95E9F7F801838194810E949E1681E0C3
:1015600090E0A0E0B0E08C879D87AE87BF87F80150
:1015700085819681A781B085888B998BAA8BBB8B3F
:101580008CE090E0A0E0B0E08C8B9D8BAE8BBF8BAD
:10159000BE01838194810E94CB16D8011396ED91F0
:1015A000FC91149783898C3069F038F48B30A1F565
:1015B00080E090E0A0EAB2E409C08531C1F0863154
:1015C000B1F02AC080E090E0AEEBB2E4888F998F52
:1015D000AA8FBB8F80E090E0A0EAB1E48C8F9D8F52
:1015E000AE8FBF8F80E090E0A0EAB0E410C080E052
:1015F00090E0A8ECB2E4888F998FAA8FBB8F1C8EE5
:101600001D8E1E8E1F8E8DEC9CECACECBDE388A372
:1016100099A3AAA3BBA30CC0188E198E1A8E1B8E79
:101620001C8E1D8E1E8E1F8E18A219A21AA21BA21E
:10163000DF91CF911F910F9108950F931F93CF9337
:10164000DF938C01EB0188E2DB011D928A95E9F7BB
:10165000F801838194810E949E1681E090E0A0E0D1
:10166000B0E08C879D87AE87BF87F8018581968122
:10167000A781B085888B998BAA8BBB8B8DE090E07E
:10168000A0E0B0E08C8B9D8BAE8BBF8BBE018381C5
:1016900094810E94CB16D8011396ED91FC9114977A
:1016A00083898C30F1F0A0F48B3009F048C080E0E1
:1016B00090E0A8E4B2E4888F998FAA8FBB8F1C8E2C
:1016C0001D8E1E8E1F8E80E090E0A0E0B0E432C040
:1016D0008531E1F0863199F580E090E0AAEFB2E43F
:1016E00019C080E090E0A0E7B2E4888F998FAA8FBC
:1016F000BB8F80E090E0A0EAB1EC8C8F9D8FAE8F25
:10170000BF8F80E090E0A0E0BFE314C080E090E0F5
:10171000A0EAB2E4888F998FAA8FBB8F80E090E017
:10172000A0E2B2EC8C8F9D8FAE8FBF8F8DEC9CECC6
:10173000ACECBDE388A399A3AAA3BBA30CC0188EED
:10174000198E1A8E1B8E1C8E1D8E1E8E1F8E18A239
:1017500019A21AA21BA2DF91CF911F910F91089598
:10176000CF92DF92EF92FF920F931F93CF93DF936D
:10177000EB0124E2FB0111922A95E9F744E250E0E3
:1017800060E070E0488359836A837B83FC01458174
:101790005681678170854C835D836E837F834CE0C7
:1017A00050E060E070E0488759876A877B872FB7F1
:1017B000F8944091EE025091EF026091F002709126
:1017C000F1022FBF488B598B6A8B7B8B038114816D
:1017D000C8010E941C1A8823B9F1F80186818B3058
:1017E00098F18D30A0F08551823070F5F80160815C
:1017F000718176276727762780E090E00E94322566
:101800002DEC3CEC4CEC5DE30E94E92521C0F80195
:10181000618170E080E090E00E9434252DEC3CEC8A
:101820004CEC5DE30E94E9256B017C01F8016081CD
:1018300070E080E090E00E9434259B01AC01C7017C
:10184000B6010E94202404C060E070E080EC9FE7B5
:101850006C8B7D8B8E8B9F8B81E0DF91CF911F9165
:101860000F91FF90EF90DF90CF9008958F929F920D
:10187000AF92BF92EF92FF921F93CF93DF93EB0152
:1018800024E2FB0111922A95E9F744E250E060E07E
:1018900070E0488359836A837B83FC0145815681CC
:1018A000678170854C835D836E837F834DE050E05C
:1018B00060E070E0488759876A877B872FB7F89484
:1018C0004091EE025091EF026091F0027091F102AE
:1018D0002FBF488B598B6A8B7B8BE380F480C701C9
:1018E0000E941C1A882309F46BC0F70186818C3092
:1018F00009F445C018F48B30C9F062C085518230BC
:1019000008F05EC0F7011281612F6F7770E0762FCB
:1019100066278381682B80E090E00E9432252DECC1
:101920003CEC4CEC5DE30E94E92546C0F701628186
:1019300070E080E090E00E9432254B015C01F701ED
:10194000138117FF0AC09B01AC0160E070E080E8E2
:101950009FEB0E941F244B015C01612F6F7070E0B0
:1019600080E090E00E9434252DEC3CEC4CEC5DE3F3
:101970000E94E925A50194010E94202425C0F701B9
:10198000128163816F7070E080E090E00E943425E6
:101990002DEC3CEC4CEC5DE30E94E9254B015C0135
:1019A000612F70E080E090E00E9432259B01AC0145
:1019B000C501B4010E94202417FF06C0905804C03E
:1019C00060E070E080EC9FE76C8B7D8B8E8B9F8B53
:1019D00081E0DF91CF911F91FF90EF90BF90AF908A
:1019E0009F908F9008950F931F93CF93DF93DC0107
:1019F0005696EC915697E23071F0E330E9F0E13021
:101A000079F5FB0114960D90BC91A02DA41BB50B8C
:101A1000A21BB30B18C0EC01EC81FD81E61BF70B98
:101A2000BF0161507109EE81FF81DF01A41BB50B7D
:101A3000AD01421B530B14C0DA01EC01EE81FF81B2
:101A4000E61BF70B3197F7FD0DC0EC014E815F816E
:101A5000E417F5073CF4AF01BD010E94821502C0F6
:101A60000E94E915DF91CF911F910F9108950F9377
:101A70001F93DC015696EC915697E23061F0E3300B
:101A800009F1E13081F51496ED91FC911597E41B75
:101A9000F50B319723C0DC011496ED91FC9115975D
:101AA000DF01A61BB70BBD01DC011696ED91FC9181
:101AB0001797DF01A41BB50BAD0141505109621B03
:101AC000730B11C0FA01DC0116964D915C911797CA
:101AD000DA01A61BB70BBD01621B730BAB01BF0183
:101AE0000E94E9150CC057FD0AC0DC011696ED9165
:101AF000FC9117974E175F0714F40E9482151F91EF
:101B00000F9108958F929F92AF92CF92EF92FF9292
:101B10000F931F93CF93DF93EC01262F898D9A8D1E
:101B2000009709F042C06A3059F41D861C862D8941
:101B30008E859F8538E0239F800D911D112443C021
:101B40006D3009F4AAC08F898823C9F03C898C853F
:101B50009D8546E0349F800D911D1124488559854F
:101B60004817590764F41D861C863D898E859F851C
:101B700048E0349F800D911D11249F878E87EA884D
:101B8000FB88088919894E855F856C857D85AD88C0
:101B9000CC88CE010E944E132C898C859D8536E021
:101BA000239F800D911D11243EC06A3079F41D865B
:101BB0001C862D89FC013896E4918E859F852E9F89
:101BC000800D911D11249F878E8767C06D3009F4A9
:101BD00064C0FC0134963491631708F45EC03296F9
:101BE000E491E61708F459C0462F431B342FFC013B
:101BF00032968590949047E0349F800C911C11247C
:101C0000F401329634913196E491332311F0E111CD
:101C10000DC0F4013496E4912C898C859D85E29F5A
:101C2000800D911D11249D878C8737C0F401359656
:101C300044915F89552319F15C89E32FF0E0E40FAB
:101C4000F11D47FDFA955E9FB0015F9F700D112455
:101C50004C855D85460F571F688579856417750724
:101C600074F41D861C863D89FC013896E4918E85AE
:101C70009F853E9F800D911D11249F878E87EA8846
:101C8000FB88088919894E855F856C857D85AD88BF
:101C9000CC88CE010E944E13BCCF81E090E0DF9152
:101CA000CF911F910F91FF90EF90CF90AF909F90A9
:101CB0008F9008950C94F3260C94F326611571050A
:101CC00079F0FB0101900020E9F73197AF01461B45
:101CD000570BDC01ED91FC910280F381E02D09941A
:101CE00080E090E0089560E871E00C945E0E1F9231
:101CF0000F920FB60F9211242F933F934F935F9340
:101D00006F937F938F939F93AF93BF93EF93FF93C3
:101D100082EF92E00E94EF05FF91EF91BF91AF91AA
:101D20009F918F917F916F915F914F913F912F91F3
:101D30000F900FBE0F901F9018951F920F920FB625
:101D40000F9211242F938F939F93EF93FF93E09122
:101D50000203F09103038081E0910803F0910903ED
:101D600082FD12C0908180910B038F5F8F73209151
:101D70000C03821751F0E0910B03F0E0EE50FD4FA1
:101D8000958F80930B0301C08081FF91EF919F910C
:101D90008F912F910F900FBE0F901F90189508955F
:101DA0008EBD00000DB407FEFDCF8EB508951F93C4
:101DB000CF93DF93FC01858D968D009729F1162F27
:101DC000EF0121A131E03093ED022093EC0210925B
:101DD000EB021092EA02DC01ED91FC910190F0819E
:101DE000E02D60E009958D8D9E8DDC01ED91FC91DB
:101DF0000190F081E02D612F09958D8D9E8DDF91F1
:101E0000CF911F910C94341DA5A5B6A59C9183A9D3
:101E1000809589238C93838D948D892B31F0862F27
:101E2000DF91CF911F910C94D00E28E030E080E834
:101E3000A1A5B2A591A9462F482319F04C91942B46
:101E400003C04C91909594239C93A3A5B4A54C9169
:101E500092A9942B9C93A3A5B4A54C9192A990957B
:101E600094239C9386952150310911F7DF91CF91EE
:101E70001F9108958CBD9DBD08951F93CF93DF934F
:101E8000EC01162F8D8D9E8D892BB1F02DA93EA9C9
:101E90004FA958AD60E074E284EF90E00E94F72310
:101EA000DA01C9014097A109B109B695A79597959F
:101EB00087958093B8000FC08B8D9C8D892B21F066
:101EC0008EAD9FAD0E943A0FEFA5F8A990818CA925
:101ED000809589238083111102C066EA01C067EAF8
:101EE000CE010E94D70E8D8D9E8D892BB1F029AD2C
:101EF0003AAD4BAD5CAD60E074E284EF90E00E94DF
:101F0000F723DA01C9014097A109B109B695A79550
:101F1000979587958093B80006C0EFA5F8A99081A2
:101F20008CA9892B8083DF91CF911F9108951F92F7
:101F30000F920FB60F9211242F933F934F935F93FD
:101F40006F937F938F939F93AF93BF93EF93FF9381
:101F50008091B900887F803609F49CC068F588328A
:101F600009F45BC090F4803109F454C038F488233C
:101F700009F4F6C0883009F44DC0F6C0883109F480
:101F80004CC0803209F45DC0EFC0803409F468C0F1
:101F900048F4803309F455C0883309F0E5C08093D4
:101FA000C502D8C0803509F44FC0883509F45DC03A
:101FB000883409F0D9C0D6C0883909F4C7C0A8F45C
:101FC000883709F467C038F4883609F463C080376D
:101FD00009F460C0C9C0883809F4B8C0803909F470
:101FE0005FC0803809F0C0C05BC0803B09F486C088
:101FF00038F4803A09F466C0883A09F47FC0B4C066
:10200000803C09F4A7C0883C09F4A4C0883B09F4CB
:102010008AC0AAC08091C20210C09091C40280916F
:10202000C302981770F5E091C40281E08E0F80938F
:10203000C402F0E0EF55FD4F80818093BB0085EC3A
:1020400086C08093C5028EC0E091C40281E08E0FED
:102050008093C4028091BB00F0E0EF55FD4F808378
:102060009091C4028091C3026EC0E091C40281E0ED
:102070008E0F8093C4028091BB00F0E0EF55FD4FBE
:1020800080838091C60281116DC081E08093C1027E
:1020900084EA61C083E08093C70210929602CFCF9A
:1020A00080919602803208F051C0E091960281E062
:1020B0008E0F809396028091BB00F0E0EA58FD4FAE
:1020C0008083BDCF85EC8093BC001092C7028091C5
:1020D0009602803230F4E0919602F0E0EA58FD4F2B
:1020E00010826091960270E0E0919D02F0919E0254
:1020F00086E792E009951092960236C084E08093BC
:10210000C7021092750210927402E0919F02F09142
:10211000A002099580917402811105C081E080932D
:10212000740210925402E091750281E08E0F809348
:102130007502F0E0EC5AFD4F80818093BB009091D6
:10214000750280917402981708F479CF85E880931E
:10215000BC000AC085EC8093BC001092C70204C08A
:102160001092C5020E94DF09FF91EF91BF91AF91DC
:102170009F918F917F916F915F914F913F912F919F
:102180000F900FBE0F901F9018953091EA023132D8
:1021900008F04AC08091C7028111FCCF9091EC02F7
:1021A00022E02093C7026093C6022FEF2093C5025E
:1021B0001092C4023093C302E4E3F2E0A1EAB2E079
:1021C00020E0321721F041914D932F5FFACF10920A
:1021D000C2022091C202990F922B9093C202909159
:1021E000C102913061F41092C1029091C2029093A9
:1021F000BB009091BC0093FDF8CF95EC01C095EE2B
:102200009093BC009091C7029230E1F39091C50287
:102210009F3F79F08091C502803241F08091C502E4
:10222000803331F084E005C081E003C082E001C06A
:1022300083E01092EB021092EA021092ED020895F0
:10224000089508950E947C273FB7F89480919902E1
:1022500090919A02A0919B02B0919C0226B5A89BF6
:1022600005C02F3F19F00196A11DB11D3FBFBA2F28
:10227000A92F982F8827820F911DA11DB11DBC0188
:10228000CD0142E0660F771F881F991F4A95D1F74D
:1022900008951F920F920FB60F9211242F933F9320
:1022A0008F939F93AF93BF938091EE029091EF0233
:1022B000A091F002B091F1023091980223E0230F37
:1022C0002D3720F40196A11DB11D05C026E8230F6E
:1022D0000296A11DB11D209398028093EE02909367
:1022E000EF02A093F002B093F102809199029091D5
:1022F0009A02A0919B02B0919C020196A11DB11D72
:102300008093990290939A02A0939B02B0939C02AF
:10231000BF91AF919F918F913F912F910F900FBEE1
:102320000F901F901895833081F028F4813099F038
:102330008230A1F008958730A9F08830B9F0843058
:10234000D1F4809180008F7D03C0809180008F77D1
:1023500080938000089584B58F7702C084B58F7D07
:1023600084BD08958091B0008F7703C08091B00044
:102370008F7D8093B0000895CF93DF93282F30E0B6
:10238000F901E35BFA4F8491F901E157F54FD491DC
:10239000F901E558F54FC491CC2391F081110E94C9
:1023A0009311EC2FF0E0EE0FFF1FEF58F54FA591C2
:1023B000B491EC91ED2381E090E021F480E002C043
:1023C00080E090E0DF91CF910895DF92EF92FF924D
:1023D0000F931F93CF93DF93D82ED92FC62F8091C1
:1023E000DE039091DF03009709F454C02091E203CB
:1023F00031E03093ED022093EC021092EB02109248
:10240000EA02DC01ED91FC910190F081E02D60E0A9
:102410000995ED2CFD2E11E0D1E08091DE03909125
:10242000DF03CC2371F11032C8F00E94341D80917B
:10243000E203D093ED028093EC021092EB02109233
:10244000EA028091DE039091DF03DC01ED91FC91C3
:102450000190F081E02D60E0099511E08091DE03AC
:102460009091DF03F7016491DC01ED91FC91019003
:10247000F081E02D09951F5FC150BFEFEB1AFB0AF9
:10248000CCCFDF91CF911F910F91FF90EF90DF9014
:102490000C94341DE091EE03F091EF039081809154
:1024A000F4038095892380830D2D1D2FCC2309F4FF
:1024B00039C0F80184912091DC033091DD03232B96
:1024C00031F00E94D00EC1500F5F1F4FEFCF28E0B8
:1024D00030E040E8E091EA03F091EB039091F203E1
:1024E000582F542319F05081952B03C0508190959B
:1024F00095239083E091EC03F091ED03508190914E
:10250000F303952B9083E091EC03F091ED03508160
:102510009091F3039095952390834695215031092E
:10252000C9F6D1CFDF91CF911F910F91FF90EF901E
:10253000DF900895CF93DF93BC0181EC93E00E947C
:102540005E0EEC0181EC93E00E94730E8C0F9D1FD8
:10255000DF91CF9108952091C7033091C803C9013D
:10256000079697FD079623E0959587952A95E1F7BD
:102570002091C5033091C603829FA001839F500D17
:10258000929F500D112460E070E08091E0039091E3
:10259000E1030C9481273F924F925F926F927F925A
:1025A0008F929F92AF92BF92CF92DF92EF92FF9263
:1025B0000F931F93CF93DF9300D000D000D0CDB7FF
:1025C000DEB72C013B014A015901C901079697FD6D
:1025D00007969C0193E0359527959A95E1F73C8302
:1025E0002B83C12CD12CE12CF12C312CC3018E0D6D
:1025F0009F1D9A838983E016F106C4F51E821D8211
:102600002D813E812A153B054CF5C901877099271C
:10261000892B11F0330C0EC0ED81FE81F7FD37964A
:1026200083E0F595E7958A95E1F7EC0DFD1DE80D42
:10263000F91D349037FE0CC021E030E049815A8109
:102640006D817E81640D751D81EC93E00E942609E9
:102650008D819E8101969E838D83D2CF9FEFE91A53
:10266000F90A2B813C81C20ED31EC0CF26960FB62D
:10267000F894DEBF0FBECDBFDF91CF911F910F91B8
:10268000FF90EF90DF90CF90BF90AF909F908F9092
:102690007F906F905F904F903F9008952F923F9260
:1026A0004F925F926F927F928F929F92AF92BF9262
:1026B000CF92DF92EF92FF920F931F93CF93DF930E
:1026C000CDB7DEB76B970FB6F894DEBF0FBECDBFA8
:1026D0009B8F8A8F1B014A01D22E198708873701E9
:1026E000A982DC0159962D913C915A97211531050B
:1026F00009F0FFC018968D919C911997681779077A
:102700000CF0E7C11A968D919C911B9748175907B9
:102710000CF0DFC1EC2DF0E0FB83EA839B0146E087
:10272000C49E200D311D11243D872C8712161306DF
:102730000CF0CFC16A2D70E07B876A8783E0660F5B
:10274000771F8A95E1F77F876E87CB01880D991DEA
:10275000181619060CF0BDC158968C91811104C051
:102760008FEA8D1508F4D394AA8DBB8DED91FC9161
:1027700011970284F385E02DCD010995B5E0DB9E2C
:10278000C0011124EC2DF0E0F98BE88B91012B5F57
:102790003F4F3B8B2A8B3D822C822101AC01421999
:1027A00053095D8B4C8B7981672F70E07F8B6E8B2B
:1027B000C4010896998F888FEC89FD89E40DF51D79
:1027C000EF58FA4FD49054019F828E82D0FE16C0EB
:1027D000AA8DBB8DED91FC91B1E0CB1209C029818E
:1027E000213031F40484F585E02D2885398519C020
:1027F0000684F785E02DE884F9841DC04885598555
:102800004615570519F1AA8DBB8DED91FC91B1E0EC
:10281000CB120DC02981213051F40484F585E02DBF
:102820009301A501B2018A8D9B8D09950FC0068485
:10283000F785E02D73010A851B852A813B814E8136
:102840005F816C817D818A8D9B8D0995D6943FEF48
:10285000A31AB30A4E815F816E897F89460F571F85
:102860005F834E83888D998DA816B90609F0AECF87
:102870009FEF491A590AAC81BD81E889F989AE0FE9
:10288000BF1FBD83AC832A893B894216530609F0DA
:1028900093CF488559854615570509F4F8C0AA8D88
:1028A000BB8DED91FC91B1E0CB1211C0298121309B
:1028B00071F4B1016B5F7F4F0088F189E02D8301D6
:1028C00028E030E0A4018A8D9B8D0995E0C06C85DD
:1028D0007D854A815B81641B750B0684F785E02D3D
:1028E00073010E851F859A01A4018A8D9B8D099520
:1028F000CEC0F9013496E491DE1AF9013296859141
:102900009491B7E0DB9E800D911D1124F901259172
:1029100034913B8B2A8BFC01259134915901FC01A8
:1029200032965490319634913C8732967490319619
:10293000149141E04C1518F05981523068F0672D20
:10294000072C000C770B7D836C83812F012E000CEC
:10295000990B9B838A8304C01B821A821D821C826E
:10296000AA8DBB8DED91FC9111970284F385E02D2A
:10297000CD010995412CD12C612CF981EF2FF0E08C
:10298000FF83EE832C2D30E03B872A87A401410F83
:10299000511D17FD5A955F8B4E8BB101670D711D4F
:1029A00077FC7A95798F688F7C85671608F06FC001
:1029B000262D30E04A815B81420F531FAE81BF81DB
:1029C000A49FC001A59F900DB49F900D1124F40108
:1029D000E80FF91FF98BE88B842D712C4E895F89E4
:1029E000420F531F5D8B4C8B751408F04DC051E0A6
:1029F000580F5E87877041F4C5010196EA89FB890B
:102A0000EA0DFB1DD4905C01D7FE3AC061E0C6120E
:102A100016C07981713099F4AA8DBB8DED91FC912E
:102A200011970484F585E02D288539854C895D89C9
:102A3000688D798D670D711DCD01099521C08C813F
:102A40009D81870D911DEA85FB858E9FB0018F9F2B
:102A5000700D9E9F700D1124620D731DAA8DBB8D8C
:102A6000ED91FC9111970684F785E02DE884F984B7
:102A70000E811F812A853B8548895989CD01099599
:102A8000DD0C73948E85B0CF450C63948DCFAA8DE9
:102A9000BB8DED91FC9111970688F789E02DCD0152
:102AA0006B960FB6F894DEBF0FBECDBFDF91CF910E
:102AB0001F910F91FF90EF90DF90CF90BF90AF905C
:102AC0009F908F907F906F905F904F903F902F904E
:102AD00009946B960FB6F894DEBF0FBECDBFDF91A1
:102AE000CF911F910F91FF90EF90DF90CF90BF900B
:102AF000AF909F908F907F906F905F904F903F909E
:102B00002F9008950F931F93CF93DF9377FF04C007
:102B1000260F371F60E070E0DC011496CD91DC9148
:102B20001597FB01E20FF31FCE17DF071CF49E0180
:102B3000261B370B121613060CF046C0FA0157FD80
:102B40003796DF01E3E0B595A795EA95E1F7AC9FED
:102B5000F001AD9FF00DBC9FF00D11246E0F7F1F93
:102B6000DC015F96ED91FC919097E60FF71F47709F
:102B7000552781E090E001C0880F4A95EAF7482F79
:102B80000130110539F078F002301105E9F42E0F0B
:102B90003F1F13C02E0F3F1FE217F307A9F08081DC
:102BA000842B8193F9CF80952E0F3F1FE217F307F7
:102BB00059F0908198239193F9CFE217F30721F010
:102BC000808184278193F9CFDF91CF911F910F915D
:102BD0000895EF92FF920F931F93CF93DF93EC0131
:102BE00077FDA5C0EC80FD806E157F050CF09FC0C1
:102BF00057FF04C0240F351F40E050E08E819F81B5
:102C0000FA01E20FF31F8E179F071CF49C01241B8F
:102C1000350B121613060CF08AC0922F842F86955E
:102C2000869586958E9DD0018F9DB00D11246A0FDB
:102C30007B1FAF8DB8A1A60FB71F4770B1F188E019
:102C4000841B482F682F70E0FB01E759FA4FE4918D
:102C5000281798F4621B71092FEF30E002C03595F8
:102C600027956A95E2F7E2230130110549F078F0E3
:102C70000230110509F05BC00EC00130110519F4D6
:102C80008C91E82B0AC00130110508F049C0E0958D
:102C90008C91E82302C08C91E827EC93941708F4F8
:102CA00046C02C813D81A20FB31FE92FE41BE83001
:102CB000F8F00230110561F48E2F9C9190959C9351
:102CC0002C813D81A20FB31F88508830B0F70FC010
:102CD00081E00115110509F480E081959E2F8C9308
:102CE0002C813D81A20FB31F98509830C0F7E77038
:102CF000EE23E9F0F0E0EF59FA4FE49101301105CD
:102D000039F048F00230110591F48C91E82706C0A3
:102D10008C91E82B03C0E0958C91E823EC9307C0DD
:102D20000230110509F4B7CFAE0DBF1DBECFDF9144
:102D3000CF911F910F91FF90EF900895CF93DF9364
:102D4000EB01FC0183898C3089F038F48B30C1F4BD
:102D50004BE050E06AE072E017C0853161F08631E7
:102D600079F44BE050E06CE172E00EC04BE050E0D3
:102D700060E172E009C04BE050E066E172E004C03F
:102D80004BE050E062E272E0CE010E9488271B8691
:102D9000DF91CF910895FB01DC0153968C918C302B
:102DA00041F038F48B3029F480E492E4AFE0B0E0F5
:102DB00004C080E894E8AEE1B0E084A395A3A6A3A4
:102DC000B7A30895FF920F931F93CF93DF93EC0166
:102DD0008A01F22E89819A81DC01ED91FC910280B9
:102DE000F381E02D09950817190739F46F2D8981B2
:102DF0009A810E94C51091E0811190E0892FDF91A6
:102E0000CF911F910F91FF9008951F93CF93DF9360
:102E1000282F30E0F901E35BFA4F8491F901E15783
:102E2000F54FD491F901E558F54FC491CC23C1F089
:102E3000162F81110E949311EC2FF0E0EE0FFF1F6F
:102E4000ED5BFA4FA591B4919FB7F894111104C0AE
:102E50008C91D095D82302C0EC91DE2BDC939FBFE0
:102E6000DF91CF911F9108951092C9021092C8026C
:102E70001092EB021092EA021092C70281E0809356
:102E8000C6021092C10261E082E10E94051761E072
:102E900083E10E940517E9EBF0E080818E7F80835B
:102EA00080818D7F808388E48093B80085E480935F
:102EB000BC0081E19AE09093A00280939F0282E19E
:102EC0009AE090939E0280939D020895CF93DF93A2
:102ED000EC018B8181110AC00E94341781E08B8341
:102EE000CE010E946617982F882389F0888191E08F
:102EF0009093ED028093EC021092EB021092EA02A2
:102F000089819A810E94341D91E0811190E0892F7E
:102F1000DF91CF910895CF92DF92EF92FF920F93BE
:102F20001F93CF93DF93EC0188819981892B09F05E
:102F300091C088859985892BE9F420E030E000E094
:102F400070E0E7E0F0E0AB01022E02C05595479536
:102F50000A94E2F741705527CF01821B930B01C001
:102F6000440F8A95EAF7042B2F5F3F4F2830310535
:102F700051F701C0062F10E087E0E82EF12CCC2499
:102F8000C394D12C110F8A85877FE1F48D858F3F03
:102F900049F0B6010E2C01C0660F0A94EAF76023CF
:102FA0000E94051761E08C850E9405178E858F3F72
:102FB00029F00E94BC11892B09F052C060E08C8579
:102FC0000E9405178A85877F8430D9F461E08C855B
:102FD0000E9405178D858F3F49F0B6010E2C01C068
:102FE000660F0A94EAF760230E94051760E08C855B
:102FF0000E9405178E858F3F21F00E94BC11892BFE
:1030000089F581E0E81AF10808F0BCCF8885998538
:10301000892BF1F420E030E080E0A12FB0E0E7E080
:10302000F0E0AD01022E02C0559547950A94E2F7F3
:1030300041705527BF01621B730B01C0440F6A9595
:10304000EAF7842B2F5F3F4F2830310551F70CC032
:10305000812F0AC06EBD0DB407FEFDCF8EB504C032
:103060001160ACCF1160CDCFDF91CF911F910F9147
:10307000FF90EF90DF90CF900895CF93DF9390E093
:10308000FC01E157F54F2491FC01E558F54F84917F
:10309000882361F190E0880F991FFC01E75CFA4FEB
:1030A000C591D491FC01ED5BFA4FA591B4916111EA
:1030B00009C09FB7F8948881209582238883EC917A
:1030C0002E230BC0623061F49FB7F8948881322FB1
:1030D000309583238883EC912E2B2C939FBF06C0C1
:1030E0008FB7F894E8812E2B28838FBFDF91CF9183
:1030F00008958F929F92AF92BF92CF92DF92EF92FC
:10310000FF926B017C010E9424114B015C01C114F0
:10311000D104E104F104F1F00E942411DC01CB019F
:1031200088199909AA09BB09883E9340A105B105F0
:1031300070F321E0C21AD108E108F10888EE880E88
:1031400083E0981EA11CB11CC114D104E104F10458
:1031500019F7DDCFFF90EF90DF90CF90BF90AF9049
:103160009F908F900895CF92DF92EF92FF921F93DE
:10317000CF93DF93EC011F81662311F0912F01C0E3
:1031800090E0288530E0220F331F2F58354FA0E004
:10319000B0E0F90145915491FA0180818123AD019C
:1031A00060E070E089130FC01196CD84DE84EF8457
:1031B000F8884C155D056E057F0558F33FEF2FEF3E
:1031C0008FEF9FEF03C03A2F252FCB01632F722F74
:1031D000DF91CF911F91FF90EF90DF90CF900895F6
:1031E0002F923F924F925F926F927F928F929F9217
:1031F000AF92BF92CF92DF92EF92FF920F931F9305
:10320000CF93DF93CDB7DEB7A4970FB6F894DEBFA8
:103210000FBECDBF4B015C01F42E9B01AC010E949F
:103220005626882319F067E272E027C02401350191
:10323000E89477F82FEF3FEF4FE75FE7C301B20164
:103240000E94562681110DC02FEF3FEF4FE75FE739
:10325000C301B2010E948C2418161CF46BE272E0C8
:103260000CC02FEF3FEF4FE75FE4C501B4010E94B0
:10327000E42518163CF46FE272E082EF92E00E94BF
:103280005E0EBCC02FEF3FEF4FE75FECC501B4010E
:103290000E948C2487FDEFCF20E030E0A901C5011A
:1032A000B4010E948C2487FF0BC06DE282EF92E094
:1032B0000E9411063C01B7FAB094B7F8B09402C06E
:1032C000612C712C10E060E070E080E09FE3F1166B
:1032D00041F020E030E040E251E40E9491241F5F81
:1032E000F6CFA50194010E9420244B015C010E94AD
:1032F00003256AA3C72ED82EE92E19A2262F372F11
:10330000482F592F8E010F5D1F4F0BA31CA39AE06E
:10331000292E312C412C512CCA01B901A201910155
:103320000E94F723605DF80162938F01211531053A
:103330004105510589F7BF0182EF92E00E945E0EC0
:103340008301080F191FFF2009F457C06AA17C2DC3
:103350008D2D9E2D0E9432259B01AC01C501B4012B
:103360000E941F244B015C016EE282EF92E00E94FA
:103370001106080F191F8AE0282E312C412C512CE0
:1033800020E030E040E251E4C501B4010E94E925AB
:103390004B015C010E9403259B0140E050E019A213
:1033A000CBA0DCA0762E3AA3642EE52ECA01B9018B
:1033B000A20191010E94F723605DF60162936F0103
:1033C000211531054105510589F7BF0182EF92E0D2
:1033D0000E945E0E080F191F672D7AA1862D9E2D63
:1033E0000E9432259B01AC01C501B4010E941F243B
:1033F0004B015C01FA94F110C3CFC801A4960FB63B
:10340000F894DEBF0FBECDBFDF91CF911F910F911A
:10341000FF90EF90DF90CF90BF90AF909F908F90F4
:103420007F906F905F904F903F902F900895BC01D8
:1034300082EF92E00C945E0E8F929F92AF92BF92B9
:10344000CF92DF92EF92FF920F931F93CF93DF9370
:10345000CDB7DEB7C054D1400FB6F894DEBF0FBE73
:10346000CDBF2FB7F8944091EE025091EF026091DA
:10347000F0027091F1022FBFFC01018512852385B6
:1034800034856A017B01C01AD10AE20AF30AE0ED31
:10349000CE16E7E0DE06E104F10418F4FC018189B0
:1034A000C2C08C01FC0141875287638774871482F4
:1034B000138212821182108262E085810E943D187F
:1034C00061E070E080E090E00E94791861E0F8012E
:1034D00085810E943D1860E0F80185810E940517F2
:1034E000F80186818551823028F48BE291E10197C1
:1034F000F1F706C064E170E080E090E00E94791886
:1035000062E0F80185810E943D18F801828990E00F
:103510008230910538F0880F991F880F991F059701
:103520000197F1F7F89460E0C8010E94B3186F3F6B
:103530007F4F8F4F9F4F21F4F801118A789444C038
:1035400061E0C8010E94B3186F3F7F4F8F4F9F4FBC
:1035500099F3CE0101967C015E019FEBA91A9EEFC3
:10356000B90A670160E0C8010E94B318F6016083E0
:1035700071838283938361E0C8010E94B318F601CE
:103580006483758386839783F8E0CF0ED11CCA14B9
:10359000DB0441F7789420E030E0F70180809180EF
:1035A000A280B3804481558166817781FFEF8F16B9
:1035B0009F06AF06BF0631F04F3F8FEF58076807F1
:1035C000780721F4F801118A80E02DC0F90183E029
:1035D000F595E7958A95E1F7E00FF11F8081880F57
:1035E00084169506A606B70608F4816080832F5FCF
:1035F0003F4FF8E0EF0EF11C2832310571F6F8016B
:10360000248130E04081818190E0840F911D4281CE
:10361000840F911D4381840F911D99272817390725
:1036200089F681E0818BC05CDE4F0FB6F894DEBF77
:103630000FBECDBFDF91CF911F910F91FF90EF9003
:10364000DF90CF90BF90AF909F908F9008956F9232
:103650007F928F929F92AF92BF92CF92DF92EF9222
:10366000FF920F931F93CF93DF9300D0CDB7DEB7B8
:103670008C016B01DC0116968C91169717969C9124
:10368000179789839A83ED90FC901197E114F104C8
:1036900009F48AC019964C9150E0F7018481958114
:1036A0008417950710F480E0F9C0808191E0909331
:1036B000ED028093EC021092EB021092EA0220E0FD
:1036C000BE016F5F7F4FC7010E94E216882359F346
:1036D000F70184819581029730F38091C7028111AF
:1036E000FCCFD7012C9181E08093C7028093C60262
:1036F0009FEF9093C5021092C4028093C3028093FF
:10370000C2029091C202822F880F892B8093C2023D
:103710008091C102813061F41092C1028091C20295
:103720008093BB008091BC0083FDF8CF85EC01C085
:1037300085EE8093BC008091C7028130E1F38091D7
:10374000C402823018F49091C40201C092E0A1EA50
:10375000B2E0EAECF2E080E0891721F02D912193AC
:103760008F5FFACF1092C9028093C802823009F0AD
:103770009ACFF70181819281DC01ED91FC91028465
:10378000F385E02D0995F8018387D70111968D9176
:103790009C911297DC01ED91FC910284F385E02D60
:1037A0000995F80184875EC0D8011296ED90FC90CF
:1037B0001397E114F10409F476CF14962D913C91FE
:1037C00015972115310511F4806809C022303105A3
:1037D00011F48F7704C02130310511F4806C898396
:1037E000F8016184712CD7018D919C911197892BDF
:1037F00041F01296ED91FC911397808191810E9486
:103800003A0F60E0F70183850E940517CE0101960B
:103810004C015C01C5018819990986159705D8F0F6
:103820006FEFC7010E948B17D8011B968C936FEF27
:10383000C7010E948B17F801848761E0D7011B96AE
:103840008C910E940517F70180819181892B51F09D
:103850000E94CF0E07C0D5016D915D01C7010E9486
:103860008B17D8CF81E0F801928591110AC0248589
:1038700030E0322F2227D60111963C932E93938568
:103880000AC0F801238530E0322F2227D601119695
:103890003C932E939485292B2D933C930F900F905E
:1038A000DF91CF911F910F91FF90EF90DF90CF901C
:1038B000BF90AF909F908F907F906F9008958F9260
:1038C0009F92AF92BF92CF92DF92EF92FF920F93AF
:1038D0001F93CF93DF9300D0CDB7DEB78C01DC010F
:1038E0001A968C911A97882319F01C964C9302C053
:1038F000F8014387452F562F672F7727882321F01C
:10390000D8011B964C9302C0F8014487D801169643
:103910008C91169717969C91179789839A83CD90CF
:10392000DC901197C114D104B9F11996EC90F12CE7
:1039300097012E5F3F4FF60184819581821793078F
:1039400010F480E082C0808191E09093ED0280933A
:10395000EC021092EB021092EA02E114F10451F42D
:10396000B801655F7F4F21E042E050E0C6010E9450
:10397000E2166BC0F60181819281DC01ED91FC9130
:103980000280F381E02DA701BE016F5F7F4F099593
:10399000E816F906B1F6E4CFF801E280F380E1140D
:1039A000F10479F2248135812115310511F48F77E5
:1039B0000AC02230310511F4806805C0213031057C
:1039C00019F48F7780648983D8011996AC90B12C53
:1039D000F70180819181892B39F00280F381E02DFC
:1039E000808191810E943A0F60E0D7011B968C91F3
:1039F0000E940517FE0131964F016F01C60188191B
:103A000099098A159B05C8F0D8011B966C91C701CE
:103A10000E948B17F8016485C7010E948B1761E033
:103A2000D7011B968C910E940517F7018081918127
:103A3000892B51F00E94CF0E07C0D6016D916D0108
:103A4000C7010E948B17DACF81E00F900F90DF91B2
:103A5000CF911F910F91FF90EF90DF90CF90BF908B
:103A6000AF909F908F90089561E00C94C51088E509
:103A700091E09093C2038093C1038091E003909101
:103A8000E103009711F00C94F3260895CF93DF9390
:103A9000CDB7DEB7E5970FB6F894DEBF0FBECDBF4A
:103AA000789484B5826084BD84B5816084BD85B519
:103AB000826085BD85B5816085BD80916E00816025
:103AC00080936E00109281008091810082608093CB
:103AD00081008091810081608093810080918000CD
:103AE0008160809380008091B10084608093B100F8
:103AF0008091B00081608093B00080917A008460F2
:103B000080937A0080917A00826080937A0080911D
:103B10007A00816080937A0080917A008068809337
:103B20007A001092C100E0910203F091030312E0C9
:103B3000E12EE082E091FE02F091FF021082E0911E
:103B40000003F09101038FEC808310920A03E0914F
:103B50000603F091070386E08083E0910403F0916F
:103B60000503808180618083E0910403F091050367
:103B7000808188608083E0910403F0910503808157
:103B800080688083E0910403F091050380818F7D3C
:103B9000808382EF92E00E94730E62E08091A00326
:103BA0000E943D182FB7F8948091EE029091EF0299
:103BB000A091F002B091F1022FBF805D9740A10962
:103BC000B1098093A4039093A503A093A603B09397
:103BD000A70387E38093AD0386E090E00E945B2615
:103BE0008C0180910304D8018C938FE893E01296A6
:103BF0009C938E93119713961C92139780E290E0FA
:103C000015969C938E9314971093020400930104CD
:103C10000E943417FF24F394F801F382C8010E9434
:103C20006617882309F450C080E090E1A0E0B0E07E
:103C30008093040490930504A0930604B0930704B2
:103C40008AE090E0A0E0B0E080930804909309043B
:103C5000A0930A04B0930B0480E090E0A0E0B0E4ED
:103C600080930C0490930D04A0930E04B0930F0462
:103C700080910104909102049EA38DA318A61FA217
:103C8000FEA685E090E09CA78BA7FFA6EDA640E0EE
:103C900050E160E070E0CE0185960E945F1C80914B
:103CA0000104909102049A8389831C821B82FA8604
:103CB00018861F82FB86E9864FE959E360E070E0D1
:103CC000CE0101960E945F1C83E891E00E94171AC2
:103CD00088E891E00E94171A89E991E00E94171A7A
:103CE00081EA91E00E94171A8BEA91E00E94171A6C
:103CF00088EB91E00E94171A86EC91E00E94171A57
:103D000082EF92E00E94730E8091E0039091E103B4
:103D1000892BA9F52091C7033091C803C9010796E3
:103D200097FD0796B3E095958795BA95E1F72091B1
:103D3000C5033091C603AC01429FC001439F900D63
:103D4000529F900D11240E945B269093E103809373
:103D5000E003892BA1F40FE115E0F80164916111F2
:103D600005C082EF92E00E94730EC7C182EF92E01D
:103D70000E9411060F5F1F4F892B79F7F2CF0E9427
:103D8000AB122091C7033091C8038091C503909175
:103D9000C603213231050CF4ABC2B901605471097C
:103DA00077FF02C06F5F7F4F7595679582559109C8
:103DB00097FD019600E410E022E530E04AE552E08C
:103DC000959587950E94CB1282E08093E3038091C2
:103DD000DE039091DF03892B09F49EC28CE380936C
:103DE000E2030E9434178091E90387FD1EC061E061
:103DF0000E943D1861E08091E9030E94051761E08F
:103E000070E080E090E00E94791860E08091E90322
:103E10000E9405176AE070E080E090E00E94791847
:103E200061E08091E9030E9405178091DE03909183
:103E3000DF03892B09F42FC32091F6033091F70398
:103E40004091F8035091F90360E074E284EF90E050
:103E50000E94F723DA01C9014097A109B109B6957B
:103E6000A795979587958093B80064E086E790E0E2
:103E70000E94E5116091C703615081EC93E00E94BC
:103E8000D70E64E082E790E00E94E5118091E303A1
:103E9000813009F417C364E181EC93E00E94D70EEE
:103EA00064E08EE690E00E94E5118FE88093FE03C7
:103EB0008091C5039091C6038038910509F006C32F
:103EC0008091C7039091C8038034910509F010C315
:103ED0008091E303813009F4F7C28FEC8093FE03F5
:103EE00012E16AED81EC93E00E94D70E612F81EC24
:103EF00093E00E94D70E61E881EC93E00E94D70E18
:103F00006091FE0381EC93E00E94D70E69ED81EC95
:103F100093E00E94D70E8091E303813009F4EAC256
:103F200061EF81EC93E00E94D70E66E088E690E0B6
:103F30000E94E5118091DE039091DF03892B09F443
:103F4000DBC22091FA033091FB034091FC035091B6
:103F5000FD0360E074E284EF90E00E94F723DA0151
:103F6000C9014097A109B109B695A795979587957D
:103F70008093B8000E94AB1281E090E09093D4034C
:103F80008093D3039093D2038093D10360E081ECBC
:103F900093E00E9448071092D80380ED91E00E94C0
:103FA0009A1286ED91E00E949A1288EE91E00E94AA
:103FB0009A1286EF91E00E949A1289E690E090931F
:103FC000CE038093CD031092D0031092CF0385E0EF
:103FD00092E00E949A128091DE039091DF03892B78
:103FE00009F49DC22091F6033091F7034091F80344
:103FF0005091F90360E074E284EF90E00E94F723AF
:10400000DA01C9014097A109B109B695A79597951D
:1040100087958093B80065E08AE195E00E94E511FC
:104020006091C503615081EC93E00E94D70E20910E
:10403000C7033091C803C901079697FD079633E07F
:10404000959587953A95E1F72091C5033091C60380
:10405000829F7001839FF00C929FF00C11240091BD
:10406000E0031091E1038091DE039091DF03E00E05
:10407000F11E009709F497C22091E20331E03093DA
:10408000ED022093EC021092EB021092EA02DC01A6
:10409000ED91FC910190F081E02D60E40995DD2423
:1040A000D394CC24C3948091DE039091DF030E154A
:1040B0001F0509F04BC20E94341D8091DE039091D0
:1040C000DF03892B09F4B3C22091FA033091FB037B
:1040D0004091FC035091FD0360E074E284EF90E0B6
:1040E0000E94F723DA01C9014097A109B109B695E9
:1040F000A795979587958093B80011E052E0A52E7B
:10410000B12C02E06CE3862E61E0962E7EE2272E33
:1041100071E0372EF1E4F0937C0080917A008064A6
:1041200080937A0080917A0086FDFCCF80917800A0
:104130008091790080910104909102049A8389838F
:104140001C821B821A87B886AF821B870987BE0133
:104150006B5D7F4FCE0101960E94271B6DA17EA152
:1041600083E0769567958A95E1F7660F771F660F6E
:10417000771F072E000C880B990B0E9434252FE621
:1041800032E143E85AE30E94E9256B017C0180910A
:104190000104909102049EA38DA318A61FA21EA73E
:1041A00045E050E05CA74BA71FA70DA74091040472
:1041B000509105046091060470910704CE01859624
:1041C0000E945F1C80910104909102049A8389836C
:1041D0001C821B821A8784E090E098878F831B875C
:1041E0000987BE016C5C7F4FCE0101960E94271BA0
:1041F0006CA97DA9072E000C880B990B0E94342511
:104200002B013C01609108047091090480910A041B
:1042100090910B040E9432259B01AC01C301B201B5
:104220000E9491242B013C018091B1038FA39EA297
:104230008DA28091B2039091B30399A788A7809132
:10424000B4039091B503A091B603B091B7038AA7C8
:104250009BA7ACA7BDA7BE016F5F7F4FCE01859620
:104260000E94360C8091BA038FA33EA22DA28091AA
:10427000BB039091BC0399A788A78091BD0390913F
:10428000BE03A091BF03B091C0038AA79BA7ACA7B0
:10429000BDA7BE016F5F7F4FCE0185960E94B00B18
:1042A00042E0C701B6010E94F01884EC91E00E9440
:1042B000171A42E0C301B2010E94F01884EC91E0A9
:1042C0000E94171AA7019601C301B2010E94E925B5
:1042D00042E00E94F01882EF92E00E94730E68EEB6
:1042E00073E080E090E00E9479180E94800612CF6F
:1042F000B9016052710977FF02C06F5F7F4F7595FA
:1043000067958357910997FD019600E210E023E736
:1043100030E04AE750E054CD61E08091E7030E942D
:104320003D1861E08091E8030E943D188091E70309
:10433000082E000C990BFC01E558F54FE491F0E0D4
:10434000EE0FFF1FED5BFA4F259134913093EF0391
:104350002093EE03FC01E157F54FE491E093F40361
:104360008091E803082E000C990BFC01E558F54FED
:10437000E491F0E0EE0FFF1FED5BFA4FA591B491D1
:10438000B093F103A093F003FC01E157F54FE491E2
:10439000E093F5038C91E82BEC938091DC039091F2
:1043A000DD03892B09F434C01FB7F894809197027C
:1043B000811127C0E5E8FAE08491E9E9FAE09491F7
:1043C000E82FF0E0EE0FFF1FE75CFA4FA591B491E4
:1043D000EC91E92321F461E08AE00E94051761E095
:1043E0008AE00E943D188CB580618CBD8CB58064DC
:1043F0008CBD61E08DE00E943D1861E08BE00E9481
:104400003D18809197028F5F809397021FBFEBCC7E
:1044100061E08091E5030E943D1861E08091E60330
:104420000E943D188091E503082E000C990BFC01B9
:10443000E558F54FE491F0E0EE0FFF1FED5BFA4F0A
:10444000259134913093EB032093EA03FC01E1576B
:10445000F54FE491E093F2038091E603082E000CFF
:10446000990BFC01E558F54FE491F0E0EE0FFF1FCA
:10447000ED5BFA4FA591B491B093ED03A093EC03DB
:10448000FC01E157F54FE491E093F3038C91E09543
:10449000E823EC93A8CC8091DC039091DD03892B79
:1044A00031F08091FF03909100040E943A0FE09157
:1044B000F003F091F10390818091F50380958923B9
:1044C0008083D3CC60E1E8CC8FE908CD80369105BC
:1044D00079F48091C7039091C803409749F4809183
:1044E000E303813011F08FEA01C080E18093FE0385
:1044F00012E0F7CC62E215CDE091F003F091F10308
:1045000090818091F503892B80838091DC039091C9
:10451000DD03892B09F42ECD0E94CF0E2BCD809187
:10452000DC039091DD03892B31F08091FF039091A2
:1045300000040E943A0FE091F003F091F1039081A2
:104540008091F50380958923808365CDBFE1BD15FA
:10455000D0F40E94341D8091E203C092ED0280935A
:10456000EC021092EB021092EA028091DE0390912D
:10457000DF03DC01ED91FC910190F081E02D60E41E
:104580000995DD24D3948091DE039091DF03F80137
:1045900061918F01DC01ED91FC910190F081E02DA2
:1045A0000995D39480CDE091EE03F091EF039081D3
:1045B0008091F403892B8083E016F10609F47DCD08
:1045C000F80181918F012091DC033091DD03232BD1
:1045D00019F00E94D00EF0CF28E030E040E8E091E2
:1045E000EA03F091EB039091F203542F582319F052
:1045F0005081952B03C05081909595239083E09135
:10460000EC03F091ED0350819091F303952B90838F
:10461000E091EC03F091ED0350819091F3039095BC
:1046200095239083469521503109C9F6C5CFE09175
:10463000F003F091F10390818091F503892B808341
:104640008091DC039091DD03892B09F456CD0E9403
:10465000CF0E53CDE2EFF2E01382128248EE53E028
:1046600060E070E044835583668377838AE091E05D
:104670009183808385EC90E09587848784EC90E03B
:104680009787868780EC90E0918B808B81EC90E01F
:10469000938B828B82EC90E0958B848B86EC90E000
:1046A000978B868B118E128E138E148EAFE8B3E02B
:1046B00013961C921E92129714964D935D936D93D0
:1046C0007C9317978CE191E011969C938E93E1E097
:1046D000F4E01182108280E48283178210861186B2
:1046E00012861386148615861686E1ECF3E0138293
:1046F000128220E830E03583248380E290E09783C3
:1047000086833187208793878287168A1586148649
:104710001786168681E0858B848B2FEF3FEF338BD6
:10472000228B318B208B878B108E128E118E88E519
:1047300091E091838083148E138EB68FA58F10A283
:10474000178E8FEF84A385A386A387A380A780E518
:1047500086AF17AEABE9B3E082E015968C93159760
:1047600086E116968C931697E1E9FAE0E4911796A4
:10477000EC931797EDE7FAE0E4911896EC9318970D
:1047800040E85EE360E070E01D964D935D936D93AD
:104790007C93509753968C9353978CE391E0559666
:1047A0009C938E9354970A2E1B2E58961C920E9211
:1047B000112457974FEF5FEFBA0159964D935D93D0
:1047C0006D937C935C978EE291E05E969C938E93C2
:1047D0005D970A2E1B2E91961C920E921124909793
:1047E00092964D935D936D937C9395970895A1E276
:1047F0001A2EAA1BBB1BFD010DC0AA1FBB1FEE1F5B
:10480000FF1FA217B307E407F50720F0A21BB30BA5
:10481000E40BF50B661F771F881F991F1A9469F721
:1048200060957095809590959B01AC01BD01CF017D
:104830000895EE0FFF1F0590F491E02D0994505854
:10484000BB27AA270E9437240C94AA250E949C25E6
:1048500038F00E94A32520F039F49F3F19F426F484
:104860000C9499250EF4E095E7FB0C949325E92F21
:104870000E94BB2558F3BA17620773078407950790
:1048800020F079F4A6F50C94DD250EF4E0950B2EBE
:10489000BA2FA02D0B01B90190010C01CA01A00192
:1048A0001124FF27591B99F0593F50F4503E68F1ED
:1048B0001A16F040A22F232F342F4427585FF3CF2E
:1048C000469537952795A795F0405395C9F77EF4FF
:1048D0001F16BA0B620B730B840BBAF09150A1F048
:1048E000FF0FBB1F661F771F881FC2F70EC0BA0FCE
:1048F000621F731F841F48F4879577956795B79556
:10490000F7959E3F08F0B0CF9395880F08F0992750
:10491000EE0F9795879508950E946F2508F481E022
:1049200008950E94A5240C94AA250E94A32558F05E
:104930000E949C2540F029F45F3F29F00C949325B8
:1049400051110C94DE250C9499250E94BB2568F327
:104950009923B1F3552391F3951B550BBB27AA2738
:1049600062177307840738F09F5F5F4F220F331F72
:10497000441FAA1FA9F335D00E2E3AF0E0E832D03A
:1049800091505040E695001CCAF72BD0FE2F29D03D
:10499000660F771F881FBB1F261737074807AB070F
:1049A000B0E809F0BB0B802DBF01FF2793585F4F84
:1049B0003AF09E3F510578F00C9493250C94DE2537
:1049C0005F3FE4F3983ED4F3869577956795B79566
:1049D000F7959F5FC9F7880F911D9695879597F971
:1049E0000895E1E0660F771F881FBB1F62177307EA
:1049F0008407BA0720F0621B730B840BBA0BEE1FFF
:104A000088F7E09508950E94C32588F09F5798F095
:104A1000B92F9927B751B0F0E1F0660F771F881FC3
:104A2000991F1AF0BA95C9F714C0B13091F00E94DD
:104A3000DD25B1E008950C94DD25672F782F8827B8
:104A4000B85F39F0B93FCCF3869577956795B39504
:104A5000D9F73EF490958095709561957F4F8F4F73
:104A60009F4F0895E89409C097FB3EF49095809578
:104A7000709561957F4F8F4F9F4F9923A9F0F92F24
:104A800096E9BB279395F695879577956795B795A2
:104A9000F111F8CFFAF4BB0F11F460FF1BC06F5F88
:104AA0007F4F8F4F9F4F16C0882311F096E911C09A
:104AB000772321F09EE8872F762F05C0662371F0BB
:104AC00096E8862F70E060E02AF09A95660F771FCF
:104AD000881FDAF7880F9695879597F90895990FAB
:104AE0000008550FAA0BE0E8FEEF16161706E807B8
:104AF000F907C0F012161306E407F50798F0621BD9
:104B0000730B840B950B39F40A2661F0232B242BAD
:104B1000252B21F408950A2609F4A140A6958FEFCC
:104B2000811D811D089597F99F6780E870E060E01E
:104B300008959FEF80EC089500240A941616170636
:104B400018060906089500240A941216130614067E
:104B500005060895092E0394000C11F4882352F0E1
:104B6000BB0F40F4BF2B11F460FF04C06F5F7F4F99
:104B70008F4F9F4F089557FD9058440F551F59F080
:104B80005F3F71F04795880F97FB991F61F09F3F3A
:104B900079F087950895121613061406551FF2CF63
:104BA0004695F1DF08C0161617061806991FF1CFB3
:104BB00086957105610508940895E894BB276627DA
:104BC0007727CB0197F908950E946F2508F48FEF9E
:104BD00008950E94FC250C94AA250E949C2538F07B
:104BE0000E94A32520F0952311F00C9493250C949A
:104BF000992511240C94DE250E94BB2570F3959F06
:104C0000C1F3950F50E0551F629FF001729FBB27C3
:104C1000F00DB11D639FAA27F00DB11DAA1F649F5F
:104C20006627B00DA11D661F829F2227B00DA11D12
:104C3000621F739FB00DA11D621F839FA00D611D98
:104C4000221F749F3327A00D611D231F849F600DB9
:104C5000211D822F762F6A2F11249F5750409AF0E2
:104C6000F1F088234AF0EE0FFF1FBB1F661F771F6E
:104C7000881F91505040A9F79E3F510580F00C9439
:104C800093250C94DE255F3FE4F3983ED4F386959C
:104C900077956795B795F795E7959F5FC1F7FE2BD9
:104CA000880F911D9695879597F908950E946F2515
:104CB000880B990B08950F931F93CF93DF93823046
:104CC000910510F482E090E0E0911204F091130459
:104CD00020E030E0A0E0B0E0309719F14081518150
:104CE0000281138148175907C8F08417950769F4A2
:104CF000109731F012960C93129713961C9327C0BD
:104D0000009312041093130422C02115310519F0E9
:104D10004217530718F49A01BD01EF01DF01F801B2
:104D2000DBCF21153105F9F0281B390B2430310573
:104D300080F48A819B816115710521F0FB019383C9
:104D4000828304C09093130480931204FE01329670
:104D500044C0FE01E20FF31F819391932250310969
:104D6000398328833AC02091100430911104232BF9
:104D700041F42091020130910301309311042093FA
:104D8000100420910001309101012115310541F4F9
:104D90002DB73EB74091040150910501241B350BFE
:104DA000E0911004F0911104E217F307A0F42E1B18
:104DB0003F0B2817390778F0AC014E5F5F4F24177F
:104DC000350748F04E0F5F1F5093110440931004B5
:104DD0008193919302C0E0E0F0E0CF01DF91CF91A9
:104DE0001F910F910895CF93DF93009709F481C02D
:104DF000FC01329713821282A0911204B091130425
:104E0000109781F420813181820F931F209110042B
:104E1000309111042817390751F5F0931104E093EC
:104E2000100467C0ED0120E030E0CE17DF0740F44A
:104E30004A815B819E0141155105F1F0EA01F5CFF0
:104E4000D383C28340815181840F951FC817D9072E
:104E500059F488819981840F951F029691838083EC
:104E60008A819B81938382832115310529F4F093F4
:104E70001304E09312043DC0E901FB83EA834991E6
:104E80005991C40FD51FEC17FD0761F48081918102
:104E9000840F951F0296E90199838883828193810B
:104EA0009B838A83E0E0F0E012968D919C911397AA
:104EB000009719F0FD01DC01F7CF8D919C911197BE
:104EC0009D012E5F3F4F820F931F20911004309160
:104ED00011042817390769F4309729F41092130444
:104EE0001092120402C013821282B0931104A09394
:104EF0001004DF91CF91089581E090E0F8940C9434
:104F00009727DC0101C06D9341505040E0F70895B0
:104F1000FB01DC014150504048F001900D9200200F
:104F2000C9F701C01D9241505040E0F7089515E0C7
:104F3000C3E5D5E004C0FE010E9419242196C435C2
:084F4000D107C9F7F894FFCF77
:104F48000000140420000000000011067E05A805DA
:104F58005E06D905B705CB05000000006B0A3E0ABE
:104F68009B0AFD08360A220A130A000000002011D5
:104F78005A0E9E0AB00B9F0A0000000021115C0E19
:104F88009E0A360C1D0B00000000000000009E0A5F
:104F98002211221100000000820D7E059B0A9A0A48
:104FA8008A06FD082609FE081A090E092D09FD08BA
:104FB80048073D0FF30C370D46082908BC075D0765
:104FC8000D0A0050696E2C004C6967687420496EA0
:104FD80074656E736974792C0054656D7020432C68
:104FE8000048756D69646974792C00566F6C74613A
:104FF8006765286D56292C00416D7065726167657B
:10500800286D41292C00506F776572286D5729004B
:1050180050696E3A20004C6967687420496E74655F
:105028006E736974793A2000566F6C7461676528ED
:105038006D56293A2000416D706572616765286D6B
:1050480041293A2000746573740044485431310092
:1050580044485431320044485432310044485432B0
:1050680032004448543F006E616E00696E66006FFE
:045078007666000058
:00000001FF
