:100000000C9454050C947C050C947C050C947C0594
:100010000C947C050C947C050C947C050C947C055C
:100020000C947C050C947C050C947C050C947C054C
:100030000C947C050C947C050C947C050C947C053C
:100040000C94B31B0C947C050C94740D0C944E0D05
:100050000C947C050C947C050C947C050C947C051C
:100060000C946E0E0C947C05DB40A4A62EAF2000F1
:10007000A1C8D300408DAED580A80000600000006C
:100080000000000000000000000000E00000000090
:1000900000000000000000000001E000000000007F
:1000A000000000000000000001F00000000000005F
:1000B0000000000000000003F0000000000000004D
:1000C00000000000000007F0000000000000000039
:1000D000000000000007F800000000000000000021
:1000E000000000000FF800000003C0007E000001C7
:1000F000E0007F0FF800000003C000FE000001E0F8
:1001000000FFEFF800000003C000FE000001E00067
:10011000FFFFF800000003C000F00000000F007FA8
:10012000FE7FC0000003C000F00000000F003FFE93
:100130007FF83FF1FBCFFCFEF3BC3DEFE01FFE7FFD
:10014000FF7FFBFFDFFEFEFFBC3DEFE01FC6FFFFB2
:100150007FFBFFDFFEFEFFBC3DEFE00FE3C7FE7855
:100160007BC3DE1EF0FFBC3DEF0007FF87FC787B02
:10017000C3DE1EF0F83C3DEF0001FFFFF0007BC343
:10018000C01EF0F03C3DEF0001F37FE03FFBC3CF2A
:10019000FEF0F03C3DEF0003E33F807FFBC3DFFE5A
:1001A000F0F03C3DEF0007E73C00787BC3DE1EF03B
:1001B000F03C3DEF0007FFBE00787BC3DE1EF0F091
:1001C0003C3DEF0007FFFE00787BC3DE1EF0F03CF5
:1001D0003DEF000FFFFE007FFBFFDFFEF0F03FFD75
:1001E000EFE00FFFFF007FFBFFDFFEF0F03FFDEFD2
:1001F000E00FF9FF003E79F9CF9EF0F01F3DE7E0F8
:100200001FF1FF0000000000000000000000001FC0
:1002100080FF007FFFFFFFFFFFFFFFFFFFE01C00ED
:100220007F007FFFFFFFFEB46D888D18E000001F88
:10023000007FFFFFFFFE95AD7DB577E000000F006A
:100240007FFFFFFFFEA5AD9D8D19E0000006007F3A
:10025000FFFFFFFEB5ADEDB57EE000000000000140
:10026000800000000000000000000380000000008B
:10027000000000000007C0000000000000000000B7
:1002800007C00000000000000000000FC0000000D8
:100290000000000000001FE000000000000000005F
:1002A000001FE00000000000000000003FE0000030
:1002B000000000000000003FF0000000000000000F
:1002C00000007FF0000000000000001FF87FF00039
:1002D0000000000000003FFE7FF000000000000072
:1002E000003FFF7FF0000000000000001FFFFBE068
:1002F000000000000000000FFFF9FFC00000000038
:1003000000000FFFF9FFF800000000000007FFF1F8
:10031000FFFF00000000000003FC73FFFF800000EF
:1003200000000001FE3FFFFF80000000000000FF12
:100330001E0FFF000000000000007FFE1FFC0000F9
:1003400000000000003FFFFFF80000000000000078
:100350000FDFFFE0000000000000001F19FFC000D9
:100360000000000000003F3CFF0000000000000013
:10037000007E7CF800000000000000007FFE7C0092
:1003800000000000000000FFFFFC00000000000073
:100390000000FFFFFE0000000000000000FFFFFE65
:1003A0000000000000000001FFEFFE000000000060
:1003B000000001FFCFFE0000000000000003FF0767
:1003C000FE0000000000000003FC07FE000000002B
:1003D00000000003F003FE000000000000000180A8
:1003E00000FE000000000000000000007E00000091
:1003F000000000000000003E0000000000000000BF
:1004000000000C000000000000078000FC0000035A
:10041000C0000000078001FC000003C000000007CE
:100420008001FC000003C0000000078001E0000024
:10043000001E000000078001E00000001E007FE3B6
:10044000F79FF9FDE7787BDFC0FFF7FFBFFDFDFFFA
:10045000787BDFC0FFF7FFBFFDFDFF787BDFC0F0DB
:10046000F787BC3DE1FF787BDE00F0F787BC3DE11C
:10047000F0787BDE0000F787803DE1E0787BDE00EE
:100480007FF7879FFDE1E0787BDE00FFF787BFFD08
:10049000E1E0787BDE00F0F787BC3DE1E0787BDED1
:1004A00000F0F787BC3DE1E0787BDE00F0F787BC29
:1004B0003DE1E0787BDE00FFF7FFBFFDE1E07FFB81
:1004C000DFC0FFF7FFBFFDE1E07FFBDFC07CF3F3A0
:1004D0009F3DE1E03E7BCFC0000000000000000037
:1004E000000000FFFFFFFFFFFFFFFFFFFFC0FFFF58
:1004F000FFFFFD68DB111A31C0FFFFFFFFFD2B5A24
:10050000FB6AEFC0FFFFFFFFFD4B5B3B1A33C0FFF1
:10051000FFFFFFFD6B5BDB6AFDC05353443133309B
:100520003620616C6C6F636174696F6E20666169FF
:100530006C656400000000002300260029002200F2
:10054000FF21000404040404040404020202020261
:100550000203030303030301020408102040800187
:1005600002040810200102040810200000000024EA
:100570000027002A0000000000250028002B0000B2
:100580000000080002010000030407000000000052
:10059000000000000103070F1F3F7F0080C0E0F054
:1005A000F8FCFE00000000003E5B4F5B3E3E6B4FE0
:1005B0006B3E1C3E7C3E1C183C7E3C181C577D57F5
:1005C0001C1C5E7F5E1C00183C1800FFE7C3E7FFA1
:1005D0000018241800FFE7DBE7FF30483A060E2634
:1005E00029792926407F050507407F05253F5A3C8C
:1005F000E73C5A7F3E1C1C08081C1C3E7F14227FCF
:1006000022145F5F005F5F06097F017F00668995A6
:100610006A606060606094A2FFA29408047E04088F
:1006200010207E201008082A1C08081C2A08081E12
:10063000101010100C1E0C1E0C30383E3830060EF8
:100640003E0E06000000000000005F0000000700F2
:100650000700147F147F14242A7F2A1223130864AE
:100660006236495620500008070300001C22410052
:100670000041221C002A1C7F1C2A08083E08080092
:100680008070300008080808080000606000201032
:100690000804023E5149453E00427F4000724949EC
:1006A00049462141494D331814127F1027454545CD
:1006B000393C4A49493141211109073649494936EE
:1006C000464949291E000014000000403400000083
:1006D00008142241141414141400412214080201B5
:1006E0005909063E415D594E7C1211127C7F4949E1
:1006F00049363E414141227F4141413E7F4949497E
:10070000417F090909013E414151737F0808087F73
:1007100000417F41002040413F017F081422417F7A
:10072000404040407F021C027F7F0408107F3E4112
:1007300041413E7F090909063E4151215E7F091969
:100740002946264949493203017F01033F40404081
:100750003F1F2040201F3F4038403F631408146370
:1007600003047804036159494D43007F414141022C
:1007700004081020004141417F040201020440406E
:10078000404040000307080020545478407F28442C
:1007900044383844444428384444287F3854545416
:1007A0001800087E090218A4A49C787F0804047825
:1007B00000447D40002040403D007F102844000060
:1007C000417F40007C047804787C08040478384435
:1007D000444438FC1824241818242418FC7C0804E9
:1007E0000408485454542404043F44243C4040200A
:1007F0007C1C2040201C3C4030403C4428102844B5
:100800004C9090907C4464544C4400083641000065
:1008100000770000004136080002010204023C2675
:1008200023263C1EA1A161123A4040207A3854543C
:1008300055592155557941225454784221555478BF
:100840004020545579400C1E527212395555555955
:10085000395454545939555454580000457C41007A
:1008600002457D420001457C407D1211127DF02839
:100870002528F07C545545002054547C547C0A09AA
:100880007F4932494949323A4444443A324A484815
:10089000303A4141217A3A42402078009DA0A07D23
:1008A0003D4242423D3D4040403D3C24FF242448DF
:1008B0007E4943662B2FFC2F2BFF0929F620C08889
:1008C0007E090320545479410000447D413048485A
:1008D0004A32384040227A007A0A0A727D0D193174
:1008E0007D2629292F28262929292630484D4020D0
:1008F000380808080808080808382F10C8ACBA2FAC
:10090000102834FA00007B000008142A1422221454
:100910002A14085500550055AA55AA55AAFF55FF97
:1009200055FF000000FF00101010FF00141414FF0A
:10093000001010FF00FF1010F010F0141414FC0051
:100940001414F700FF0000FF00FF1414F404FC145B
:100950001417101F10101F101F1414141F00101054
:1009600010F0000000001F101010101F10101010C9
:10097000F010000000FF101010101010101010FFE9
:1009800010000000FF140000FF00FF00001F101700
:100990000000FC04F414141710171414F404F400E9
:1009A00000FF00F714141414141414F700F71414AF
:1009B00014171410101F101F141414F4141010F036
:1009C00010F000001F101F0000001F14000000FCAA
:1009D000140000F010F01010FF10FF141414FF1496
:1009E0001010101F00000000F010FFFFFFFFFFF0CD
:1009F000F0F0F0F0FFFFFF0000000000FFFF0F0F1E
:100A00000F0F0F3844443844FC4A4A4A347E0202ED
:100A10000606027E027E0263554941633844443C27
:100A200004407E201E2006027E020299A5E7A599B9
:100A30001C2A492A1C4C7201724C304A4D4D3030F0
:100A400048784830BC625A463D3E494949007E01DB
:100A500001017E2A2A2A2A2A44445F444440514AFA
:100A6000444040444A51400000FF0103E080FF0041
:100A70000008086B6B083612362436060F090F067D
:100A8000000018180000001010003040FF010100A5
:100A90001F01011E00191D1712003C3C3C3C0000C8
:100AA00000000000E622FD1B11241FBECFEFD8E09E
:100AB000DEBFCDBF12E0A0E0B1E0E8E5FEE402C099
:100AC00005900D92A433B107D9F724E0A4E3B2E076
:100AD00001C01D92A330B207E1F715E0C3E5D5E0F0
:100AE00004C02197FE010E94A923C235D107C9F78E
:100AF0000E940C1C0C941F270C940000CF92DF92D4
:100B0000EF92FF920F931F93CF93DF936C017A01C3
:100B10008B01C0E0D0E0CE15DF0581F0D8016D91EA
:100B20008D01D601ED91FC910190F081E02DC6017F
:100B30000995892B11F02196EECF7E01C701DF9137
:100B4000CF911F910F91FF90EF90DF90CF9008957C
:100B5000FC01538D448D252F30E0842F90E0821BC3
:100B6000930B541710F0CF96089501970895FC0148
:100B7000918D828D981761F0828DDF01A80FB11DD4
:100B80005D968C91928D9F5F9F73928F90E00895F8
:100B90008FEF9FEF0895FC01918D828D981731F0B2
:100BA000828DE80FF11D858D90E008958FEF9FEF06
:100BB0000895FC01918D228D892F90E0805C9F4FDC
:100BC000821B91098F739927089587EE92E00E9406
:100BD000D90521E0892B09F420E0822F0895FC013A
:100BE000848DDF01A80FB11DA35ABF4F2C91848DB6
:100BF00090E001968F739927848FA689B7892C93EB
:100C0000A089B1898C91837080648C93938D848D3D
:100C1000981306C00288F389E02D80818F7D808340
:100C20000895EF92FF920F931F93CF93DF93EC0100
:100C300081E0888F9B8D8C8D981305C0E889F98998
:100C4000808185FD26C0F62E0B8D10E00F5F1F4FB3
:100C50000F731127E02E8C8DE8120CC00FB607FC25
:100C6000FACFE889F989808185FFF5CFCE010E940E
:100C7000EF05F1CF8B8DFE01E80FF11DE35AFF4F19
:100C8000F0829FB7F8940B8FEA89FB89808180629C
:100C90000AC09FB7F894EE89FF896083E889F989D3
:100CA00080818370806480839FBF81E090E0DF91CA
:100CB000CF911F910F91FF90EF900895CF93DF9305
:100CC000EC01888D8823C9F0EA89FB89808185FD44
:100CD00005C0A889B9898C9186FD0FC00FB607FCA5
:100CE000F5CF808185FFF2CFA889B9898C9185FFE6
:100CF000EDCFCE010E94EF05E7CFDF91CF910895B0
:100D000080E090E0892B29F00E94E50581110C9488
:100D100000000895FC0177FDB9C0808591856817B2
:100D200079070CF0B3C057FDB1C082859385481791
:100D300059070CF008958689823079F48481958171
:100D4000DC01A61BB70BBD0161507109868197813B
:100D5000DC01A41BB50BAD010EC0833009F084C0CB
:100D600064277527CA018627972768277927468130
:100D70005781481B590B415051092130310531F041
:100D800048F12230310509F44AC00895CA0157FDDF
:100D900007969C01A3E035952795AA95E1F7A481D4
:100DA000B5812A9FC0012B9F900D3A9F900D112471
:100DB000680F791F078CF0A1E02DE60FF71F477031
:100DC000552781E090E001C0880F4A95EAF79081AD
:100DD000892B48C0CA0157FD07969C0193E03595C1
:100DE00027959A95E1F7A481B5812A9FC0012B9F91
:100DF000900D3A9F900D1124680F791F078CF0A178
:100E0000E02DE60FF71F4770552781E090E001C005
:100E1000880F4A95EAF780959081892323C0CA01FB
:100E200057FD07969C0183E0359527958A95E1F754
:100E3000A481B5812A9FC0012B9F900D3A9F900DF0
:100E40001124680F791F078CF0A1E02DE60FF71F22
:100E50004770552781E090E001C0880F4A95EAF776
:100E60009081892780830895813009F086CF642797
:100E70007527462757276427752784819581DC01CC
:100E8000A61BB70BBD016150710977CF0895089576
:100E9000FC016370668B8481958126813781613086
:100EA00039F0633029F0918780873387228708954E
:100EB000318720879387828708956F927F928F92E0
:100EC0009F92AF92BF92CF92DF92EF92FF920F93D9
:100ED0001F93CF93DF93EC014B015A016901380155
:100EE000E881F9810284F385E02D0995E881F98193
:100EF0000288F389E02D87019601A501B401CE0196
:100F00000995A501460D571D41505109E881F98108
:100F10000288F389E02D9601B401CE010995E8819C
:100F2000F9810088F189E02D9301A501B401CE017A
:100F30000995C80CD91CB60161507109E881F98185
:100F40000088F189E02D9301A501CE010995E88182
:100F5000F9810688F789E02DCE01DF91CF911F91AD
:100F60000F91FF90EF90DF90CF90BF90AF909F9048
:100F70008F907F906F9009948F929F92AF92BF92C3
:100F8000CF92DF92EF92FF920F931F93CF93DF9355
:100F90004C016B015A01E901DC01ED91FC916217F2
:100FA000730781F40417150724F48B2D5801042FBF
:100FB000182F0A191B0998012F5F3F4F048CF58DDC
:100FC000E02D12C04017510709F52617370724F402
:100FD0008D2D6901C62FD82F9E012C193D092F5F39
:100FE0003F4F068CF78DE02D8701A501B601C401A6
:100FF0000995DF91CF911F910F91FF90EF90DF90B6
:10100000CF90BF90AF909F908F9008950284F3850A
:10101000E02D0995D401ED91FC910488F589E02D2E
:101020009E01A501B601C4010995D401ED91FC9181
:101030000688F789E02DC401DF91CF911F910F91B0
:10104000FF90EF90DF90CF90BF90AF909F908F90E8
:101050000994EF92FF920F931F93DC011A960D9162
:101060001C911B9718962D913C911997ED91FC912D
:1010700000A0F1A1E02D7B0140E050E060E070E0D5
:1010800009951F910F91FF90EF9008954F925F92F5
:101090006F927F928F929F92AF92BF92CF92DF9288
:1010A000EF92FF920F931F93CF93DF936C012B016D
:1010B0005A0139014801DC01ED91FC910284F3856C
:1010C000E02D0995E201640C751CD601ED91FC91AF
:1010D000C615D7055CF40088F189E02D87019401DD
:1010E000A501BE01C60109952196EFCF0688F789B3
:1010F000E02DC601DF91CF911F910F91FF90EF90EE
:10110000DF90CF90BF90AF909F908F907F906F9027
:101110005F904F9009948F929F92AF92BF92CF921F
:10112000DF92EF92FF920F931F93CF93DF93EC0127
:101130005B014A016901E881F9810284F385E02DB0
:10114000099595012C0D3D1D21503109E881F9814A
:101150000488F589E02D78018401A401B501CE0150
:101160000995E881F9810688F789E02DCE01DF91A4
:10117000CF911F910F91FF90EF90DF90CF90BF9094
:10118000AF909F908F9009948F929F92AF92BF9251
:10119000CF92DF92EF92FF920F931F93CF93DF9343
:1011A000EC015B014A0169017801E881F98102845F
:1011B000F385E02D0995C80CD91C86010150110951
:1011C000E881F9810488F589E02D9501A401B50134
:1011D000CE010995E881F9810688F789E02DCE01D5
:1011E000DF91CF911F910F91FF90EF90DF90CF9003
:1011F000BF90AF909F908F9009940895EF92FF92C7
:101200000F931F93DC01ED91FC9100A0F1A1E02D63
:1012100009951F910F91FF90EF9008950F931F93E1
:10122000DC01ED91FC91068CF78DE02D09951F9165
:101230000F9108950F931F93DC01ED91FC91048CA5
:10124000F58DE02D09951F910F910895DC01ED9129
:10125000FC910084F185E02D09942F923F924F92EA
:101260005F926F927F928F929F92AF92BF92CF9236
:10127000DF92EF92FF920F931F93CF93DF9300D0F3
:1012800000D000D0CDB7DEB72C017E836D836A011C
:101290005901C801FC82EB824801841A950A97FE25
:1012A00003C091948194910835012D813E81621A89
:1012B000730A77FE03C0719461947108681479040D
:1012C0005CF43A2D2B2D5C01832F922F3D812E81D2
:1012D000DE82CD82C32ED22EAD81BE81AA16BB0680
:1012E0005CF43C2D2D2D6C01832F922F3D812E819E
:1012F000BE82AD82A32EB22E85012D813E81021BBE
:10130000130B1C012C183D0837FE03C031942194A7
:101310003108780117FF03C03FEFE31AF30AF59491
:10132000E794C816D9062CF08FEF9FEF9A83898334
:1013300004C0A1E0B0E0BA83A9832D813E81A2164A
:10134000B30624F1D201ED91FC910484F585E02DE2
:101350002B813C816814790424F44D815E81B601AF
:1013600003C0A6016D817E81C2010995E218F308D0
:10137000F7FE06C029813A81C20ED31EE00EF11E8F
:101380008D819E8101969E838D83D7CF26960FB641
:10139000F894DEBF0FBECDBFDF91CF911F910F91AB
:1013A000FF90EF90DF90CF90BF90AF909F908F9085
:1013B0007F906F905F904F903F902F90089585EDB4
:1013C0008093BC008091BC0084FDFCCF1092C002D1
:1013D000089540917402262F30E0240F311D2132F0
:1013E0003105DCF42091C0022430C9F4FC0180E016
:1013F00090E0861758F4309174022191DC01AC5AC8
:10140000BD4FA30FB11D2C930196F3CF80917402B1
:10141000680F6093740280E0089581E0089582E08F
:10142000089508950895E091C2028091C102E817DD
:1014300030F4F0E0ED53FD4F808190E008958FEFA0
:101440009FEF08959091C2028091C102981750F4C5
:10145000E92FF0E0ED53FD4F208130E09F5F909346
:10146000C20202C02FEF3FEFC90108958091C1026F
:1014700090E02091C202821B91090895CF92DF92E1
:10148000EF92FF920F931F93CF93DF937C01CB01D9
:101490008A012091E602222389F0EB016B01C40E40
:1014A000D51ECC15DD0569F06991D701ED91FC9150
:1014B0000190F081E02DC7010995F3CF642F0E94C0
:1014C000E909C801DF91CF911F910F91FF90EF9033
:1014D000DF90CF900895CF93DF931F92CDB7DEB703
:1014E00069832091E6022223D1F02091E302203289
:1014F00040F021E030E0FC013383228380E090E083
:1015000015C08091E402E82FF0E0EC5CFD4F99817A
:1015100090838F5F8093E4028093E30205C061E0D3
:10152000CE0101960E94E90981E090E00F90DF91E1
:10153000CF910895089580E090E008950E941327C8
:101540000F931F93CF93DF93DC015696EC91569740
:10155000E23071F0E330E9F0E13079F5FB01149607
:101560000D90BC91A02DA41BB50BA21BB30B18C0F2
:10157000EC01EC81FD81E61BF70BBF0161507109A5
:10158000EE81FF81DF01A41BB50BAD01421B530BA4
:1015900014C0DA01EC01EE81FF81E61BF70B3197F5
:1015A000F7FD0DC0EC014E815F81E417F5073CF4B7
:1015B000AF01BD010E94931702C00E94FA17DF918C
:1015C000CF911F910F9108950F931F93DC015696B1
:1015D000EC915697E23061F0E33009F1E13081F5AA
:1015E0001496ED91FC911597E41BF50B319723C0F0
:1015F000DC011496ED91FC911597DF01A61BB70B4A
:10160000BD01DC011696ED91FC911797DF01A41B3B
:10161000B50BAD0141505109621B730B11C0FA01AA
:10162000DC0116964D915C911797DA01A61BB70B5A
:10163000BD01621B730BAB01BF010E94FA170CC006
:1016400057FD0AC0DC011696ED91FC9117974E17D5
:101650005F0714F40E9493171F910F9108958F92C2
:101660009F92AF92CF92EF92FF920F931F93CF93DF
:10167000DF93EC01262F898D9A8D009709F042C0E7
:101680006A3059F41D861C862D898E859F8538E029
:10169000239F800D911D112443C06D3009F4AAC011
:1016A0008F898823C9F03C898C859D8546E0349FCD
:1016B000800D911D1124488559854817590764F4F8
:1016C0001D861C863D898E859F8548E0349F800D50
:1016D000911D11249F878E87EA88FB8808891989C4
:1016E0004E855F856C857D85AD88CC88CE010E9456
:1016F0005F152C898C859D8536E0239F800D911D7B
:1017000011243EC06A3079F41D861C862D89FC01A7
:101710003896E4918E859F852E9F800D911D112412
:101720009F878E8767C06D3009F464C0FC013496D2
:101730003491631708F45EC03296E491E61708F41A
:1017400059C0462F431B342FFC013296859094904C
:1017500047E0349F800C911C1124F401329634919F
:101760003196E491332311F0E1110DC0F401349668
:10177000E4912C898C859D85E29F800D911D11241B
:101780009D878C8737C0F401359644915F89552336
:1017900019F15C89E32FF0E0E40FF11D47FDFA95A4
:1017A0005E9FB0015F9F700D11244C855D85460FD3
:1017B000571F688579856417750774F41D861C8624
:1017C0003D89FC013896E4918E859F853E9F800D72
:1017D000911D11249F878E87EA88FB8808891989C3
:1017E0004E855F856C857D85AD88CC88CE010E9455
:1017F0005F15BCCF81E090E0DF91CF911F910F91F9
:10180000FF90EF90CF90AF909F908F900895DC0164
:10181000ED91FC910190F081E02D09946115710525
:1018200079F0FB0101900020E9F73197AF01461BE9
:10183000570BDC01ED91FC910280F381E02D0994BE
:1018400080E090E008958F929F92AF92BF92EF92C6
:10185000FF920F931F93CF93DF93CDB7DEB7A1977E
:101860000FB6F894DEBF0FBECDBF7C01FA01CB01ED
:1018700019A2223008F42AE08E010F5D1F4F822E3C
:10188000912CA12CB12CBF01A50194010E948723AA
:10189000F901CA01015011096A3014F4605D01C0F8
:1018A000695CD8016C93232B242B252B61F7B8019D
:1018B000C7010E940E0CA1960FB6F894DEBF0FBEB2
:1018C000CDBFDF91CF911F910F91FF90EF90BF900F
:1018D000AF909F908F9008957F928F929F92AF923A
:1018E000BF92CF92DF92EF92FF920F931F93CF930D
:1018F000DF938C016A017B01722E9A01AB01C70153
:10190000B6010E94ED25882319F066E771E027C033
:1019100046015701E894B7F82FEF3FEF4FE75FE735
:10192000C501B4010E94ED2581110DC02FEF3FEFDD
:101930004FE75FE7C501B4010E941C2418161CF490
:101940006AE771E00CC02FEF3FEF4FE75FE4C7019C
:10195000B6010E947B25181694F46EE771E0C80169
:10196000DF91CF911F910F91FF90EF90DF90CF907B
:10197000BF90AF909F908F907F900C940E0C2FEFA4
:101980003FEF4FE75FECC701B6010E941C2487FDC3
:10199000E4CF20E030E0A901C701B6010E941C2479
:1019A00087FF0AC06DE2C8010E94070CEC01F7FA3C
:1019B000F094F7F8F09402C0C0E0D0E0B12C60E001
:1019C00070E080E09FE37B1441F020E030E040E2F3
:1019D00051E40E942124B394F6CFA70196010E94FE
:1019E000B0236B017C010E949A244B015C012AE028
:1019F000AB01BC01C8010E94230CC80FD91F77207E
:101A0000C1F1C501B4010E94C9249B01AC01C70109
:101A1000B6010E94AF236B017C016EE2C8010E94F7
:101A2000070CC80FD91F20E030E040E251E4C701A5
:101A3000B6010E9480254B015C010E949A246B0133
:101A4000E12CF12C2AE0B701A601C8010E94230C69
:101A5000C80FD91FC701B6010E94C9249B01AC0160
:101A6000C501B4010E94AF236B017C017A9471100F
:101A7000DACFCE01DF91CF911F910F91FF90EF90C0
:101A8000DF90CF90BF90AF909F908F907F90089500
:101A900062E871E00C940E0C0C940E0C1F920F92E5
:101AA0000FB60F9211242F933F934F935F936F9331
:101AB0007F938F939F93AF93BF93EF93FF9387EEA3
:101AC00092E00E94EF05FF91EF91BF91AF919F913E
:101AD0008F917F916F915F914F913F912F910F90D7
:101AE0000FBE0F901F9018951F920F920FB60F9276
:101AF00011242F938F939F93EF93FF93E091F7021D
:101B0000F091F8028081E091FD02F091FE0282FDE9
:101B100012C09081809100038F5F8F732091010329
:101B2000821751F0E0910003F0E0E951FD4F958FED
:101B30008093000301C08081FF91EF919F918F916D
:101B40002F910F900FBE0F901F90189508958EBD86
:101B500000000DB407FEFDCF8EB508951F93CF93FF
:101B6000DF93FC01858D968D009729F1162FEF01EB
:101B700021A131E03093E6022093E5021092E402C5
:101B80001092E302DC01ED91FC910190F081E02DD7
:101B900060E009958D8D9E8DDC01ED91FC910190A9
:101BA000F081E02D612F09958D8D9E8DDF91CF9174
:101BB0001F910C94F70FA5A5B6A59C9183A98095BC
:101BC00089238C93838D948D892B31F0862FDF911F
:101BD000CF911F910C94A70D28E030E080E8A1A5DB
:101BE000B2A591A9462F482319F04C91942B03C01C
:101BF0004C91909594239C93A3A5B4A54C9192A944
:101C0000942B9C93A3A5B4A54C9192A99095942351
:101C10009C9386952150310911F7DF91CF911F9147
:101C200008958CBD9DBD08951F93CF93DF93EC0164
:101C3000162F8D8D9E8D892BB1F02DA93EA94FA910
:101C400058AD60E074E284EF90E00E948723DA01EF
:101C5000C9014097A109B109B695A79597958795B0
:101C60008093B8000FC08B8D9C8D892B21F08EAD99
:101C70009FAD0E94110EEFA5F8A990818CA98095C7
:101C800089238083111102C066EA01C067EACE0190
:101C90000E94AE0D8D8D9E8D892BB1F029AD3AAD90
:101CA0004BAD5CAD60E074E284EF90E00E9487236E
:101CB000DA01C9014097A109B109B695A795979591
:101CC00087958093B80006C0EFA5F8A990818CA9EC
:101CD000892B8083DF91CF911F9108951F920F92DE
:101CE0000FB60F9211242F933F934F935F936F93EF
:101CF0007F938F939F93AF93BF93EF93FF938091C5
:101D0000B900887F803609F49CC068F5883209F4F0
:101D10005BC090F4803109F454C038F4882309F48E
:101D2000F6C0883009F44DC0F6C0883109F44CC0C3
:101D3000803209F45DC0EFC0803409F468C048F413
:101D4000803309F455C0883309F0E5C08093BE02A2
:101D5000D8C0803509F44FC0883509F45DC0883497
:101D600009F0D9C0D6C0883909F4C7C0A8F48837AB
:101D700009F467C038F4883609F463C0803709F481
:101D800060C0C9C0883809F4B8C0803909F45FC0A0
:101D9000803809F0C0C05BC0803B09F486C038F4CD
:101DA000803A09F466C0883A09F47FC0B4C0803C28
:101DB00009F4A7C0883C09F4A4C0883B09F48AC090
:101DC000AAC08091BB0210C09091BD028091BC025C
:101DD000981770F5E091BD0281E08E0F8093BD02EF
:101DE000F0E0E656FD4F80818093BB0085EC86C015
:101DF0008093BE028EC0E091BD0281E08E0F809381
:101E0000BD028091BB00F0E0E656FD4F80839091CB
:101E1000BD028091BC026EC0E091BD0281E08E0FD8
:101E20008093BD028091BB00F0E0E656FD4F8083B9
:101E30008091BF0281116DC081E08093BA0284EA73
:101E400061C083E08093C00210929602CFCF809150
:101E50009602803208F051C0E091960281E08E0F28
:101E6000809396028091BB00F0E0EA58FD4F80839A
:101E7000BDCF85EC8093BC001092C0028091960289
:101E8000803230F4E0919602F0E0EA58FD4F108283
:101E90006091960270E0E091F203F091F30386E71F
:101EA00092E009951092960236C084E08093C002B9
:101EB0001092750210927402E091F403F091F50310
:101EC000099580917402811105C081E080937402AC
:101ED00010925402E091750281E08E0F809375029A
:101EE000F0E0EC5AFD4F80818093BB009091750229
:101EF00080917402981708F479CF85E88093BC002C
:101F00000AC085EC8093BC001092C00204C01092FD
:101F1000BE020E94DF09FF91EF91BF91AF919F91A7
:101F20008F917F916F915F914F913F912F910F9082
:101F30000FBE0F901F9018953091E302313208F0D8
:101F40004AC08091C0028111FCCF9091E50222E04D
:101F50002093C0026093BF022FEF2093BE02109225
:101F6000BD023093BC02E4E3F2E0AAE9B2E020E073
:101F7000321721F041914D932F5FFACF1092BB029F
:101F80002091BB02990F922B9093BB029091BA02C1
:101F9000913061F41092BA029091BB029093BB0011
:101FA0009091BC0093FDF8CF95EC01C095EE909315
:101FB000BC009091C0029230E1F39091BE029F3F2D
:101FC00079F08091BE02803241F08091BE02803370
:101FD00031F084E005C081E003C082E001C083E00D
:101FE0001092E4021092E3021092E602089561E07A
:101FF0000C949C0FDF92EF92FF920F931F93CF935D
:10200000DF93D82ED92FC62F8091C0039091C103A2
:10201000009709F454C02091C40331E03093E602E4
:102020002093E5021092E4021092E302DC01ED91AC
:10203000FC910190F081E02D60E00995ED2CFD2EE2
:1020400011E0D1E08091C0039091C103CC2371F1E4
:102050001032C8F00E94F70F8091C403D093E602BB
:102060008093E5021092E4021092E3028091C00393
:102070009091C103DC01ED91FC910190F081E02D84
:1020800060E0099511E08091C0039091C103F701D0
:102090006491DC01ED91FC910190F081E02D0995B6
:1020A0001F5FC150BFEFEB1AFB0ACCCFDF91CF917E
:1020B0001F910F91FF90EF90DF900C94F70FE0913C
:1020C000D003F091D10390818091D603809589232C
:1020D00080830D2D1D2FCC2309F439C0F801849184
:1020E0002091BE033091BF03232B31F00E94A70D36
:1020F000C1500F5F1F4FEFCF28E030E040E8E09184
:10210000CC03F091CD039091D403582F542319F0B0
:102110005081952B03C05081909595239083E09139
:10212000CE03F091CF0350819091D503952B9083EE
:10213000E091CE03F091CF0350819091D50390951B
:1021400095239083469521503109C9F6D1CFDF916F
:10215000CF911F910F91FF90EF90DF900895EF9234
:10216000FF920F931F93CF93DF938091C0039091C1
:10217000C103892BD1F02091D8033091D90340912C
:10218000DA035091DB0360E074E284EF90E00E9498
:102190008723DA01C9014097A109B109B695A7952E
:1021A000979587958093B80016C08091BE03909153
:1021B000BF03892B31F08091E1039091E2030E94EB
:1021C000110EE091D203F091D30390818091D70357
:1021D00080958923808365E08EE395E00E94FA0F65
:1021E0006091A703615083EA93E00E94AE0D2091B5
:1021F000A9033091AA03C901079697FD079633E01A
:10220000959587953A95E1F72091A7033091A8031A
:10221000829F8001839F100D929F100D1124C09109
:10222000C203D091C3038091C0039091C1030C0FEE
:102230001D1F009709F44CC02091C40331E0309376
:10224000E6022093E5021092E4021092E302DC0120
:10225000ED91FC910190F081E02D60E40995FF245F
:10226000F394EE24E3948091C0039091C1030C1782
:102270001D0759F1BFE1BF15D0F40E94F70F8091FF
:10228000C403E092E6028093E5021092E402109209
:10229000E3028091C0039091C103DC01ED91FC91B8
:1022A0000190F081E02D60E40995FF24F394809182
:1022B000C0039091C1036991DC01ED91FC91019003
:1022C000F081E02D0995F394CECF0E94F70F41C025
:1022D000E091D003F091D10390818091D603892BB6
:1022E00080830C171D07A9F189912091BE033091BD
:1022F000BF03232B19F00E94A70DF3CF28E030E095
:1023000040E8E091CC03F091CD039091D403582F95
:10231000542319F05081952B03C05081909595233B
:102320009083E091CE03F091CF0350819091D5033B
:10233000952B9083E091CE03F091CF035081909143
:10234000D503909595239083469521503109C9F680
:10235000C8CF8091C0039091C103892BD1F0209107
:10236000DC033091DD034091DE035091DF0360E038
:1023700074E284EF90E00E948723DA01C90140975C
:10238000A109B109B695A795979587958093B8004F
:1023900017C0E091D203F091D30390818091D703CD
:1023A000892B80838091BE039091BF03892B41F0DC
:1023B000DF91CF911F910F91FF90EF900C94A60D9C
:1023C000DF91CF911F910F91FF90EF900895CF92E1
:1023D000DF92EF92FF920F931F93CF93DF936B01E6
:1023E000770FEE08FF08F7FE1BC0EC016DE20E94BC
:1023F000070C8C0144275527BA014C195D096E0959
:102400007F092AE0CE010E94230C800F911FDF91EB
:10241000CF911F910F91FF90EF90DF90CF90089593
:102420002AE0B701A601DF91CF911F910F91FF9094
:10243000EF90DF90CF900C94230C2091A903309162
:10244000AA03C901079697FD079623E095958795FE
:102450002A95E1F72091A7033091A803829FA0015C
:10246000839F500D929F500D112460E070E0809189
:10247000C2039091C3030C9418276F927F928F929E
:102480009F92AF92BF92CF92DF92EF92FF920F9303
:102490001F93CF93DF9300D0CDB7DEB78C016B01D4
:1024A000DC0116968C91169717969C911797898345
:1024B0009A83ED90FC901197E114F10409F48AC01D
:1024C00019964C9150E0F701848195818417950706
:1024D00010F480E0F9C0808191E09093E60280934F
:1024E000E5021092E4021092E30220E0BE016F5F69
:1024F0007F4FC7010E94AF18882359F3F7018481E9
:102500009581029730F38091C0028111FCCFD701F1
:102510002C9181E08093C0028093BF029FEF909343
:10252000BE021092BD028093BC028093BB029091C8
:10253000BB02822F880F892B8093BB028091BA0245
:10254000813061F41092BA028091BB028093BB008B
:102550008091BC0083FDF8CF85EC01C085EE8093AF
:10256000BC008091C0028130E1F38091BD028230D5
:1025700018F49091BD0201C092E0AAE9B2E0E3EC48
:10258000F2E080E0891721F02D9121938F5FFACF3F
:102590001092C2028093C102823009F09ACFF701F3
:1025A00081819281DC01ED91FC910284F385E02D23
:1025B0000995F8018387D70111968D919C91129707
:1025C000DC01ED91FC910284F385E02D0995F80181
:1025D00084875EC0D8011296ED90FC901397E114A9
:1025E000F10409F476CF14962D913C91159721159D
:1025F000310511F4806809C02230310511F48F775C
:1026000004C02130310511F4806C8983F8016184A4
:10261000712CD7018D919C911197892B41F01296C5
:10262000ED91FC911397808191810E94110E60E0E1
:10263000F70183850E94D218CE0101964C015C01FE
:10264000C5018819990986159705D8F06FEFC7015C
:102650000E945819D8011B968C936FEFC7010E94F6
:102660005819F801848761E0D7011B968C910E946C
:10267000D218F70180819181892B51F00E94A60D1B
:1026800007C0D5016D915D01C7010E945819D8CFCF
:1026900081E0F801928591110AC0248530E0322F43
:1026A0002227D60111963C932E9393850AC0F801F8
:1026B000238530E0322F2227D60111963C932E93AA
:1026C0009485292B2D933C930F900F90DF91CF9100
:1026D0001F910F91FF90EF90DF90CF90BF90AF9040
:1026E0009F908F907F906F9008958F929F92AF925E
:1026F000BF92CF92DF92EF92FF920F931F93CF93EF
:10270000DF9300D0CDB7DEB78C01DC011A968C9137
:102710001A97882319F01C964C9302C0F80143873E
:10272000452F562F672F7727882321F0D8011B9636
:102730004C9302C0F8014487D80116968C911697E5
:1027400017969C91179789839A83CD90DC90119767
:10275000C114D104B9F11996EC90F12C97012E5FB8
:102760003F4FF601848195818217930710F480E032
:1027700082C0808191E09093E6028093E5021092FE
:10278000E4021092E302E114F10451F4B801655F30
:102790007F4F21E042E050E0C6010E94AF186BC0BD
:1027A000F60181819281DC01ED91FC910280F3813F
:1027B000E02DA701BE016F5F7F4F0995E816F9066E
:1027C000B1F6E4CFF801E280F380E114F10479F28C
:1027D000248135812115310511F48F770AC022300B
:1027E000310511F4806805C02130310519F48F7767
:1027F00080648983D8011996AC90B12CF70180814F
:102800009181892B39F00280F381E02D80819181C3
:102810000E94110E60E0D7011B968C910E94D21885
:10282000FE0131964F016F01C601881999098A1579
:102830009B05C8F0D8011B966C91C7010E945819DE
:10284000F8016485C7010E94581961E0D7011B9601
:102850008C910E94D218F70180819181892B51F0CF
:102860000E94A60D07C0D6016D916D01C7010E949F
:102870005819DACF81E00F900F90DF91CF911F911F
:102880000F91FF90EF90DF90CF90BF90AF909F900F
:102890008F900895CF92DF92EF92FF92CF93DF93C4
:1028A000B0919703882311F0AB2F01C0A0E0809175
:1028B000980390E0880F991F8C5C9A4FC0909D03FD
:1028C000D0909E03E0909F03F090A00320E030E0C2
:1028D000FC01C591D491E881EB23A90160E070E08F
:1028E000EA130CC02F5F3F4F4C155D056E057F0549
:1028F00078F33FEF2FEF8FEF9FEF03C0322F252F9D
:10290000CB01632F722FDF91CF91FF90EF90DF907B
:10291000CF900895833081F028F4813099F082308F
:10292000A1F008958730A9F08830B9F08430D1F44F
:10293000809180008F7D03C0809180008F7780938D
:102940008000089584B58F7702C084B58F7D84BDE3
:1029500008958091B0008F7703C08091B0008F7D83
:102960008093B0000895CF93DF93282F30E0F901D2
:10297000E158FA4F8491F901E95AFA4FD491F901DB
:10298000ED5BFA4FC491CC2391F081110E948A141F
:10299000EC2FF0E0EE0FFF1FEC5CFA4FA591B49125
:1029A000EC91ED2381E090E021F480E002C080E032
:1029B00090E0DF91CF9108953F924F925F926F9296
:1029C0007F928F929F92AF92BF92CF92DF92EF92BF
:1029D000FF920F931F93CF93DF9300D000D000D0CE
:1029E000CDB7DEB72C013B014A015901C901079659
:1029F00097FD07969C0193E0359527959A95E1F709
:102A00003C832B83C12CD12CE12CF12C312CC30124
:102A10008E0D9F1D9A838983E016F106C4F51E82F0
:102A20001D822D813E812A153B054CF5C901877019
:102A30009927892B11F0330C0EC0ED81FE81F7FD33
:102A4000379683E0F595E7958A95E1F7EC0DFD1D46
:102A5000E80DF91D349037FE0CC021E030E04981CB
:102A60005A816D817E81640D751D83EA93E00E9419
:102A700026098D819E8101969E838D83D2CF9FEF03
:102A8000E91AF90A2B813C81C20ED31EC0CF2696CB
:102A90000FB6F894DEBF0FBECDBFDF91CF911F916F
:102AA0000F91FF90EF90DF90CF90BF90AF909F90ED
:102AB0008F907F906F905F904F903F9008952F92EE
:102AC0003F924F925F926F927F928F929F92AF92BE
:102AD000BF92CF92DF92EF92FF920F931F93CF930B
:102AE000DF93CDB7DEB76B970FB6F894DEBF0FBE9E
:102AF000CDBF9B8F8A8F1B014A01D22E1987088771
:102B00003701A982DC0159962D913C915A972115E4
:102B1000310509F0FFC018968D919C91199768179F
:102B200079070CF0E7C11A968D919C911B97481775
:102B300059070CF0DFC1EC2DF0E0FB83EA839B0129
:102B400046E0C49E200D311D11243D872C871216AE
:102B500013060CF0CFC16A2D70E07B876A8783E093
:102B6000660F771F8A95E1F77F876E87CB01880D07
:102B7000991D181619060CF0BDC158968C9181113B
:102B800004C08FEA8D1508F4D394AA8DBB8DED9106
:102B9000FC9111970284F385E02DCD010995B5E0F4
:102BA000DB9EC0011124EC2DF0E0F98BE88B910144
:102BB0002B5F3F4F3B8B2A8B3D822C822101AC0146
:102BC000421953095D8B4C8B7981672F70E07F8BA5
:102BD0006E8BC4010896998F888FEC89FD89E40D6E
:102BE000F51DED55FA4FD49054019F828E82D0FE90
:102BF00016C0AA8DBB8DED91FC91B1E0CB1209C03E
:102C00002981213031F40484F585E02D288539852A
:102C100019C00684F785E02DE884F9841DC0488535
:102C200059854615570519F1AA8DBB8DED91FC917B
:102C3000B1E0CB120DC02981213051F40484F58517
:102C4000E02D9301A501B2018A8D9B8D09950FC0DE
:102C50000684F785E02D73010A851B852A813B8157
:102C60004E815F816C817D818A8D9B8D0995D69483
:102C70003FEFA31AB30A4E815F816E897F89460FA9
:102C8000571F5F834E83888D998DA816B90609F06A
:102C9000AECF9FEF491A590AAC81BD81E889F98905
:102CA000AE0FBF1FBD83AC832A893B8942165306F2
:102CB00009F093CF488559854615570509F4F8C0A2
:102CC000AA8DBB8DED91FC91B1E0CB1211C0298191
:102CD000213071F4B1016B5F7F4F0088F189E02DE5
:102CE000830128E030E0A4018A8D9B8D0995E0C026
:102CF0006C857D854A815B81641B750B0684F78535
:102D0000E02D73010E851F859A01A4018A8D9B8D8C
:102D10000995CEC0F9013496E491DE1AF901329694
:102D200085919491B7E0DB9E800D911D1124F901EE
:102D3000259134913B8B2A8BFC01259134915901CB
:102D4000FC0132965490319634913C8732967490BF
:102D50003196149141E04C1518F05981523068F0C9
:102D6000672D072C000C770B7D836C83812F012E40
:102D7000000C990B9B838A8304C01B821A821D82DC
:102D80001C82AA8DBB8DED91FC9111970284F38575
:102D9000E02DCD010995412CD12C612CF981EF2F2B
:102DA000F0E0FF83EE832C2D30E03B872A87A401DF
:102DB000410F511D17FD5A955F8B4E8BB101670D69
:102DC000711D77FC7A95798F688F7C85671608F07E
:102DD0006FC0262D30E04A815B81420F531FAE81C8
:102DE000BF81A49FC001A59F900DB49F900D112499
:102DF000F401E80FF91FF98BE88B842D712C4E89B3
:102E00005F89420F531F5D8B4C8B751408F04DC0CA
:102E100051E0580F5E87877041F4C5010196EA8939
:102E2000FB89EA0DFB1DD4905C01D7FE3AC061E03E
:102E3000C61216C07981713099F4AA8DBB8DED91BF
:102E4000FC9111970484F585E02D288539854C89FE
:102E50005D89688D798D670D711DCD01099521C042
:102E60008C819D81870D911DEA85FB858E9FB00128
:102E70008F9F700D9E9F700D1124620D731DAA8D82
:102E8000BB8DED91FC9111970684F785E02DE884C8
:102E9000F9840E811F812A853B8548895989CD0196
:102EA0000995DD0C73948E85B0CF450C63948DCF5E
:102EB000AA8DBB8DED91FC9111970688F789E02DC5
:102EC000CD016B960FB6F894DEBF0FBECDBFDF917C
:102ED000CF911F910F91FF90EF90DF90CF90BF9017
:102EE000AF909F908F907F906F905F904F903F90AA
:102EF0002F9009946B960FB6F894DEBF0FBECDBF2E
:102F0000DF91CF911F910F91FF90EF90DF90CF90C5
:102F1000BF90AF909F908F907F906F905F904F90F9
:102F20003F902F9008950F931F93CF93DF9377FFD8
:102F300004C0260F371F60E070E0DC011496CD91CD
:102F4000DC911597FB01E20FF31FCE17DF071CF48E
:102F50009E01261B370B121613060CF046C0FA0111
:102F600057FD3796DF01E3E0B595A795EA95E1F7C0
:102F7000AC9FF001AD9FF00DBC9FF00D11246E0FC2
:102F80007F1FDC015F96ED91FC919097E60FF71F94
:102F90004770552781E090E001C0880F4A95EAF715
:102FA000482F0130110539F078F002301105E9F4AD
:102FB0002E0F3F1F13C02E0F3F1FE217F307A9F07C
:102FC0008081842B8193F9CF80952E0F3F1FE217CC
:102FD000F30759F0908198239193F9CFE217F30703
:102FE00021F0808184278193F9CFDF91CF911F91C8
:102FF0000F910895EF92FF920F931F93CF93DF935A
:10300000EC0177FDA5C0EC80FD806E157F050CF00E
:103010009FC057FF04C0240F351F40E050E08E8151
:103020009F81FA01E20FF31F8E179F071CF49C018A
:10303000241B350B121613060CF08AC0922F842F16
:103040008695869586958E9DD0018F9DB00D112415
:103050006A0F7B1FAF8DB8A1A60FB71F4770B1F1E4
:1030600088E0841B482F682F70E0FB01E556FA4F7B
:10307000E491281798F4621B71092FEF30E002C029
:10308000359527956A95E2F7E2230130110549F05D
:1030900078F00230110509F05BC00EC00130110557
:1030A00019F48C91E82B0AC00130110508F049C0D1
:1030B000E0958C91E82302C08C91E827EC9394175B
:1030C00008F446C02C813D81A20FB31FE92FE41BF9
:1030D000E830F8F00230110561F48E2F9C91909544
:1030E0009C932C813D81A20FB31F88508830B0F78C
:1030F0000FC081E00115110509F480E081959E2F34
:103100008C932C813D81A20FB31F98509830C0F74B
:10311000E770EE23E9F0F0E0ED56FA4FE49101306C
:10312000110539F048F00230110591F48C91E8272F
:1031300006C08C91E82B03C0E0958C91E823EC93BA
:1031400007C00230110509F4B7CFAE0DBF1DBECFC9
:10315000DF91CF911F910F91FF90EF900895FF9213
:103160000F931F93CF93DF93EC018A01F22E898195
:103170009A81DC01ED91FC910280F381E02D0995AB
:103180000817190739F46F2D89819A810E949C0FC5
:1031900091E0811190E0892FDF91CF911F910F91E4
:1031A000FF9008951F93CF93DF93282F30E0F9010C
:1031B000E158FA4F8491F901E95AFA4FD491F90193
:1031C000ED5BFA4FC491CC23C1F0162F81110E9400
:1031D0008A14EC2FF0E0EE0FFF1FEB58FA4FA59189
:1031E000B4919FB7F894111104C08C91D095D82355
:1031F00002C0EC91DE2BDC939FBFDF91CF911F913A
:1032000008951092C2021092C1021092E40210922C
:10321000E3021092C00281E08093BF021092BA02D2
:1032200061E082E10E94D21861E083E10E94D2183D
:10323000E9EBF0E080818E7F808380818D7F8083C9
:1032400088E48093B80085E48093BC0081E19AE033
:103250009093F5038093F40382E19AE09093F30353
:103260008093F2030895CF93DF93EC018B8181115A
:103270000AC00E94011981E08B83CE010E9433199C
:10328000982F882389F0888191E09093E6028093BB
:10329000E5021092E4021092E30289819A810E9471
:1032A000F70F91E0811190E0892FDF91CF91089580
:1032B000CF92DF92EF92FF920F931F93CF93DF9302
:1032C000EC0188819981892B09F091C088859985C5
:1032D000892BE9F420E030E000E070E0E7E0F0E086
:1032E000AB01022E02C0559547950A94E2F7417052
:1032F0005527CF01821B930B01C0440F8A95EAF733
:10330000042B2F5F3F4F2830310551F701C0062FA6
:1033100010E087E0E82EF12CCC24C394D12C110FBF
:103320008A85877FE1F48D858F3F49F0B6010E2CA9
:1033300001C0660F0A94EAF760230E94D21861E088
:103340008C850E94D2188E858F3F29F00E94B3147D
:10335000892B09F052C060E08C850E94D2188A85C2
:10336000877F8430D9F461E08C850E94D2188D85E6
:103370008F3F49F0B6010E2C01C0660F0A94EAF7A0
:1033800060230E94D21860E08C850E94D2188E853E
:103390008F3F21F00E94B314892B89F581E0E81A50
:1033A000F10808F0BCCF88859985892BF1F420E0DD
:1033B00030E080E0A12FB0E0E7E0F0E0AD01022EC8
:1033C00002C0559547950A94E2F741705527BF0111
:1033D000621B730B01C0440F6A95EAF7842B2F5FC1
:1033E0003F4F2830310551F70CC0812F0AC06EBD08
:1033F0000DB407FEFDCF8EB504C01160ACCF1160D7
:10340000CDCFDF91CF911F910F91FF90EF90DF9083
:10341000CF900895CF93DF9390E0FC01E95AFA4FE3
:103420002491FC01ED5BFA4F8491882361F190E0D7
:10343000880F991FFC01E559FA4FC591D491FC0101
:10344000EB58FA4FA591B491611109C09FB7F89458
:103450008881209582238883EC912E230BC06230D3
:1034600061F49FB7F8948881322F30958323888345
:10347000EC912E2B2C939FBF06C08FB7F894E88158
:103480002E2B28838FBFDF91CF9108958F929F922B
:10349000AF92BF92CF92DF92EF92FF926B017C01CD
:1034A0000E948E1B4B015C01C114D104E104F104A4
:1034B000F1F00E948E1BDC01CB0188199909AA0941
:1034C000BB09883E9340A105B10570F321E0C21A03
:1034D000D108E108F10888EE880E83E0981EA11C4F
:1034E000B11CC114D104E104F10419F7DDCFFF9040
:1034F000EF90DF90CF90BF90AF909F908F90089506
:10350000CF92DF92EF92FF920F931F93CF93DF93AF
:10351000CDB7DEB7C054D1400FB6F894DEBF0FBEB2
:10352000CDBF2FB7F8948091F6039091F703A09147
:10353000F803B091F9032FBF4091990350919A037A
:1035400060919B0370919C038C019D01041B150BE2
:10355000260B370BB901A801403D574061057105A5
:1035600018F48091A103CAC08093990390939A03A1
:10357000A0939B03B0939C03109294031092930327
:1035800010929203109291031092900362E0809146
:1035900095030E940A1A61E070E080E090E00E94CA
:1035A000461A61E0809195030E940A1A60E08091BA
:1035B00095030E94D218809196038551823028F499
:1035C0008BE291E10197F1F706C064E170E080E0E1
:1035D00090E00E94461A62E0809195030E940A1AC8
:1035E0008091A20390E08230910538F0880F991FF6
:1035F000880F991F05970197F1F7F89480E00E94D2
:103600004A146F3F7F4F8F4F9F4F21F41092A103B9
:10361000789441C081E00E944A146F3F7F4F8F4FE2
:103620009F4FA1F38E010F5F1F4F6E018FEBC81AE2
:103630008EEFD80A780180E00E944A14F701608377
:1036400071838283938381E00E944A14F70164832B
:10365000758386839783F8E0EF0EF11CEC14FD046C
:1036600051F7789420E030E0F801C080D180E2800A
:10367000F3804481558166817781FFEFCF16DF06A5
:10368000EF06FF0631F04F3F8FEF580768077807C6
:1036900021F41092A10380E031C0F90183E0F59597
:1036A000E7958A95E1F7E057FC4F8081880FC416B3
:1036B000D506E606F70608F4816080832F5F3F4F4A
:1036C000085F1F4F2832310579F62091940330E0CE
:1036D000409190038091910390E0840F911D40915F
:1036E0009203840F911D40919303840F911D99279C
:1036F0002817390771F681E08093A103C05CDE4F83
:103700000FB6F894DEBF0FBECDBFDF91CF911F91F2
:103710000F91FF90EF90DF90CF9008953FB7F8940E
:103720008091FB039091FC03A091FD03B091FE03F7
:1037300026B5A89B05C02F3F19F00196A11DB11D0C
:103740003FBFBA2FA92F982F8827820F911DA11D47
:10375000B11DBC01CD0142E0660F771F881F991F84
:103760004A95D1F708951F920F920FB60F92112428
:103770002F933F938F939F93AF93BF938091F603C3
:103780009091F703A091F803B091F9033091FA03F7
:1037900023E0230F2D3720F40196A11DB11D05C094
:1037A00026E8230F0296A11DB11D2093FA038093F2
:1037B000F6039093F703A093F803B093F903809175
:1037C000FB039091FC03A091FD03B091FE030196D1
:1037D000A11DB11D8093FB039093FC03A093FD03F7
:1037E000B093FE03BF91AF919F918F913F912F9125
:1037F0000F900FBE0F901F9018958EE491E090935C
:10380000A4038093A3038091C2039091C303009704
:1038100011F00C948A260895CF93DF93CDB7DEB7CD
:10382000AC970FB6F894DEBF0FBECDBF789484B5C9
:10383000826084BD84B5816084BD85B5826085BDAC
:1038400085B5816085BD80916E00816080936E003A
:10385000109281008091810082608093810080912C
:1038600081008160809381008091800081608093DD
:1038700080008091B10084608093B1008091B0009D
:1038800081608093B00080917A00846080937A0098
:1038900080917A00826080937A0080917A008160C2
:1038A00080937A0080917A00806880937A001092E9
:1038B000C100E091F702F091F80282E08083E0918C
:1038C000F302F091F4021082E091F502F091F60219
:1038D0008FEC80831092FF02E091FB02F091FC02DA
:1038E00086E08083E091F902F091FA0280818061A4
:1038F0008083E091F902F091FA02808188608083F0
:10390000E091F902F091FA02808180688083E09171
:10391000F902F091FA0280818F7D808387EE92E038
:103920000E94480D8091C2039091C303892B89F5B1
:103930002091A9033091AA03C901079697FD079624
:1039400023E0959587952A95E1F72091A70330917B
:10395000A803AC01429FC001439F900D529F900D60
:1039600011240E94F2259093C3038093C203892BF4
:1039700081F40AE115E0F8016491662309F4F9C1C4
:1039800087EE92E00E9411060F5F1F4F892B99F777
:10399000F0C10E941D122091A9033091AA038091C9
:1039A000A7039091A803213231050CF4F8C4B901A2
:1039B0006054710977FF02C06F5F7F4F75956795FF
:1039C0008255910997FD019600E410E022E530E070
:1039D0004AE552E0959587950E94DC1482E0809339
:1039E000C5038091C0039091C103892B09F4EBC4F6
:1039F0008CE38093C4030E9401198091CB0387FD5F
:103A00001EC061E00E940A1A61E08091CB030E940F
:103A1000D21861E070E080E090E00E94461A60E019
:103A20008091CB030E94D2186AE070E080E090E0C1
:103A30000E94461A61E08091CB030E94D2188091C7
:103A4000C0039091C103892B09F47CC52091D80350
:103A50003091D9034091DA035091DB0360E074E2C6
:103A600084EF90E00E948723DA01C9014097A10901
:103A7000B109B695A795979587958093B80064E0AE
:103A800086E790E00E94FA0F6091A903615083EAF3
:103A900093E00E94AE0D64E082E790E00E94FA0F8E
:103AA0008091C503813009F064C560E183EA93E049
:103AB0000E94AE0D64E08EE690E00E94FA0F8FE85F
:103AC0008093E0038091A7039091A803803891052B
:103AD00009F053C58091A9039091AA038034910500
:103AE00009F05DC58091C503813009F044C58FE9B7
:103AF0008093E00312E16AED83EA93E00E94AE0D49
:103B0000612F83EA93E00E94AE0D61E883EA93E0BF
:103B10000E94AE0D6091E00383EA93E00E94AE0D37
:103B200069ED83EA93E00E94AE0D8091C503813078
:103B300009F037C562E283EA93E00E94AE0D66E0C9
:103B400088E690E00E94FA0F8091C0039091C10333
:103B5000892B09F428C52091DC033091DD034091C5
:103B6000DE035091DF0360E074E284EF90E00E9496
:103B70008723DA01C9014097A109B109B695A79534
:103B8000979587958093B8000E941D1281E090E080
:103B90009093B6038093B5039093B4038093B303DB
:103BA00060E083EA93E00E9448071092BA0380E441
:103BB00090E09093B0038093AF0380E2C82ED12CA5
:103BC000D092B203C092B10311E01093B7031093E7
:103BD000B80368E272E083EA93E00E940E0C83EA85
:103BE00093E00E94480D0E94AF1062E0809195031F
:103BF0000E940A1A2FB7F8948091F6039091F70368
:103C0000A091F803B091F9032FBF805D9740A109FF
:103C1000B1098093990390939A03A0939B03B09367
:103C20009C0387E38093A20386E090E00E94F22544
:103C30007C018091E503D7018C9384E893E0129690
:103C40009C938E93119713961C9213971596DC9262
:103C5000CE921497F092E403E092E3030E940119DC
:103C6000F7011383C7010E943319882309F451C057
:103C700080E090E1A0E0B0E08093E6039093E7035A
:103C8000A093E803B093E9038AE090E0A0E0B0E0FD
:103C90008093EA039093EB03A093EC03B093ED03BE
:103CA00080E090E0A0E0B0E48093EE039093EF0317
:103CB000A093F003B093F1038091E3039091E403A8
:103CC000998B888B1B8A1A8A198F85E090E09F8BCD
:103CD0008E8B1A8F02E0088F40E050E160E070E0C8
:103CE000CE0140960E9475138091E3039091E40306
:103CF0009A8389831C821B821A8718861F821B87DE
:103D000009874FE959E360E070E0CE0101960E9417
:103D1000751365E871E087EE92E00E944C0D60E952
:103D200071E087EE92E00E944C0D65E971E087EE4C
:103D300092E00E944C0D66EA71E087EE92E00E94EC
:103D40004C0D6EEA71E087EE92E00E944C0D68EB3C
:103D500071E087EE92E00E944C0D64EC71E087EE1A
:103D600092E00E944C0D62ED71E087EE92E00E94BD
:103D70004C0D87EE92E00E94480D0E94801A882325
:103D8000D1F1809196038B30B0F18D30A8F0855140
:103D9000823088F5609190037091910376276727B0
:103DA000762780E090E00E94C9242DEC3CEC4CEC9E
:103DB0005DE30E9480251CC06091910370E080E06B
:103DC00090E00E94CB242DEC3CEC4CEC5DE30E9497
:103DD00080256B017C016091900370E080E090E0B1
:103DE0000E94CB249B01AC01C701B6010E94B02305
:103DF0004B015C0106C0812C912C80ECA82E8FE732
:103E0000B82E0E94801A882309F46DC08091960311
:103E10008C3009F446C018F48B30D1F064C0855161
:103E2000823008F060C010919203612F6F7770E0CC
:103E3000762F662780919303682B80E090E00E94A4
:103E4000C9242DEC3CEC4CEC5DE30E94802547C07E
:103E50006091920370E080E090E00E94C9246B01C1
:103E60007C011091930317FF0AC09B01AC0160E035
:103E700070E080E89FEB0E94AF236B017C01612F13
:103E80006F7070E080E090E00E94CB242DEC3CEC61
:103E90004CEC5DE30E948025A70196010E94B023AF
:103EA00026C010919203609193036F7070E080E0E0
:103EB00090E00E94CB242DEC3CEC4CEC5DE30E94A6
:103EC00080256B017C01612F70E080E090E00E9412
:103ED000C9249B01AC01C701B6010E94B02317FFA2
:103EE00006C0905804C060E070E080EC9FE70E943C
:103EF000932478A76FA326E031E03EA32DA3FF24EF
:103F0000F394A2E0EA2ECB01092E000CAA0BBB0B06
:103F100089A79AA7ABA7BCA7B0E42B2E312C809120
:103F20009802909199020196909399028093980239
:103F300091E490937C0080917A00806480937A0071
:103F400080917A0086FDFCCFC09078008091790046
:103F5000D12CD82A8091E3039091E4039A8389833A
:103F60001C821B82FA86A2E0B0E0B887AF83FB8692
:103F7000E986BE01605F7F4FCE0101960E943D122F
:103F800068897989E3E076956795EA95E1F7660FA8
:103F9000771F660F771F072E000C880B990B0E9466
:103FA000CB242FE632E143E85AE30E94802569A33F
:103FB0007AA38BA39CA361E08CE00E940A1A64EFB1
:103FC00071E080E090E00E94461A8091E3039091B6
:103FD000E403998B888B1B8A1A8AF98EE5E0F0E05E
:103FE000FF8BEE8BFA8EE88E4091E6035091E7034B
:103FF0006091E8037091E903CE0140960E94751329
:104000008091E3039091E4039A8389831C821B824D
:10401000FA8624E030E038872F83FB86E986BE01EC
:10402000615E7F4FCE0101960E943D126F8D78A197
:10403000072E000C880B990B0E94CB242B013C010E
:104040006091EA037091EB038091EC039091ED0392
:104050000E94C9249B01AC01C301B2010E9421242A
:104060002B013C0160E08CE00E940A1A64EF71E0D1
:1040700080E090E00E94461AADA1BEA10D911D9175
:10408000BEA3ADA3609198027091990287EE92E071
:104090000E94E71160ED71E087EE92E00E944C0D06
:1040A000B80187EE92E00E94E71160ED71E087EEC3
:1040B00092E00E944C0DB60187EE92E00E94E7115B
:1040C00060ED71E087EE92E00E944C0D69A57AA543
:1040D0008BA59CA50E94CB24AB01BC0122E087EEFE
:1040E00092E00E946C0C60ED71E087EE92E00E941D
:1040F0004C0D22E0B501A40187EE92E00E946C0C09
:1041000060ED71E087EE92E00E944C0D22E049A143
:104110005AA16BA17CA187EE92E00E946C0C60ED2D
:1041200071E087EE92E00E944C0D22E0B301A20103
:1041300087EE92E00E946C0C60ED71E087EE92E0F9
:104140000E944C0D29A13AA14BA15CA1C301B2016F
:104150000E948025AB01BC0122E087EE92E00E9424
:104160006C0C87EE92E00E94480D0E941D12109286
:10417000B0031092AF03E5E0F0E0F093B203E093F8
:10418000B1036CED71E083EA93E00E944C0DB8013D
:1041900083EA93E00E94E71183EA93E00E94480DCE
:1041A0003092B0032092AF0325E030E03093B203A9
:1041B0002093B10362EE71E083EA93E00E944C0D1C
:1041C000B60183EA93E00E94E7111092B0031092C7
:1041D000AF034FE050E05093B2034093B1036AEE57
:1041E00071E083EA93E00E944C0D22E049A15AA1BC
:1041F0006BA17CA183EA93E00E946C0C3092B00327
:104200002092AF038FE090E09093B2038093B103CC
:1042100060EF71E083EA93E00E944C0D22E0B3016D
:10422000A20183EA93E00E946C0C1092B0031092FA
:10423000AF03A9E1B0E0B093B203A093B10367EF7D
:1042400071E083EA93E00E944C0D6FA178A583EAA8
:1042500093E00E94E7116EEF71E083EA93E00E9421
:104260004C0D3092B0032092AF03E9E1F0E0F093FF
:10427000B203E093B10360E072E083EA93E00E944E
:104280004C0DC501B4010E94932483EA93E00E947F
:10429000E71168E072E083EA93E00E944C0D0E940F
:1042A000AF1026E231E04DA15EA12417350709F0D9
:1042B00036CE0BE310E092E3892E912C2AE0A22E59
:1042C000B12C32E0232E3324339449E1E42EF12C37
:1042D00050E4C52ED12C0E941D121092B0031092F2
:1042E000AF031092B2031092B1036AE072E083EA66
:1042F00093E00E944C0D9092B0038092AF03B09275
:10430000B203A092B1032092B7032092B803B80180
:1043100083EA93E00E94E71183EA93E00E94480D4C
:104320003092B7033092B8031092B0031092AF03EB
:10433000F092B203E092B10369E172E083EA93E0A4
:104340000E944C0D22E049A15AA16BA17CA183EAF5
:1043500093E00E946C0CD092B003C092AF03F09235
:10436000B203E092B10361E272E083EA93E00E945B
:104370004C0D22E0B301A20183EA93E00E946C0C91
:104380000E94AF1068EE73E080E090E00E94461A51
:104390000150110908F09FCF0E948006EECCB901B0
:1043A0006052710977FF02C06F5F7F4F7595679507
:1043B0008357910997FD019600E210E023E730E072
:1043C0004AE750E007CB61E08091C9030E940A1AD6
:1043D00061E08091CA030E940A1A8091C903082EE5
:1043E000000C990BFC01ED5BFA4FE491F0E0EE0F4D
:1043F000FF1FEB58FA4F259134913093D10320934E
:10440000D003FC01E95AFA4FE491E093D60380917E
:10441000CA03082E000C990BFC01ED5BFA4FE491E6
:10442000F0E0EE0FFF1FEB58FA4FA591B491B09357
:10443000D303A093D203FC01E95AFA4FE491E0932D
:10444000D7038C91E82BEC938091BE039091BF032E
:10445000892B09F434C01FB7F89480919702811119
:1044600027C0EDE4F5E08491E1E6F5E09491E82FD2
:10447000F0E0EE0FFF1FE559FA4FA591B491EC91D2
:10448000E92321F461E08AE00E94D21861E08AE029
:104490000E940A1A8CB580618CBD8CB580648CBD7D
:1044A00061E08DE00E940A1A61E08BE00E940A1A26
:1044B000809197028F5F809397021FBF9ECA61E031
:1044C0008091C7030E940A1A61E08091C8030E948C
:1044D0000A1A8091C703082E000C990BFC01ED5BB2
:1044E000FA4FE491F0E0EE0FFF1FEB58FA4F2591E1
:1044F00034913093CD032093CC03FC01E95AFA4F59
:10450000E491E093D4038091C803082E000C990B2A
:10451000FC01ED5BFA4FE491F0E0EE0FFF1FEB586A
:10452000FA4FA591B491B093CF03A093CE03FC01B1
:10453000E95AFA4FE491E093D5038C91E095E82392
:10454000EC935BCA8091BE039091BF03892B31F03D
:104550008091E1039091E2030E94110EE091D20359
:10456000F091D30390818091D70380958923808334
:1045700086CA64E19BCA8FECBBCA8036910579F488
:104580008091A9039091AA03409749F48091C503B3
:10459000813011F480E101C08FEA8093E00312E0E2
:1045A000AACA61EFC8CAE091D203F091D303908107
:1045B0008091D703892B80838091BE039091BF03A4
:1045C000892B09F4E1CA0E94A60DDECAE7EEF2E0EB
:1045D0001382128248EE53E060E070E0448355831A
:1045E000668377838AE291E09183808385EC90E013
:1045F0009587848784EC90E09787868780EC90E0AD
:10460000918B808B81EC90E0938B828B82EC90E09D
:10461000958B848B86EC90E0978B868B118E128E17
:10462000138E148EA4E8B3E013961C921E92129778
:1046300014964D935D936D937C9317978CE391E063
:1046400011969C938E93E3EEF3E01182108280E446
:104650008283178210861186128613861486158629
:104660001686E3EAF3E01382128220E830E0358315
:10467000248380E290E09783868331872087938725
:104680008287168A158614861786168681E0858BA2
:10469000848B2FEF3FEF338B228B318B208B878BDB
:1046A000108E128E118E8EE491E091838083148E91
:1046B000138EB68FA58F10A2178E8FEF84A385A3BC
:1046C00086A387A380A780E586AF17AEA0E9B3E0F5
:1046D00082E015968C93159786E116968C93169723
:1046E000E9E5F5E0E4911796EC931797E5E4F5E03A
:1046F000E4911896EC93189740E85EE360E070E070
:104700001D964D935D936D937C9350970895A1E210
:104710001A2EAA1BBB1BFD010DC0AA1FBB1FEE1F3B
:10472000FF1FA217B307E407F50720F0A21BB30B86
:10473000E40BF50B661F771F881F991F1A9469F702
:1047400060957095809590959B01AC01BD01CF015E
:104750000895EE0FFF1F0590F491E02D0994505835
:10476000BB27AA270E94C7230C9441250E9433250A
:1047700038F00E943A2520F039F49F3F19F426F4CE
:104780000C9430250EF4E095E7FB0C942A25E92FD4
:104790000E94522558F3BA176207730784079507DA
:1047A00020F079F4A6F50C9474250EF4E0950B2E08
:1047B000BA2FA02D0B01B90190010C01CA01A00173
:1047C0001124FF27591B99F0593F50F4503E68F1CE
:1047D0001A16F040A22F232F342F4427585FF3CF0F
:1047E000469537952795A795F0405395C9F77EF4E0
:1047F0001F16BA0B620B730B840BBAF09150A1F029
:10480000FF0FBB1F661F771F881FC2F70EC0BA0FAE
:10481000621F731F841F48F4879577956795B79536
:10482000F7959E3F08F0B0CF9395880F08F0992731
:10483000EE0F9795879508950E94062508F481E06C
:1048400008950E9435240C9441250E943A2558F081
:104850000E94332540F029F45F3F29F00C942A256B
:1048600051110C9475250C9430250E94522568F343
:104870009923B1F3552391F3951B550BBB27AA2719
:1048800062177307840738F09F5F5F4F220F331F53
:10489000441FAA1FA9F335D00E2E3AF0E0E832D01B
:1048A00091505040E695001CCAF72BD0FE2F29D01E
:1048B000660F771F881FBB1F261737074807AB07F0
:1048C000B0E809F0BB0B802DBF01FF2793585F4F65
:1048D0003AF09E3F510578F00C942A250C947525EA
:1048E0005F3FE4F3983ED4F3869577956795B79547
:1048F000F7959F5FC9F7880F911D9695879597F952
:104900000895E1E0660F771F881FBB1F62177307CA
:104910008407BA0720F0621B730B840BBA0BEE1FDF
:1049200088F7E09508950E949A246894B1110C9438
:10493000752508950E945A2588F09F5798F0B92F41
:104940009927B751B0F0E1F0660F771F881F991FC4
:104950001AF0BA95C9F714C0B13091F00E947425CD
:10496000B1E008950C947425672F782F8827B85FDD
:1049700039F0B93FCCF3869577956795B395D9F71C
:104980003EF490958095709561957F4F8F4F9F4F26
:104990000895E89409C097FB3EF490958095709532
:1049A00061957F4F8F4F9F4F9923A9F0F92F96E97B
:1049B000BB279395F695879577956795B795F111F0
:1049C000F8CFFAF4BB0F11F460FF1BC06F5F7F4F8D
:1049D0008F4F9F4F16C0882311F096E911C077239F
:1049E00021F09EE8872F762F05C0662371F096E8A8
:1049F000862F70E060E02AF09A95660F771F881F77
:104A0000DAF7880F9695879597F90895990F00081A
:104A1000550FAA0BE0E8FEEF16161706E807F90790
:104A2000C0F012161306E407F50798F0621B730B2B
:104A3000840B950B39F40A2661F0232B242B252BAC
:104A400021F408950A2609F4A140A6958FEF811D4F
:104A5000811D089597F99F6780E870E060E00895F0
:104A60009FEF80EC089500240A9416161706180686
:104A70000906089500240A94121613061406050662
:104A80000895092E0394000C11F4882352F0BB0FF3
:104A900040F4BF2B11F460FF04C06F5F7F4F8F4F56
:104AA0009F4F089557FD9058440F551F59F05F3F91
:104AB00071F04795880F97FB991F61F09F3F79F040
:104AC00087950895121613061406551FF2CF4695C2
:104AD000F1DF08C0161617061806991FF1CF869544
:104AE0007105610508940895E894BB276627772728
:104AF000CB0197F908950E94062508F48FEF0895D9
:104B00000E9493250C9441250E94332538F00E9481
:104B10003A2520F0952311F00C942A250C94302589
:104B200011240C9475250E94522570F3959FC1F3B2
:104B3000950F50E0551F629FF001729FBB27F00D4B
:104B4000B11D639FAA27F00DB11DAA1F649F6627A0
:104B5000B00DA11D661F829F2227B00DA11D621FEF
:104B6000739FB00DA11D621F839FA00D611D221FA9
:104B7000749F3327A00D611D231F849F600D211D8D
:104B8000822F762F6A2F11249F5750409AF0F1F010
:104B900088234AF0EE0FFF1FBB1F661F771F881F79
:104BA00091505040A9F79E3F510580F00C942A2562
:104BB0000C9475255F3FE4F3983ED4F38695779582
:104BC0006795B795F795E7959F5FC1F7FE2B880F1F
:104BD000911D9695879597F908950E940625880B53
:104BE000990B08950F931F93CF93DF938230910514
:104BF00010F482E090E0E0910104F091020420E0E2
:104C000030E0A0E0B0E0309719F14081518102819D
:104C1000138148175907C8F08417950769F410974E
:104C200031F012960C93129713961C9327C00093A1
:104C300001041093020422C02115310519F0421716
:104C4000530718F49A01BD01EF01DF01F801DBCF32
:104C500021153105F9F0281B390B2430310580F47A
:104C60008A819B816115710521F0FB019383828309
:104C700004C09093020480930104FE01329644C064
:104C8000FE01E20FF31F8193919322503109398382
:104C900028833AC02091FF0330910004232B41F474
:104CA0002091020130910301309300042093FF030F
:104CB00020910001309101012115310541F42DB7FA
:104CC0003EB74091040150910501241B350BE09142
:104CD000FF03F0910004E217F307A0F42E1B3F0B33
:104CE0002817390778F0AC014E5F5F4F241735075E
:104CF00048F04E0F5F1F509300044093FF038193D1
:104D0000919302C0E0E0F0E0CF01DF91CF911F91DD
:104D10000F910895CF93DF93009709F481C0FC01B0
:104D2000329713821282A0910104B091020410976D
:104D300081F420813181820F931F2091FF033091F4
:104D400000042817390751F5F0930004E093FF039E
:104D500067C0ED0120E030E0CE17DF0740F44A8164
:104D60005B819E0141155105F1F0EA01F5CFD38336
:104D7000C28340815181840F951FC817D90759F408
:104D800088819981840F951F0296918380838A81FF
:104D90009B81938382832115310529F4F0930204CA
:104DA000E09301043DC0E901FB83EA8349915991F5
:104DB000C40FD51FEC17FD0761F480819181840F2A
:104DC000951F0296E90199838883828193819B8351
:104DD0008A83E0E0F0E012968D919C911397009702
:104DE00019F0FD01DC01F7CF8D919C9111979D0188
:104DF0002E5F3F4F820F931F2091FF0330910004DD
:104E00002817390769F4309729F410920204109298
:104E1000010402C013821282B0930004A093FF0326
:104E2000DF91CF91089581E090E0F8940C941F27D2
:104E3000DC0101C06D9341505040E0F7089515E04A
:104E4000C3E5D5E004C0FE010E94A9232196C43524
:084E5000D107C9F7F894FFCF68
:104E580000000304200016001700180019001A00AB
:104E68001B001C001D001E001F0020002100220046
:104E78002300240025000000000011067E05A80577
:104E88005E06D905B705CB05000000006B0A3E0A8F
:104E98009B0AFD08360A220A130A000000002F0B9D
:104EA8007E059B0A9A0A8A06FD082609FE081A0941
:104EB8000E092D09FD084807140EA00AE40A460841
:104EC8002908BC075D076E616E00696E66006F7623
:104ED80066000D0A00497465726174696F6E2C0072
:104EE80050696E2C004C6967687420496E74656E51
:104EF800736974792C0054656D7020432C004875D3
:104F08006D69646974792C00566F6C7461676528E3
:104F180056292C00416D706572616765286D4129BD
:104F28002C00506F776572286D57290050696E3ACA
:104F380020004C696768743A20005627733A2000AD
:104F48006D4127733A200054656D703A2000630064
:104F580048756D69643A200025004E6578742053C1
:104F680063616E20696E3A2000566F6C74733A2044
:104F780000416D70733A20004C6F6164696E672E52
:044F88002E2E0000C9
:00000001FF
