:100000000C9454050C947C050C947C050C947C0594
:100010000C947C050C947C050C947C050C947C055C
:100020000C947C050C947C050C947C050C947C054C
:100030000C947C050C947C050C947C050C947C053C
:100040000C944C1E0C947C050C94AF0B0C94890BF7
:100050000C947C050C947C050C947C050C947C051C
:100060000C9428180C947C05DB40A4A62EAF20002D
:10007000A1C8D300408DAED580A80000600000006C
:100080000000000000000000000000E00000000090
:1000900000000000000000000001E000000000007F
:1000A000000000000000000001F00000000000005F
:1000B0000000000000000003F0000000000000004D
:1000C00000000000000007F0000000000000000039
:1000D000000000000007F800000000000000000021
:1000E000000000000FF800000003C0007E000001C7
:1000F000E0007F0FF800000003C000FE000001E0F8
:1001000000FFEFF800000003C000FE000001E00067
:10011000FFFFF800000003C000F00000000F007FA8
:10012000FE7FC0000003C000F00000000F003FFE93
:100130007FF83FF1FBCFFCFEF3BC3DEFE01FFE7FFD
:10014000FF7FFBFFDFFEFEFFBC3DEFE01FC6FFFFB2
:100150007FFBFFDFFEFEFFBC3DEFE00FE3C7FE7855
:100160007BC3DE1EF0FFBC3DEF0007FF87FC787B02
:10017000C3DE1EF0F83C3DEF0001FFFFF0007BC343
:10018000C01EF0F03C3DEF0001F37FE03FFBC3CF2A
:10019000FEF0F03C3DEF0003E33F807FFBC3DFFE5A
:1001A000F0F03C3DEF0007E73C00787BC3DE1EF03B
:1001B000F03C3DEF0007FFBE00787BC3DE1EF0F091
:1001C0003C3DEF0007FFFE00787BC3DE1EF0F03CF5
:1001D0003DEF000FFFFE007FFBFFDFFEF0F03FFD75
:1001E000EFE00FFFFF007FFBFFDFFEF0F03FFDEFD2
:1001F000E00FF9FF003E79F9CF9EF0F01F3DE7E0F8
:100200001FF1FF0000000000000000000000001FC0
:1002100080FF007FFFFFFFFFFFFFFFFFFFE01C00ED
:100220007F007FFFFFFFFEB46D888D18E000001F88
:10023000007FFFFFFFFE95AD7DB577E000000F006A
:100240007FFFFFFFFEA5AD9D8D19E0000006007F3A
:10025000FFFFFFFEB5ADEDB57EE000000000000140
:10026000800000000000000000000380000000008B
:10027000000000000007C0000000000000000000B7
:1002800007C00000000000000000000FC0000000D8
:100290000000000000001FE000000000000000005F
:1002A000001FE00000000000000000003FE0000030
:1002B000000000000000003FF0000000000000000F
:1002C00000007FF0000000000000001FF87FF00039
:1002D0000000000000003FFE7FF000000000000072
:1002E000003FFF7FF0000000000000001FFFFBE068
:1002F000000000000000000FFFF9FFC00000000038
:1003000000000FFFF9FFF800000000000007FFF1F8
:10031000FFFF00000000000003FC73FFFF800000EF
:1003200000000001FE3FFFFF80000000000000FF12
:100330001E0FFF000000000000007FFE1FFC0000F9
:1003400000000000003FFFFFF80000000000000078
:100350000FDFFFE0000000000000001F19FFC000D9
:100360000000000000003F3CFF0000000000000013
:10037000007E7CF800000000000000007FFE7C0092
:1003800000000000000000FFFFFC00000000000073
:100390000000FFFFFE0000000000000000FFFFFE65
:1003A0000000000000000001FFEFFE000000000060
:1003B000000001FFCFFE0000000000000003FF0767
:1003C000FE0000000000000003FC07FE000000002B
:1003D00000000003F003FE000000000000000180A8
:1003E00000FE000000000000000000007E00000091
:1003F000000000000000003E0000000000000000BF
:1004000000000C000000000000078000FC0000035A
:10041000C0000000078001FC000003C000000007CE
:100420008001FC000003C0000000078001E0000024
:10043000001E000000078001E00000001E007FE3B6
:10044000F79FF9FDE7787BDFC0FFF7FFBFFDFDFFFA
:10045000787BDFC0FFF7FFBFFDFDFF787BDFC0F0DB
:10046000F787BC3DE1FF787BDE00F0F787BC3DE11C
:10047000F0787BDE0000F787803DE1E0787BDE00EE
:100480007FF7879FFDE1E0787BDE00FFF787BFFD08
:10049000E1E0787BDE00F0F787BC3DE1E0787BDED1
:1004A00000F0F787BC3DE1E0787BDE00F0F787BC29
:1004B0003DE1E0787BDE00FFF7FFBFFDE1E07FFB81
:1004C000DFC0FFF7FFBFFDE1E07FFBDFC07CF3F3A0
:1004D0009F3DE1E03E7BCFC0000000000000000037
:1004E000000000FFFFFFFFFFFFFFFFFFFFC0FFFF58
:1004F000FFFFFD68DB111A31C0FFFFFFFFFD2B5A24
:10050000FB6AEFC0FFFFFFFFFD4B5B3B1A33C0FFF1
:10051000FFFFFFFD6B5BDB6AFDC05353443133309B
:100520003620616C6C6F636174696F6E20666169FF
:100530006C656400000103070F1F3F7F0080C0E06F
:10054000F0F8FCFE00000000003E5B4F5B3E3E6B9F
:100550004F6B3E1C3E7C3E1C183C7E3C181C577D5D
:10056000571C1C5E7F5E1C00183C1800FFE7C3E7A9
:10057000FF0018241800FFE7DBE7FF30483A060EBB
:100580002629792926407F050507407F05253F5A02
:100590003CE73C5A7F3E1C1C08081C1C3E7F142272
:1005A0007F22145F5F005F5F06097F017F0066891D
:1005B000956A606060606094A2FFA29408047E0463
:1005C0000810207E201008082A1C08081C2A080889
:1005D0001E101010100C1E0C1E0C30383E38300649
:1005E0000E3E0E06000000000000005F0000000745
:1005F000000700147F147F14242A7F2A1223130873
:10060000646236495620500008070300001C22414E
:10061000000041221C002A1C7F1C2A08083E0808F2
:1006200000807030000808080808000060600020A2
:10063000100804023E5149453E00427F4000724985
:100640004949462141494D331814127F1027454529
:1006500045393C4A4949314121110907364949493F
:1006600036464949291E00001400000040340000AD
:100670000008142241141414141400412214080216
:10068000015909063E415D594E7C1211127C7F4989
:100690004949363E414141227F4141413E7F4949DE
:1006A00049417F090909013E414151737F0808080A
:1006B0007F00417F41002040413F017F08142241DB
:1006C0007F404040407F021C027F7F0408107F3E35
:1006D0004141413E7F090909063E4151215E7F09A2
:1006E000192946264949493203017F01033F404009
:1006F000403F1F2040201F3F4038403F63140814F4
:100700006303047804036159494D43007F4141412B
:100710000204081020004141417F0402010204400C
:1007200040404040000307080020545478407F2890
:100730004444383844444428384444287F38545486
:10074000541800087E090218A4A49C787F080404A9
:100750007800447D40002040403D007F1028440048
:1007600000417F40007C047804787C0804047838D9
:1007700044444438FC1824241818242418FC7C0809
:10078000040408485454542404043F44243C404086
:10079000207C1C2040201C3C4030403C4428102839
:1007A000444C9090907C4464544C44000836410082
:1007B0000000770000004136080002010204023CFC
:1007C0002623263C1EA1A161123A4040207A3854CB
:1007D0005455592155557941225454784221555444
:1007E000784020545579400C1E5272123955555597
:1007F00059395454545939555454580000457C4182
:100800000002457D420001457C407D1211127DF0C1
:10081000282528F07C545545002054547C547C0AEB
:10082000097F4932494949323A4444443A324A48B4
:1008300048303A4141217A3A42402078009DA0A0B8
:100840007D3D4242423D3D4040403D3C24FF24240A
:10085000487E4943662B2FFC2F2BFF0929F620C029
:10086000887E090320545479410000447D4130487A
:10087000484A32384040227A007A0A0A727D0D19BD
:10088000317D2629292F28262929292630484D401F
:1008900020380808080808080808382F10C8ACBA1B
:1008A0002F102834FA00007B000008142A1422229A
:1008B000142A14085500550055AA55AA55AAFF55E3
:1008C000FF55FF000000FF00101010FF001414146B
:1008D000FF001010FF00FF1010F010F0141414FCB3
:1008E000001414F700FF0000FF00FF1414F404FCD0
:1008F000141417101F10101F101F1414141F0010B1
:100900001010F0000000001F101010101F10101029
:1009100010F010000000FF10101010101010101038
:10092000FF10000000FF140000FF00FF00001F1078
:10093000170000FC04F414141710171414F404F432
:100940000000FF00F714141414141414F700F71423
:100950001414171410101F101F141414F414101072
:10096000F010F000001F101F0000001F1400000016
:10097000FC140000F010F01010FF10FF141414FF0E
:10098000141010101F00000000F010FFFFFFFFFF09
:10099000F0F0F0F0F0FFFFFF0000000000FFFF0F9D
:1009A0000F0F0F0F3844443844FC4A4A4A347E0241
:1009B000020606027E027E026355494163384444C2
:1009C0003C04407E201E2006027E020299A5E7A577
:1009D000991C2A492A1C4C7201724C304A4D4D30E8
:1009E0003048784830BC625A463D3E494949007E0D
:1009F0000101017E2A2A2A2A2A44445F44444051A4
:100A00004A444040444A51400000FF0103E080FF57
:100A1000000008086B6B083612362436060F090FE3
:100A200006000018180000001010003040FF0101FF
:100A3000001F01011E00191D1712003C3C3C3C0028
:100A40000000000000000000230026002900220012
:100A5000FF2100040404040404040402020202024C
:100A60000203030303030301020408102040800172
:100A700002040810200102040810200000000024D5
:100A80000027002A0000000000250028002B00009D
:100A9000000008000201000003040700000000003D
:100AA000000000008724782411241FBECFEFD8E077
:100AB000DEBFCDBF12E0A0E0B1E0E0E1F2E502C0B0
:100AC00005900D92A235B107D9F724E0A2E5B2E076
:100AD00001C01D92A233B207E1F715E0C3E5D5E0EE
:100AE00004C02197FE010E947625C235D107C9F7BF
:100AF0000E94961E0C94FB280C9400000E94E02893
:100B0000CF92DF92EF92FF920F931F93CF93DF93D9
:100B10006C017A018B01C0E0D0E0CE15DF0581F0D9
:100B2000D8016D918D01D601ED91FC910190F0817C
:100B3000E02DC6010995892B11F02196EECF7E019B
:100B4000C701DF91CF911F910F91FF90EF90DF9040
:100B5000CF900895FC01538D448D252F30E0842FD4
:100B600090E0821B930B541710F0CF9608950197D5
:100B70000895FC01918D828D981761F0828DDF01BF
:100B8000A80FB11D5D968C91928D9F5F9F73928F80
:100B900090E008958FEF9FEF0895FC01918D828D75
:100BA000981731F0828DE80FF11D858D90E0089542
:100BB0008FEF9FEF0895FC01918D228D892F90E09A
:100BC000805C9F4F821B91098F73992708958BE05A
:100BD00093E00E94DB0521E0892B09F420E0822FBD
:100BE0000895FC01848DDF01A80FB11DA35ABF4FEA
:100BF0002C91848D90E001968F739927848FA6891C
:100C0000B7892C93A089B1898C91837080648C936F
:100C1000938D848D981306C00288F389E02D80811E
:100C20008F7D80830895EF92FF920F931F93CF9350
:100C3000DF93EC0181E0888F9B8D8C8D981305C02C
:100C4000E889F989808185FD26C0F62E0B8D10E09C
:100C50000F5F1F4F0F731127E02E8C8DE8120CC011
:100C60000FB607FCFACFE889F989808185FFF5CFB7
:100C7000CE010E94F105F1CF8B8DFE01E80FF11D31
:100C8000E35AFF4FF0829FB7F8940B8FEA89FB89F4
:100C9000808180620AC09FB7F894EE89FF896083E3
:100CA000E889F98980818370806480839FBF81E0B7
:100CB00090E0DF91CF911F910F91FF90EF900895F9
:100CC000CF93DF93EC01888D8823C9F0EA89FB89F3
:100CD000808185FD05C0A889B9898C9186FD0FC0EA
:100CE0000FB607FCF5CF808185FFF2CFA889B989BF
:100CF0008C9185FFEDCFCE010E94F105E7CFDF910A
:100D0000CF91089580E090E0892B29F00E94E705BB
:100D100081110C9400000895FC0177FDB9C0808515
:100D20009185681779070CF0B3C057FDB1C0828573
:100D30009385481759070CF008958689823079F415
:100D400084819581DC01A61BB70BBD01615071093F
:100D500086819781DC01A41BB50BAD010EC08330E9
:100D600009F084C064277527CA018627972768275A
:100D7000792746815781481B590B41505109213031
:100D8000310531F048F12230310509F44AC00895A7
:100D9000CA0157FD07969C01A3E035952795AA95B2
:100DA000E1F7A481B5812A9FC0012B9F900D3A9F46
:100DB000900D1124680F791F078CF0A1E02DE60F2C
:100DC000F71F4770552781E090E001C0880F4A95D2
:100DD000EAF79081892B48C0CA0157FD07969C010C
:100DE00093E0359527959A95E1F7A481B5812A9FDF
:100DF000C0012B9F900D3A9F900D1124680F791F11
:100E0000078CF0A1E02DE60FF71F4770552781E012
:100E100090E001C0880F4A95EAF780959081892378
:100E200023C0CA0157FD07969C0183E0359527959D
:100E30008A95E1F7A481B5812A9FC0012B9F900D6F
:100E40003A9F900D1124680F791F078CF0A1E02DB7
:100E5000E60FF71F4770552781E090E001C0880F2B
:100E60004A95EAF79081892780830895813009F0B7
:100E700086CF6427752746275727642775278481DF
:100E80009581DC01A61BB70BBD016150710977CFBD
:100E900008950895FC016370668B84819581268195
:100EA0003781613039F0633029F09187808733874B
:100EB00022870895318720879387828708950F932B
:100EC0001F93CF93DF938C01EB0188E2DB011D922E
:100ED0008A95E9F7F801838194810E94C61381E025
:100EE00090E0A0E0B0E08C879D87AE87BF87F801D7
:100EF00085819681A781B085888B998BAA8BBB8BC6
:100F00008CE090E0A0E0B0E08C8B9D8BAE8BBF8B33
:100F1000BE01838194810E94F313D8011396ED9151
:100F2000FC91149783898C3069F038F48B30A1F5EB
:100F300080E090E0A0EAB2E409C08531C1F08631DA
:100F4000B1F02AC080E090E0AEEBB2E4888F998FD8
:100F5000AA8FBB8F80E090E0A0EAB1E48C8F9D8FD8
:100F6000AE8FBF8F80E090E0A0EAB0E410C080E0D8
:100F700090E0A8ECB2E4888F998FAA8FBB8F1C8E6B
:100F80001D8E1E8E1F8E8DEC9CECACECBDE388A3F9
:100F900099A3AAA3BBA30CC0188E198E1A8E1B8E00
:100FA0001C8E1D8E1E8E1F8E18A219A21AA21BA2A5
:100FB000DF91CF911F910F9108950F931F93CF93BE
:100FC000DF938C01EB0188E2DB011D928A95E9F742
:100FD000F801838194810E94C61381E090E0A0E033
:100FE000B0E08C879D87AE87BF87F80185819681A9
:100FF000A781B085888B998BAA8BBB8B8DE090E005
:10100000A0E0B0E08C8B9D8BAE8BBF8BBE0183814B
:1010100094810E94F313D8011396ED91FC911497DB
:1010200083898C30F1F0A0F48B3009F048C080E067
:1010300090E0A8E4B2E4888F998FAA8FBB8F1C8EB2
:101040001D8E1E8E1F8E80E090E0A0E0B0E432C0C6
:101050008531E1F0863199F580E090E0AAEFB2E4C5
:1010600019C080E090E0A0E7B2E4888F998FAA8F42
:10107000BB8F80E090E0A0EAB1EC8C8F9D8FAE8FAB
:10108000BF8F80E090E0A0E0BFE314C080E090E07C
:10109000A0EAB2E4888F998FAA8FBB8F80E090E09E
:1010A000A0E2B2EC8C8F9D8FAE8FBF8F8DEC9CEC4D
:1010B000ACECBDE388A399A3AAA3BBA30CC0188E74
:1010C000198E1A8E1B8E1C8E1D8E1E8E1F8E18A2C0
:1010D00019A21AA21BA2DF91CF911F910F9108951F
:1010E000CF92DF92EF92FF920F931F93CF93DF93F4
:1010F000EB0124E2FB0111922A95E9F744E250E06A
:1011000060E070E0488359836A837B83FC014581FA
:101110005681678170854C835D836E837F834CE04D
:1011200050E060E070E0488759876A877B872FB777
:10113000F8944091A0025091A1026091A202709196
:10114000A3022FBF488B598B6A8B7B8B0381148141
:10115000C8010E94A90C8823B9F1F80186818B305F
:1011600098F18D30A0F08551823070F5F8016081E2
:10117000718176276727762780E090E00E94962687
:101180002DEC3CEC4CEC5DE30E944D2721C0F801B6
:10119000618170E080E090E00E9498262DEC3CECAC
:1011A0004CEC5DE30E944D276B017C01F8016081EE
:1011B00070E080E090E00E9498269B01AC01C7019E
:1011C000B6010E947D2504C060E070E080EC9FE7DE
:1011D0006C8B7D8B8E8B9F8B81E0DF91CF911F91EC
:1011E0000F91FF90EF90DF90CF9008958F929F9294
:1011F000AF92BF92EF92FF921F93CF93DF93EB01D9
:1012000024E2FB0111922A95E9F744E250E060E004
:1012100070E0488359836A837B83FC014581568152
:10122000678170854C835D836E837F834DE050E0E2
:1012300060E070E0488759876A877B872FB7F8940A
:101240004091A0025091A1026091A2027091A3026C
:101250002FBF488B598B6A8B7B8BE380F480C7014F
:101260000E94A90C882309F46BC0F70186818C3099
:1012700009F445C018F48B30C9F062C08551823042
:1012800008F05EC0F7011281612F6F7770E0762F52
:1012900066278381682B80E090E00E9496262DECE3
:1012A0003CEC4CEC5DE30E944D2746C0F7016281A7
:1012B00070E080E090E00E9496264B015C01F7010F
:1012C000138117FF0AC09B01AC0160E070E080E869
:1012D0009FEB0E947C254B015C01612F6F7070E0D9
:1012E00080E090E00E9498262DEC3CEC4CEC5DE315
:1012F0000E944D27A50194010E947D2525C0F7017C
:10130000128163816F7070E080E090E00E94982607
:101310002DEC3CEC4CEC5DE30E944D274B015C0155
:10132000612F70E080E090E00E9496269B01AC0166
:10133000C501B4010E947D2517FF06C0905804C066
:1013400060E070E080EC9FE76C8B7D8B8E8B9F8BD9
:1013500081E0DF91CF911F91FF90EF90BF90AF9010
:101360009F908F9008950F931F93CF93DF93DC018D
:101370005696EC915697E23071F0E330E9F0E130A7
:1013800079F5FB0114960D90BC91A02DA41BB50B13
:10139000A21BB30B18C0EC01EC81FD81E61BF70B1F
:1013A000BF0161507109EE81FF81DF01A41BB50B04
:1013B000AD01421B530B14C0DA01EC01EE81FF8139
:1013C000E61BF70B3197F7FD0DC0EC014E815F81F5
:1013D000E417F5073CF4AF01BD010E94AA1202C058
:1013E0000E941113DF91CF911F910F9108950F93D8
:1013F0001F93DC015696EC915697E23061F0E33092
:1014000009F1E13081F51496ED91FC911597E41BFB
:10141000F50B319723C0DC011496ED91FC911597E3
:10142000DF01A61BB70BBD01DC011696ED91FC9107
:101430001797DF01A41BB50BAD0141505109621B89
:10144000730B11C0FA01DC0116964D915C91179750
:10145000DA01A61BB70BBD01621B730BAB01BF0109
:101460000E9411130CC057FD0AC0DC011696ED91C5
:10147000FC9117974E175F0714F40E94AA121F9150
:101480000F910895DC01ED91FC910190F081E02D28
:1014900009946115710579F0FB0101900020E9F7CD
:1014A0003197AF01461B570BDC01ED91FC91028097
:1014B000F381E02D099480E090E008958F929F924F
:1014C000AF92BF92EF92FF920F931F93CF93DF9350
:1014D000CDB7DEB7A1970FB6F894DEBF0FBECDBF74
:1014E0007C01FA01CB0119A2223008F42AE08E0116
:1014F0000F5D1F4F822E912CA12CB12CBF01A50195
:1015000094010E945425F901CA01015011096A3061
:1015100014F4605D01C0695CD8016C93232B242B0B
:10152000252B61F7B801C7010E94490AA1960FB6A1
:10153000F894DEBF0FBECDBFDF91CF911F910F9109
:10154000FF90EF90BF90AF909F908F9008957F9203
:101550008F929F92AF92BF92CF92DF92EF92FF92C3
:101560000F931F93CF93DF938C016A017B01722E3F
:101570009A01AB01C701B6010E94BA27882319F06E
:1015800066E272E027C046015701E894B7F82FEFF2
:101590003FEF4FE75FE7C501B4010E94BA27811111
:1015A0000DC02FEF3FEF4FE75FE7C501B4010E9489
:1015B000E92518161CF46AE272E00CC02FEF3FEF29
:1015C0004FE75FE4C701B6010E944827181694F45C
:1015D0006EE272E0C801DF91CF911F910F91FF90F1
:1015E000EF90DF90CF90BF90AF909F908F907F90C3
:1015F0000C94490A2FEF3FEF4FE75FECC701B601AC
:101600000E94E92587FDE4CF20E030E0A901C70171
:10161000B6010E94E92587FF0AC06DE2C8010E9459
:10162000420AEC01F7FAF094F7F8F09402C0C0E037
:10163000D0E0B12C60E070E080E09FE37B1441F0EB
:1016400020E030E040E251E40E94EE25B394F6CF72
:10165000A70196010E947D256B017C010E946726EF
:101660004B015C012AE0AB01BC01C8010E945E0A8B
:10167000C80FD91F7720C1F1C501B4010E94962679
:101680009B01AC01C701B6010E947C256B017C0166
:101690006EE2C8010E94420AC80FD91F20E030E064
:1016A00040E251E4C701B6010E944D274B015C01A5
:1016B0000E9467266B01E12CF12C2AE0B701A601FC
:1016C000C8010E945E0AC80FD91FC701B6010E9457
:1016D00096269B01AC01C501B4010E947C256B01DB
:1016E0007C017A947110DACFCE01DF91CF911F91F6
:1016F0000F91FF90EF90DF90CF90BF90AF909F90B1
:101700008F907F90089562E372E00C94490A0C94E4
:10171000490A1F920F920FB60F9211242F933F93F5
:101720004F935F936F937F938F939F93AF93BF93E9
:10173000EF93FF938BE093E00E94F105FF91EF910F
:10174000BF91AF919F918F917F916F915F914F91D9
:101750003F912F910F900FBE0F901F9018951F92E1
:101760000F920FB60F9211242F938F939F93EF93A5
:10177000FF93E0911B03F0911C038081E091210312
:10178000F091220382FD12C09081809124038F5F2B
:101790008F7320912503821751F0E0912403F0E02C
:1017A000E55FFC4F958F8093240301C08081FF91FA
:1017B000EF919F918F912F910F900FBE0F901F90DF
:1017C000189508958EBD00000DB407FEFDCF8EB5AF
:1017D00008951F93CF93DF93FC01858D968D00971D
:1017E00029F1162FEF0121A131E030930A03209354
:1017F00009031092080310920703DC01ED91FC919C
:101800000190F081E02D60E009958D8D9E8DDC01C9
:10181000ED91FC910190F081E02D612F09958D8D66
:101820009E8DDF91CF911F910C94B319A5A5B6A5FC
:101830009C9183A9809589238C93838D948D892B8A
:1018400031F0862FDF91CF911F910C94E20B28E0AD
:1018500030E080E8A1A5B2A591A9462F482319F050
:101860004C91942B03C04C91909594239C93A3A5E9
:10187000B4A54C9192A9942B9C93A3A5B4A54C918B
:1018800092A9909594239C9386952150310911F744
:10189000DF91CF911F9108958CBD9DBD08951F9339
:1018A000CF93DF93EC01162F8D8D9E8D892BB1F098
:1018B0002DA93EA94FA958AD60E074E284EF90E0F5
:1018C0000E945425DA01C9014097A109B109B695D2
:1018D000A795979587958093B8000FC08B8D9C8DA9
:1018E000892B21F08EAD9FAD0E944C0CEFA5F8A97D
:1018F00090818CA9809589238083111102C066EAAA
:1019000001C067EACE010E94E90B8D8D9E8D892B67
:10191000B1F029AD3AAD4BAD5CAD60E074E284EF5F
:1019200090E00E945425DA01C9014097A109B1094C
:10193000B695A795979587958093B80006C0EFA5B3
:10194000F8A990818CA9892B8083DF91CF911F9179
:1019500008958F929F92AF92BF92CF92DF92EF92B3
:10196000FF920F931F93CF93DF93CDB7DEB7C05491
:10197000D1400FB6F894DEBF0FBECDBF2FB7F8949D
:101980004091A0025091A1026091A2027091A30225
:101990002FBFFC0101851285238534856A017B01F7
:1019A000C01AD10AE20AF30AE0EDCE16E7E0DE063D
:1019B000E104F10418F4FC018189C2C08C01FC012E
:1019C000418752876387748714821382128211823F
:1019D000108262E085810E94D61D61E070E080E0A7
:1019E00090E00E94121E61E0F80185810E94D61DE0
:1019F00060E0F80185810E94F51CF801868185511F
:101A0000823028F48BE291E10197F1F706C064E19E
:101A100070E080E090E00E94121E62E0F801858193
:101A20000E94D61DF801828990E08230910538F03D
:101A3000880F991F880F991F05970197F1F7F89460
:101A400060E0C8010E94F91B6F3F7F4F8F4F9F4F8F
:101A500021F4F801118A789444C061E0C8010E9421
:101A6000F91B6F3F7F4F8F4F9F4F99F3CE01019628
:101A70007C015E019FEBA91A9EEFB90A670160E045
:101A8000C8010E94F91BF6016083718382839383EE
:101A900061E0C8010E94F91BF601648375838683A7
:101AA0009783F8E0CF0ED11CCA14DB0441F7789479
:101AB00020E030E0F70180809180A280B3804481F3
:101AC000558166817781FFEF8F169F06AF06BF06AF
:101AD00031F04F3F8FEF58076807780721F4F8017E
:101AE000118A80E02DC0F90183E0F595E7958A958C
:101AF000E1F7E00FF11F8081880F84169506A60696
:101B0000B70608F4816080832F5F3F4FF8E0EF0E47
:101B1000F11C2832310571F6F801248130E0408152
:101B2000818190E0840F911D4281840F911D43813A
:101B3000840F911D99272817390789F681E0818B39
:101B4000C05CDE4F0FB6F894DEBF0FBECDBFDF9195
:101B5000CF911F910F91FF90EF90DF90CF90BF90AA
:101B6000AF909F908F9008956F927F928F929F92E7
:101B7000AF92BF92CF92DF92EF92FF920F931F939B
:101B8000CF93DF9300D0CDB7DEB78C016B01DC01C2
:101B900016968C91169717969C91179789839A831E
:101BA000ED90FC901197E114F10409F48AC01996A4
:101BB0004C9150E0F701848195818417950710F4CA
:101BC00080E0F9C0808191E090930A03809309033B
:101BD000109208031092070320E0BE016F5F7F4F51
:101BE000C7010E94AD1C882359F3F70184819581B8
:101BF000029730F380917D028111FCCFD7012C91A7
:101C000081E080937D0280937C029FEF90937B0222
:101C100010927A02809379028093780290917802F0
:101C2000822F880F892B80937802809177028130F0
:101C300061F410927702809178028093BB008091CA
:101C4000BC0083FDF8CF85EC01C085EE8093BC001D
:101C500080917D028130E1F380917A02823018F424
:101C600090917A0201C092E0A7E5B2E0E0E8F2E0EC
:101C700080E0891721F02D9121938F5FFACF109288
:101C80007F0280937E02823009F09ACFF701818132
:101C90009281DC01ED91FC910284F385E02D0995A0
:101CA000F8018387D70111968D919C911297DC01E1
:101CB000ED91FC910284F385E02D0995F80184876C
:101CC0005EC0D8011296ED90FC901397E114F104D8
:101CD00009F476CF14962D913C9115972115310575
:101CE00011F4806809C02230310511F48F7704C0E7
:101CF0002130310511F4806C8983F8016184712CE5
:101D0000D7018D919C911197892B41F01296ED91FD
:101D1000FC911397808191810E944C0C60E0F70147
:101D200083850E94F51CCE0101964C015C01C50122
:101D30008819990986159705D8F06FEFC7010E9499
:101D4000241DD8011B968C936FEFC7010E94241DA0
:101D5000F801848761E0D7011B968C910E94F51CE5
:101D6000F70180819181892B51F00E94E10B07C01E
:101D7000D5016D915D01C7010E94241DD8CF81E07E
:101D8000F801928591110AC0248530E0322F222774
:101D9000D60111963C932E9393850AC0F8012385B2
:101DA00030E0322F2227D60111963C932E93948552
:101DB000292B2D933C930F900F90DF91CF911F9182
:101DC0000F91FF90EF90DF90CF90BF90AF909F90DA
:101DD0008F907F906F9008958F929F92AF92BF9255
:101DE000CF92DF92EF92FF920F931F93CF93DF93E7
:101DF00000D0CDB7DEB78C01DC011A968C911A9712
:101E0000882319F01C964C9302C0F8014387452F94
:101E1000562F672F7727882321F0D8011B964C93E4
:101E200002C0F8014487D80116968C911697179630
:101E30009C91179789839A83CD90DC901197C11458
:101E4000D104B9F11996EC90F12C97012E5F3F4F18
:101E5000F601848195818217930710F480E082C097
:101E6000808191E090930A03809309031092080304
:101E700010920703E114F10451F4B801655F7F4F3C
:101E800021E042E050E0C6010E94AD1C6BC0F601AB
:101E900081819281DC01ED91FC910280F381E02D42
:101EA000A701BE016F5F7F4F0995E816F906B1F6ED
:101EB000E4CFF801E280F380E114F10479F22481A7
:101EC00035812115310511F48F770AC02230310593
:101ED00011F4806805C02130310519F48F778064D2
:101EE0008983D8011996AC90B12CF701808191813A
:101EF000892B39F00280F381E02D808191810E944D
:101F00004C0C60E0D7011B968C910E94F51CFE01E1
:101F100031964F016F01C601881999098A159B05F1
:101F2000C8F0D8011B966C91C7010E94241DF801CE
:101F30006485C7010E94241D61E0D7011B968C9126
:101F40000E94F51CF70180819181892B51F00E943C
:101F5000E10B07C0D6016D916D01C7010E94241DE0
:101F6000DACF81E00F900F90DF91CF911F910F9109
:101F7000FF90EF90DF90CF90BF90AF909F908F90A9
:101F800008953F924F925F926F927F928F929F92AD
:101F9000AF92BF92CF92DF92EF92FF920F931F9377
:101FA000CF93DF9300D000D000D0CDB7DEB72C01A7
:101FB0003B014A015901C901079697FD07969C010B
:101FC00093E0359527959A95E1F73C832B83C12CB7
:101FD000D12CE12CF12C312CC3018E0D9F1D9A8345
:101FE0008983E016F106C4F51E821D822D813E8193
:101FF0002A153B054CF5C90187709927892B11F0EB
:10200000330C0EC0ED81FE81F7FD379683E0F59528
:10201000E7958A95E1F7EC0DFD1DE80DF91D34906B
:1020200037FE0CC021E030E049815A816D817E810C
:10203000640D751D8AED93E00E94D3158D819E81FC
:1020400001969E838D83D2CF9FEFE91AF90A2B81E7
:102050003C81C20ED31EC0CF26960FB6F894DEBFC9
:102060000FBECDBFDF91CF911F910F91FF90EF90E9
:10207000DF90CF90BF90AF909F908F907F906F90A8
:102080005F904F903F90089510927F0210927E02D1
:10209000109208031092070310927D0281E0809352
:1020A0007C021092770261E082E10E94F51C61E0FF
:1020B00083E10E94F51CE9EBF0E080818E7F808354
:1020C00080818D7F808388E48093B80085E480934D
:1020D000BC008EEB96E190935602809355028FEBF5
:1020E00096E1909354028093530208952F923F9269
:1020F0004F925F926F927F928F929F92AF92BF9218
:10210000CF92DF92EF92FF920F931F93CF93DF93C3
:10211000CDB7DEB76B970FB6F894DEBF0FBECDBF5D
:102120009B8F8A8F1B014A01D22E1987088737019E
:10213000A982DC0159962D913C915A9721153105C0
:1021400009F0FFC018968D919C911997681779072F
:102150000CF0E7C11A968D919C911B97481759076F
:102160000CF0DFC1EC2DF0E0FB83EA839B0146E03D
:10217000C49E200D311D11243D872C871216130695
:102180000CF0CFC16A2D70E07B876A8783E0660F11
:10219000771F8A95E1F77F876E87CB01880D991DA0
:1021A000181619060CF0BDC158968C91811104C007
:1021B0008FEA8D1508F4D394AA8DBB8DED91FC9117
:1021C00011970284F385E02DCD010995B5E0DB9EE2
:1021D000C0011124EC2DF0E0F98BE88B91012B5F0D
:1021E0003F4F3B8B2A8B3D822C822101AC0142194F
:1021F00053095D8B4C8B7981672F70E07F8B6E8BE1
:10220000C4010896998F888FEC89FD89E40DF51D2E
:10221000EC5BFA4FD49054019F828E82D0FE16C0A0
:10222000AA8DBB8DED91FC91B1E0CB1209C0298143
:10223000213031F40484F585E02D2885398519C0D5
:102240000684F785E02DE884F9841DC0488559850A
:102250004615570519F1AA8DBB8DED91FC91B1E0A2
:10226000CB120DC02981213051F40484F585E02D75
:102270009301A501B2018A8D9B8D09950FC006843B
:10228000F785E02D73010A851B852A813B814E81EC
:102290005F816C817D818A8D9B8D0995D6943FEFFE
:1022A000A31AB30A4E815F816E897F89460F571F3B
:1022B0005F834E83888D998DA816B90609F0AECF3D
:1022C0009FEF491A590AAC81BD81E889F989AE0F9F
:1022D000BF1FBD83AC832A893B894216530609F090
:1022E00093CF488559854615570509F4F8C0AA8D3E
:1022F000BB8DED91FC91B1E0CB1211C02981213051
:1023000071F4B1016B5F7F4F0088F189E02D83018B
:1023100028E030E0A4018A8D9B8D0995E0C06C8592
:102320007D854A815B81641B750B0684F785E02DF2
:1023300073010E851F859A01A4018A8D9B8D0995D5
:10234000CEC0F9013496E491DE1AF90132968591F6
:102350009491B7E0DB9E800D911D1124F901259128
:1023600034913B8B2A8BFC01259134915901FC015E
:1023700032965490319634913C87329674903196CF
:10238000149141E04C1518F05981523068F0672DD6
:10239000072C000C770B7D836C83812F012E000CA2
:1023A000990B9B838A8304C01B821A821D821C8224
:1023B000AA8DBB8DED91FC9111970284F385E02DE0
:1023C000CD010995412CD12C612CF981EF2FF0E042
:1023D000FF83EE832C2D30E03B872A87A401410F39
:1023E000511D17FD5A955F8B4E8BB101670D711D05
:1023F00077FC7A95798F688F7C85671608F06FC0B7
:10240000262D30E04A815B81420F531FAE81BF8190
:10241000A49FC001A59F900DB49F900D1124F401BD
:10242000E80FF91FF98BE88B842D712C4E895F8999
:10243000420F531F5D8B4C8B751408F04DC051E05B
:10244000580F5E87877041F4C5010196EA89FB89C0
:10245000EA0DFB1DD4905C01D7FE3AC061E0C612C4
:1024600016C07981713099F4AA8DBB8DED91FC91E4
:1024700011970484F585E02D288539854C895D897F
:10248000688D798D670D711DCD01099521C08C81F5
:102490009D81870D911DEA85FB858E9FB0018F9FE1
:1024A000700D9E9F700D1124620D731DAA8DBB8D42
:1024B000ED91FC9111970684F785E02DE884F9846D
:1024C0000E811F812A853B8548895989CD0109954F
:1024D000DD0C73948E85B0CF450C63948DCFAA8D9F
:1024E000BB8DED91FC9111970688F789E02DCD0108
:1024F0006B960FB6F894DEBF0FBECDBFDF91CF91C4
:102500001F910F91FF90EF90DF90CF90BF90AF9011
:102510009F908F907F906F905F904F903F902F9003
:1025200009946B960FB6F894DEBF0FBECDBFDF9156
:10253000CF911F910F91FF90EF90DF90CF90BF90C0
:10254000AF909F908F907F906F905F904F903F9053
:102550002F9008950F931F93CF93DF9377FF04C0BD
:10256000260F371F60E070E0DC011496CD91DC91FE
:102570001597FB01E20FF31FCE17DF071CF49E0136
:10258000261B370B121613060CF046C0FA0157FD36
:102590003796DF01E3E0B595A795EA95E1F7AC9FA3
:1025A000F001AD9FF00DBC9FF00D11246E0F7F1F49
:1025B000DC015F96ED91FC919097E60FF71F477055
:1025C000552781E090E001C0880F4A95EAF7482F2F
:1025D0000130110539F078F002301105E9F42E0FC1
:1025E0003F1F13C02E0F3F1FE217F307A9F0808192
:1025F000842B8193F9CF80952E0F3F1FE217F307AD
:1026000059F0908198239193F9CFE217F30721F0C5
:10261000808184278193F9CFDF91CF911F910F9112
:102620000895EF92FF920F931F93CF93DF93EC01E6
:1026300077FDA5C0EC80FD806E157F050CF09FC076
:1026400057FF04C0240F351F40E050E08E819F816A
:10265000FA01E20FF31F8E179F071CF49C01241B45
:10266000350B121613060CF08AC0922F842F869514
:10267000869586958E9DD0018F9DB00D11246A0F91
:102680007B1FAF8DB8A1A60FB71F4770B1F188E0CF
:10269000841B482F682F70E0FB01E45CFA4FE49143
:1026A000281798F4621B71092FEF30E002C03595AE
:1026B00027956A95E2F7E2230130110549F078F099
:1026C0000230110509F05BC00EC00130110519F48C
:1026D0008C91E82B0AC00130110508F049C0E09543
:1026E0008C91E82302C08C91E827EC93941708F4AE
:1026F00046C02C813D81A20FB31FE92FE41BE830B7
:10270000F8F00230110561F48E2F9C9190959C9306
:102710002C813D81A20FB31F88508830B0F70FC0C5
:1027200081E00115110509F480E081959E2F8C93BD
:102730002C813D81A20FB31F98509830C0F7E770ED
:10274000EE23E9F0F0E0EC5CFA4FE4910130110582
:1027500039F048F00230110591F48C91E82706C059
:102760008C91E82B03C0E0958C91E823EC9307C093
:102770000230110509F4B7CFAE0DBF1DBECFDF91FA
:10278000CF911F910F91FF90EF900895CF93DF931A
:10279000EB01FC0183898C3089F038F48B30C1F473
:1027A0004BE050E065E372E017C0853161F086319F
:1027B00079F44BE050E067E472E00EC04BE050E08B
:1027C0006BE372E009C04BE050E061E472E004C0EA
:1027D0004BE050E06DE472E0CE010E94EC281B86D5
:1027E000DF91CF910895FB01DC0153968C918C30E1
:1027F00041F038F48B3029F480E492E4AFE0B0E0AB
:1028000004C080E894E8AEE1B0E084A395A3A6A359
:10281000B7A308956F927F928F929F92AF92BF92CB
:10282000CF92DF92EF92FF920F931F93CF93DF939C
:10283000EC014B015A0169013801E881F9810284F8
:10284000F385E02D0995E881F9810288F389E02D6F
:1028500087019601A501B401CE010995A501460D98
:10286000571D41505109E881F9810288F389E02D13
:102870009601B401CE010995E881F9810088F189BA
:10288000E02D9301A501B401CE010995C80CD91C16
:10289000B60161507109E881F9810088F189E02D64
:1028A0009301A501CE010995E881F9810688F78990
:1028B000E02DCE01DF91CF911F910F91FF90EF900E
:1028C000DF90CF90BF90AF909F908F907F906F9050
:1028D00009948F929F92AF92BF92CF92DF92EF9224
:1028E000FF920F931F93CF93DF934C016B015A011B
:1028F000E901DC01ED91FC916217730781F4041783
:10290000150724F48B2D5801042F182F0A191B09C1
:1029100098012F5F3F4F048CF58DE02D12C04017BA
:10292000510709F52617370724F48D2D6901C62FA5
:10293000D82F9E012C193D092F5F3F4F068CF78D34
:10294000E02D8701A501B601C4010995DF91CF9162
:102950001F910F91FF90EF90DF90CF90BF90AF90BD
:102960009F908F9008950284F385E02D0995D401FE
:10297000ED91FC910488F589E02D9E01A501B60139
:10298000C4010995D401ED91FC910688F789E02DE9
:10299000C401DF91CF911F910F91FF90EF90DF90D5
:1029A000CF90BF90AF909F908F900994EF92FF923D
:1029B0000F931F93DC011A960D911C911B9718968B
:1029C0002D913C911997ED91FC9100A0F1A1E02D82
:1029D0007B0140E050E060E070E009951F910F91AD
:1029E000FF90EF9008954F925F926F927F928F9237
:1029F0009F92AF92BF92CF92DF92EF92FF920F938E
:102A00001F93CF93DF936C012B015A0139014801C9
:102A1000DC01ED91FC910284F385E02D0995E20142
:102A2000640C751CD601ED91FC91C615D7055CF4BC
:102A30000088F189E02D87019401A501BE01C6013E
:102A400009952196EFCF0688F789E02DC601DF9121
:102A5000CF911F910F91FF90EF90DF90CF90BF909B
:102A6000AF909F908F907F906F905F904F90099460
:102A70008F929F92AF92BF92CF92DF92EF92FF928E
:102A80000F931F93CF93DF93EC015B014A01690120
:102A9000E881F9810284F385E02D099595012C0DDB
:102AA0003D1D21503109E881F9810488F589E02D27
:102AB00078018401A401B501CE010995E881F9816D
:102AC0000688F789E02DCE01DF91CF911F910F91FC
:102AD000FF90EF90DF90CF90BF90AF909F908F903E
:102AE00009948F929F92AF92BF92CF92DF92EF9212
:102AF000FF920F931F93CF93DF93EC015B014A0189
:102B000069017801E881F9810284F385E02D099556
:102B1000C80CD91C860101501109E881F98104888B
:102B2000F589E02D9501A401B501CE010995E88153
:102B3000F9810688F789E02DCE01DF91CF911F91B1
:102B40000F91FF90EF90DF90CF90BF90AF909F904C
:102B50008F9009940895EF92FF920F931F93DC01D9
:102B6000ED91FC9100A0F1A1E02D09951F910F912D
:102B7000FF90EF9008950F931F93DC01ED91FC916E
:102B8000068CF78DE02D09951F910F9108950F93F5
:102B90001F93DC01ED91FC91048CF58DE02D0995DE
:102BA0001F910F910895DC01ED91FC910084F18556
:102BB000E02D09942F923F924F925F926F927F92F5
:102BC0008F929F92AF92BF92CF92DF92EF92FF923D
:102BD0000F931F93CF93DF9300D000D000D0CDB7D9
:102BE000DEB72C017E836D836A015901C801FC8226
:102BF000EB824801841A950A97FE03C09194819450
:102C0000910835012D813E81621A730A77FE03C057
:102C1000719461947108681479045CF43A2D2B2D39
:102C20005C01832F922F3D812E81DE82CD82C32EC7
:102C3000D22EAD81BE81AA16BB065CF43C2D2D2D93
:102C40006C01832F922F3D812E81BE82AD82A32EF7
:102C5000B22E85012D813E81021B130B1C012C1805
:102C60003D0837FE03C0319421943108780117FFE5
:102C700003C03FEFE31AF30AF594E794C816D906A8
:102C80002CF08FEF9FEF9A83898304C0A1E0B0E01E
:102C9000BA83A9832D813E81A216B30624F1D20105
:102CA000ED91FC910484F585E02D2B813C81681425
:102CB000790424F44D815E81B60103C0A6016D81C3
:102CC0007E81C2010995E218F308F7FE06C029814A
:102CD0003A81C20ED31EE00EF11E8D819E810196B7
:102CE0009E838D83D7CF26960FB6F894DEBF0FBE96
:102CF000CDBFDF91CF911F910F91FF90EF90DF90AB
:102D0000CF90BF90AF909F908F907F906F905F908B
:102D10004F903F902F90089585ED8093BC00809157
:102D2000BC0084FDFCCF10927D0208954091E40226
:102D3000262F30E0240F311D21323105DCF42091A3
:102D40007D022430C9F4FC0180E090E0861758F43D
:102D50003091E4022191DC01AC53BD4FA30FB11DB2
:102D60002C930196F3CF8091E402680F6093E40204
:102D700080E0089581E0089582E00895089508951F
:102D8000E0917F0280917E02E81730F4F0E0E05895
:102D9000FD4F808190E008958FEF9FEF089590910F
:102DA0007F0280917E02981750F4E92FF0E0E058FE
:102DB000FD4F208130E09F5F90937F0202C02FEF94
:102DC0003FEFC901089580917E0290E020917F023B
:102DD000821B91090895CF92DF92EF92FF920F9399
:102DE0001F93CF93DF937C01CB018A0120910A03CB
:102DF000222389F0EB016B01C40ED51ECC15DD0535
:102E000069F06991D701ED91FC910190F081E02D7D
:102E1000C7010995F3CF642F0E949616C801DF9170
:102E2000CF911F910F91FF90EF90DF90CF90089579
:102E3000CF93DF931F92CDB7DEB7698320910A034A
:102E40002223D1F020910703203240F021E030E02E
:102E5000FC013383228380E090E015C08091080359
:102E6000E82FF0E0EC55FD4F998190838F5F8093C0
:102E700008038093070305C061E0CE0101960E941C
:102E8000961681E090E00F90DF91CF91089508951C
:102E900080E090E0089508958F929F92AF92CF9234
:102EA000EF92FF920F931F93CF93DF93EC01262FA6
:102EB000898D9A8D009709F042C06A3059F41D86B9
:102EC0001C862D898E859F8538E0239F800D911D5E
:102ED000112443C06D3009F4AAC08F898823C9F03A
:102EE0003C898C859D8546E0349F800D911D112481
:102EF000488559854817590764F41D861C863D8905
:102F00008E859F8548E0349F800D911D11249F87F9
:102F10008E87EA88FB88088919894E855F856C85CC
:102F20007D85AD88CC88CE010E9476102C898C8559
:102F30009D8536E0239F800D911D11243EC06A308F
:102F400079F41D861C862D89FC013896E4918E85C6
:102F50009F852E9F800D911D11249F878E8767C0AE
:102F60006D3009F464C0FC0134963491631708F4A1
:102F70005EC03296E491E61708F459C0462F431B11
:102F8000342FFC0132968590949047E0349F800C5A
:102F9000911C1124F401329634913196E49133233B
:102FA00011F0E1110DC0F4013496E4912C898C8567
:102FB0009D85E29F800D911D11249D878C8737C0D0
:102FC000F401359644915F89552319F15C89E32F0B
:102FD000F0E0E40FF11D47FDFA955E9FB0015F9FA1
:102FE000700D11244C855D85460F571F68857985C6
:102FF0006417750774F41D861C863D89FC0138969C
:10300000E4918E859F853E9F800D911D11249F87A1
:103010008E87EA88FB88088919894E855F856C85CB
:103020007D85AD88CC88CE010E947610BCCF81E032
:1030300090E0DF91CF911F910F91FF90EF90CF9093
:10304000AF909F908F9008950C9457280C94572818
:103050001F920F920FB60F9211242F933F934F930D
:103060005F936F937F938F939F93AF93BF93EF93F0
:10307000FF938091B900887F803609F49CC068F581
:10308000883209F45BC090F4803109F454C038F4FC
:10309000882309F4F6C0883009F44DC0F6C08831A1
:1030A00009F44CC0803209F45DC0EFC0803409F4EB
:1030B00068C048F4803309F455C0883309F0E5C08E
:1030C00080937B02D8C0803509F44FC0883509F45D
:1030D0005DC0883409F0D9C0D6C0883909F4C7C0AA
:1030E000A8F4883709F467C038F4883609F463C057
:1030F000803709F460C0C9C0883809F4B8C0803985
:1031000009F45FC0803809F0C0C05BC0803B09F49F
:1031100086C038F4803A09F466C0883A09F47FC062
:10312000B4C0803C09F4A7C0883C09F4A4C0883B23
:1031300009F48AC0AAC08091780210C090917A02E6
:1031400080917902981770F5E0917A0281E08E0FF4
:1031500080937A02F0E0E95AFD4F80818093BB00B2
:1031600085EC86C080937B028EC0E0917A0281E07C
:103170008E0F80937A028091BB00F0E0E95AFD4FF8
:10318000808390917A02809179026EC0E0917A02F8
:1031900081E08E0F80937A028091BB00F0E0E95AC3
:1031A000FD4F808380917C0281116DC081E080930E
:1031B000770284EA61C083E080937D021092060367
:1031C000CFCF80910603803208F051C0E091060312
:1031D00081E08E0F809306038091BB00F0E0EA51FE
:1031E000FD4F8083BDCF85EC8093BC0010927D02A3
:1031F00080910603803230F4E0910603F0E0EA515A
:10320000FD4F10826091060370E0E0915302F0914F
:10321000540286EE92E009951092060336C084E0CF
:1032200080937D021092E5021092E402E091550233
:10323000F091560209958091E402811105C081E068
:103240008093E4021092C402E091E50281E08E0FC7
:103250008093E502F0E0EC53FD4F80818093BB004A
:103260009091E5028091E402981708F479CF85E8FF
:103270008093BC000AC085EC8093BC0010927D0254
:1032800004C010927B020E948C16FF91EF91BF91B7
:10329000AF919F918F917F916F915F914F913F91EE
:1032A0002F910F900FBE0F901F901895309107032C
:1032B000313208F04AC080917D028111FCCF90919B
:1032C000090322E020937D0260937C022FEF20937C
:1032D0007B0210927A0230937902E4EAF2E0A7E5E9
:1032E000B2E020E0321721F041914D932F5FFACFE9
:1032F0001092780220917802990F922B9093780285
:1033000090917702913061F4109277029091780257
:103310009093BB009091BC0093FDF8CF95EC01C059
:1033200095EE9093BC0090917D029230E1F39091E4
:103330007B029F3F79F080917B02803241F0809147
:103340007B02803331F084E005C081E003C082E07D
:1033500001C083E0109208031092070310920A0341
:1033600008950895089561E00C945619DF92EF9244
:10337000FF920F931F93CF93DF93D82ED92FC62F91
:103380008091F7039091F803009709F454C02091BD
:10339000FB0331E030930A032093090310920803E2
:1033A00010920703DC01ED91FC910190F081E02D7A
:1033B00060E00995ED2CFD2E11E0D1E08091F7033E
:1033C0009091F803CC2371F11032C8F00E94B31928
:1033D0008091FB03D0930A038093090310920803A2
:1033E000109207038091F7039091F803DC01ED91AF
:1033F000FC910190F081E02D60E0099511E0809151
:10340000F7039091F803F7016491DC01ED91FC91D1
:103410000190F081E02D09951F5FC150BFEFEB1ABD
:10342000FB0ACCCFDF91CF911F910F91FF90EF90CE
:10343000DF900C94B319E0910704F0910804908197
:1034400080910D048095892380830D2D1D2FCC2321
:1034500009F439C0F80184912091F5033091F60305
:10346000232B31F00E94E20BC1500F5F1F4FEFCFB3
:1034700028E030E040E8E0910304F09104049091EA
:103480000B04582F542319F05081952B03C0508101
:10349000909595239083E0910504F0910604508166
:1034A00090910C04952B9083E0910504F091060413
:1034B000508190910C0490959523908346952150CE
:1034C0003109C9F6D1CFDF91CF911F910F91FF90B4
:1034D000EF90DF900895EF92FF920F931F93CF9399
:1034E000DF938091F7039091F803892BD1F020911D
:1034F0000F0430911004409111045091120460E0C7
:1035000074E284EF90E00E945425DA01C9014097EB
:10351000A109B109B695A795979587958093B800AD
:1035200016C08091F5039091F603892B31F08091BC
:103530001804909119040E944C0CE0910904F09138
:103540000A04908180910E0480958923808365E030
:103550008EE49AE00E94B6196091DE0361508AED14
:1035600093E00E94E90B2091E0033091E103C9014F
:10357000079697FD079633E0959587953A95E1F77D
:103580002091DE033091DF03829F8001839F100D25
:10359000929F100D1124C091F903D091FA038091EC
:1035A000F7039091F8030C0F1D1F009709F44CC00E
:1035B0002091FB0331E030930A032093090310921A
:1035C000080310920703DC01ED91FC910190F0815A
:1035D000E02D60E40995FF24F394EE24E3948091B8
:1035E000F7039091F8030C171D0759F1BFE1BF15C0
:1035F000D0F40E94B3198091FB03E0920A038093F8
:10360000090310920803109207038091F703909129
:10361000F803DC01ED91FC910190F081E02D60E474
:103620000995FF24F3948091F7039091F803699131
:10363000DC01ED91FC910190F081E02D0995F3946E
:10364000CECF0E94B31941C0E0910704F091080465
:10365000908180910D04892B80830C171D07A9F19F
:1036600089912091F5033091F603232B19F00E94E4
:10367000E20BF3CF28E030E040E8E0910304F09162
:10368000040490910B04582F542319F05081952B6A
:1036900003C05081909595239083E0910504F091AB
:1036A0000604508190910C04952B9083E0910504C1
:1036B000F0910604508190910C049095952390838D
:1036C000469521503109C9F6C8CF8091F7039091F2
:1036D000F803892BD1F02091130430911404409108
:1036E00015045091160460E074E284EF90E00E94AB
:1036F0005425DA01C9014097A109B109B695A795EA
:10370000979587958093B80017C0E0910904F091D0
:103710000A04908180910E04892B80838091F503A7
:103720009091F603892B41F0DF91CF911F910F917A
:10373000FF90EF900C94E10BDF91CF911F910F91CF
:10374000FF90EF900895CF92DF92EF92FF920F9348
:103750001F93CF93DF936B01770FEE08FF08F7FEFF
:103760001BC0EC016DE20E94420A8C0144275527E0
:10377000BA014C195D096E097F092AE0CE010E9449
:103780005E0A800F911FDF91CF911F910F91FF90E3
:10379000EF90DF90CF9008952AE0B701A601DF9166
:1037A000CF911F910F91FF90EF90DF90CF900C94ED
:1037B0005E0A2091E0033091E103C901079697FD6D
:1037C000079623E0959587952A95E1F72091DE03EA
:1037D0003091DF03829FA001839F500D929F500D77
:1037E000112460E070E08091F9039091FA030C9449
:1037F000E528CF92DF92EF92FF921F93CF93DF9352
:10380000EC011F81662311F0912F01C090E0288503
:1038100030E0220F331F2C5B354FA0E0B0E0F90100
:1038200045915491FA0180818123AD0160E070E0FF
:1038300089130FC01196CD84DE84EF84F8884C156F
:103840005D056E057F0558F33FEF2FEF8FEF9FEF7C
:1038500003C03A2F252FCB01632F722FDF91CF9119
:103860001F91FF90EF90DF90CF900895833081F00B
:1038700028F4813099F08230A1F008958730A9F0C2
:103880008830B9F08430D1F4809180008F7D03C0FE
:10389000809180008F7780938000089584B58F7722
:1038A00002C084B58F7D84BD08958091B0008F776C
:1038B00003C08091B0008F7D8093B0000895CF93B6
:1038C000DF93282F30E0F901E157F54F8491F9019A
:1038D000E959F54FD491F901ED5AF54FC491CC2334
:1038E00091F081110E94361CEC2FF0E0EE0FFF1FCB
:1038F000EC5BF54FA591B491EC91ED2381E090E064
:1039000021F480E002C080E090E0DF91CF91089543
:103910003FB7F89480912A0490912B04A0912C0435
:10392000B0912D0426B5A89B05C02F3F19F0019634
:10393000A11DB11D3FBFBA2FA92F982F8827820F35
:10394000911DA11DB11DBC01CD0142E0660F771F85
:10395000881F991F4A95D1F70895FF920F931F93DF
:10396000CF93DF93EC018A01F22E89819A81DC01E9
:10397000ED91FC910280F381E02D0995081719075C
:1039800039F46F2D89819A810E94561991E0811135
:1039900090E0892FDF91CF911F910F91FF900895B3
:1039A000CF93DF93EC018B8181110AC00E944410F8
:1039B00081E08B83CE010E94D01C982F882389F050
:1039C000888191E090930A03809309031092080381
:1039D0001092070389819A810E94B31991E08111A5
:1039E00090E0892FDF91CF9108951F93CF93DF93BC
:1039F000282F30E0F901E157F54F8491F901E95999
:103A0000F54FD491F901ED5AF54FC491CC23C1F093
:103A1000162F81110E94361CEC2FF0E0EE0FFF1FD5
:103A2000EB57F54FA591B4919FB7F894111104C0CD
:103A30008C91D095D82302C0EC91DE2BDC939FBFF4
:103A4000DF91CF911F910895CF92DF92EF92FF9275
:103A50000F931F93CF93DF93EC0188819981892B7A
:103A600009F091C088859985892BE9F420E030E040
:103A700000E070E0E7E0F0E0AB01022E02C05595F7
:103A800047950A94E2F741705527CF01821B930BAB
:103A900001C0440F8A95EAF7042B2F5F3F4F28306F
:103AA000310551F701C0062F10E087E0E82EF12C18
:103AB000CC24C394D12C110F8A85877FE1F48D85A6
:103AC0008F3F49F0B6010E2C01C0660F0A94EAF749
:103AD00060230E94F51C61E08C850E94F51C8E8598
:103AE0008F3F29F00E945F1C892B09F052C060E0D3
:103AF0008C850E94F51C8A85877F8430D9F461E02B
:103B00008C850E94F51C8D858F3F49F0B6010E2CE7
:103B100001C0660F0A94EAF760230E94F51C60E07A
:103B20008C850E94F51C8E858F3F21F00E945F1CC2
:103B3000892B89F581E0E81AF10808F0BCCF888567
:103B40009985892BF1F420E030E080E0A12FB0E0EE
:103B5000E7E0F0E0AD01022E02C0559547950A94CA
:103B6000E2F741705527BF01621B730B01C0440F80
:103B70006A95EAF7842B2F5F3F4F2830310551F7C4
:103B80000CC0812F0AC06EBD0DB407FEFDCF8EB5EF
:103B900004C01160ACCF1160CDCFDF91CF911F91E8
:103BA0000F91FF90EF90DF90CF900895CF93DF9328
:103BB00090E0FC01E959F54F2491FC01ED5AF54FD5
:103BC0008491882361F190E0880F991FFC01E558EA
:103BD000F54FC591D491FC01EB57F54FA591B491E8
:103BE000611109C09FB7F89488812095822388834A
:103BF000EC912E230BC0623061F49FB7F89488815A
:103C0000322F309583238883EC912E2B2C939FBFEA
:103C100006C08FB7F894E8812E2B28838FBFDF91E1
:103C2000CF9108958F929F92AF92BF92CF92DF92E1
:103C3000EF92FF926B017C010E94881C4B015C019A
:103C4000C114D104E104F104F1F00E94881CDC01EC
:103C5000CB0188199909AA09BB09883E9340A1059F
:103C6000B10570F321E0C21AD108E108F10888EE2D
:103C7000880E83E0981EA11CB11CC114D104E1047C
:103C8000F10419F7DDCFFF90EF90DF90CF90BF9058
:103C9000AF909F908F9008951F920F920FB60F9242
:103CA00011242F933F938F939F93AF93BF93809152
:103CB000A0029091A102A091A202B091A302309122
:103CC000290423E0230F2D3720F40196A11DB11DF7
:103CD00005C026E8230F0296A11DB11D20932904DB
:103CE0008093A0029093A102A093A202B093A3029A
:103CF00080912A0490912B04A0912C04B0912D0462
:103D00000196A11DB11D80932A0490932B04A093CA
:103D10002C04B0932D04BF91AF919F918F913F914F
:103D20002F910F900FBE0F901F901895CF93DF9398
:103D3000CDB7DEB7CA54D1090FB6F894DEBF0FBEB7
:103D4000CDBF789484B5826084BD84B5816084BD24
:103D500085B5826085BD85B5816085BD80916E0029
:103D6000816080936E00109281008091810082605A
:103D70008093810080918100816080938100809197
:103D800080008160809380008091B1008460809386
:103D9000B1008091B00081608093B00080917A0082
:103DA000846080937A0080917A00826080937A00A8
:103DB00080917A00816080937A0080917A00806897
:103DC00080937A001092C100E0911B03F0911C03D4
:103DD00032E0E32EE082E0911703F09118031082A5
:103DE000E0911903F0911A038FEC80831092230362
:103DF000E0911F03F091200386E08083E0911D0392
:103E0000F0911E03808180618083E0911D03F09119
:103E10001E03808188608083E0911D03F0911E0362
:103E2000808180688083E0911D03F0911E03808172
:103E30008F7D80838BE093E00E94830B62E0809112
:103E4000B9030E94D61D2FB7F8948091A0029091DB
:103E5000A102A091A202B091A3022FBF805D974062
:103E6000A109B1098093BD039093BE03A093BF0342
:103E7000B093C00387E38093C60386E090E00E947E
:103E8000BF278C0180911C04F801808388EA93E0AD
:103E900092838183138280E290E0958384831093E0
:103EA0001B0400931A040E944410FF24F394F801A9
:103EB000F382C8010E94D01C882309F450C080E01E
:103EC00090E1A0E0B0E080931D0490931E04A093C5
:103ED0001F04B09320048AE090E0A0E0B0E080935B
:103EE000210490932204A0932304B093240480E03F
:103EF00090E0A0E0B0E48093250490932604A09382
:103F00002704B093280480911A0490911B049EA367
:103F10008DA318A61FA2FEA685E090E09CA78BA704
:103F2000FFA6EDA640E050E160E070E0CE0185968E
:103F30000E94EC0E80911A0490911B049A8389834D
:103F40001C821B82FA8618861F82FB86E9864FE94F
:103F500059E360E070E0CE0101960E94EC0E60EA49
:103F600071E08BE093E00E94870B65EA71E08BE0E3
:103F700093E00E94870B66EB71E08BE093E00E9478
:103F8000870B6EEB71E08BE093E00E94870B68EC8F
:103F900071E08BE093E00E94870B65ED71E08BE0B0
:103FA00093E00E94870B63EE71E08BE093E00E9448
:103FB000870B8BE093E00E94830B8091F903909133
:103FC000FA03892B09F055C22091E0033091E103F7
:103FD000C901079697FD079623E0959587952A9541
:103FE000E1F72091DE033091DF03AC01429FC00175
:103FF000439F900D529F900D11240E94BF279093D4
:10400000FA038093F903892B09F033C20AE115E022
:10401000F8016491611105C08BE093E00E94830B6D
:104020001CC28BE093E00E9413060F5F1F4F892B89
:1040300079F7F2CF81E480937C0080917A008064EC
:1040400080937A0080917A0086FDFCCF20907800E2
:1040500080917900312C382A80911A0490911B04A8
:104060009EA38DA318A61FA201E00EA782E090E0F8
:104070009CA78BA70FA71DA7BE016C5C7F4FCE012D
:1040800085960E94B40D6CA97DA983E0769567950D
:104090008A95E1F7660F771F660F771F072E000CD2
:1040A000880B990B0E9498262FE632E143E85AE3E9
:1040B0000E944D2729966CAF7DAF8EAF9FAF299799
:1040C00080911A0490911B049DAB8CAB1FAA1EAA71
:1040D0000DAFE5E0F0E0FBAFEAAF0EAF1CAF4091F3
:1040E0001D0450911E0460911F0470912004CE01A4
:1040F000C4960E94EC0E80911A0490911B049EA31A
:104100008DA318A61FA20EA744E050E05CA74BA702
:104110000FA71DA7BE016D5B7F4FCE0185960E9444
:10412000B40D25966EAD7FAD2597072E000C880B3C
:10413000990B0E9498266B017C016091210470917B
:10414000220480912304909124040E9496269B01CE
:10415000AC01C701B6010E94EE254B015C018091C4
:10416000CA038FA38CE591E09EA38DA38091CB031E
:104170009091CC0399A788A78091CD039091CE030D
:10418000A091CF03B091D0038AA79BA7ACA7BDA7EE
:10419000BE016F5F7F4FCE0185960E94F608809129
:1041A000D3038FA3EEE4F1E0FEA3EDA38091D4034B
:1041B0009091D50399A788A78091D6039091D703B2
:1041C000A091D803B091D9038AA79BA7ACA7BDA79C
:1041D000BE016F5F7F4FCE0185960E9470084D88AB
:1041E0005E886F88788C2B96EEADFFAD2B97C190D3
:1041F000D1902B96FFAFEEAF2B97B6018BE093E0FB
:104200000E94A31B61EE71E08BE093E00E94870B9C
:10421000B10180E090E00E949626AB01BC0122E053
:104220008BE093E00E94A70A61EE71E08BE093E0DF
:104230000E94870B22E0B301A2018BE093E00E9471
:10424000A70A61EE71E08BE093E00E94870B22E009
:10425000B301A2018BE093E00E94A70A61EE71E036
:104260008BE093E00E94870B22E029964CAD5DAD78
:104270006EAD7FAD29978BE093E00E94A70A61EEB7
:1042800071E08BE093E00E94870B22E0B501A4016E
:104290008BE093E00E94A70A61EE71E08BE093E06F
:1042A0000E94870B29962CAD3DAD4EAD5FAD299791
:1042B000C501B4010E944D27AB01BC0122E08BE097
:1042C00093E00E94A70A8BE093E00E94830B6D8924
:1042D0007E898F89988D0E9460262B013C010E9467
:1042E000D91B1092E7031092E6031092E903109293
:1042F000E8036DEE71E08AED93E00E94870B0D2CD0
:10430000000CEE08FF08F7FEB0C06DE28AED93E006
:104310000E94420A44275527BA014C195D096E09CB
:104320007F092AE08AED93E00E945E0A8AED93E01D
:104330000E94830B40E450E05093E7034093E60370
:104340001092E9031092E80363EF71E08AED93E0C5
:104350000E94870BB1018AED93E00E94A31B10928B
:10436000E7031092E6038AE090E09093E9038093DC
:10437000E8036BEF71E08AED93E00E94870B22E087
:1043800029964CAD5DAD6EAD7FAD29978AED93E07A
:104390000E94A70AE0E4F0E0F093E703E093E6036D
:1043A0004AE050E05093E9034093E80361E072E093
:1043B0008AED93E00E94870B22E0B501A4018AED0B
:1043C00093E00E94A70A1092E7031092E60384E1AB
:1043D00090E09093E9038093E80368E072E08AED4F
:1043E00093E00E94870BB2018AED93E00E94A31B29
:1043F0006FE072E08AED93E00E94870BE0E4F0E06A
:10440000F093E703E093E60344E150E05093E903BF
:104410004093E80361E172E08AED93E00E94870B2C
:10442000B2018AED93E00E94A31B69E172E08AED7C
:1044300093E00E94870B0E946B1A2B968EAD9FAD66
:104440002B978652914009F0F5CD68EE73E080E03D
:1044500090E00E94121E0E94820646E051E02B96D8
:104460005FAF4EAF2B9712E0E5CD2AE0B701A60172
:1044700059CF0E94D91B2091E0033091E103809134
:10448000DE039091DF0321323105A4F0B9016054BD
:10449000710977FF02C06F5F7F4F759567958255F1
:1044A000910997FD019600E410E022E530E04AE52D
:1044B00052E013C0B9016052710977FF02C06F5F0B
:1044C0007F4F759567958357910997FD019600E297
:1044D00010E023E730E04AE750E0959587950E9489
:1044E000C10F82E08093FC038091F7039091F80361
:1044F000892B31F08CE38093FB030E944410BEC0F3
:1045000061E0809100040E94D61D61E08091010469
:104510000E94D61D80910004082E000C990BFC010E
:10452000ED5AF54FE491F0E0EE0FFF1FEB57F54F1A
:10453000259134913093080420930704FC01E95934
:10454000F54FE491E0930D0480910104082E000CD6
:10455000990BFC01ED5AF54FE491F0E0EE0FFF1FCF
:10456000EB57F54FA591B491B0930A04A0930904B9
:10457000FC01E959F54FE491E0930E048C91E82B8E
:10458000EC938091F5039091F603892B09F434C0E4
:104590001FB7F89480915202811127C0EDE5FAE02F
:1045A0008491E1E7FAE09491E82FF0E0EE0FFF1F2D
:1045B000E558F54FA591B491EC91E92321F461E020
:1045C0008AE00E94F51C61E08AE00E94D61D8CB54D
:1045D00080618CBD8CB580648CBD61E08DE00E94F3
:1045E000D61D61E08BE00E94D61D809152028F5F44
:1045F000809352021FBF42C061E08091FE030E947F
:10460000D61D61E08091FF030E94D61D8091FE03BC
:10461000082E000C990BFC01ED5AF54FE491F0E0E7
:10462000EE0FFF1FEB57F54F2591349130930404A3
:1046300020930304FC01E959F54FE491E0930B0446
:104640008091FF03082E000C990BFC01ED5AF54FE9
:10465000E491F0E0EE0FFF1FEB57F54FA591B491F9
:10466000B0930604A0930504FC01E959F54FE491C9
:10467000E0930C048C91E095E823EC938091020484
:1046800087FD1EC061E00E94D61D61E0809102049A
:104690000E94F51C61E070E080E090E00E94121E34
:1046A00060E0809102040E94F51C6AE070E080E006
:1046B00090E00E94121E61E0809102040E94F51CAD
:1046C0008091F7039091F803892BD1F020910F048A
:1046D00030911004409111045091120460E074E292
:1046E00084EF90E00E945425DA01C9014097A109A6
:1046F000B109B695A795979587958093B80016C090
:104700008091F5039091F603892B31F08091180484
:10471000909119040E944C0CE0910904F0910A0454
:10472000908180910E0480958923808364E086E7E0
:1047300090E00E94B6196091E00361508AED93E029
:104740000E94E90B64E082E790E00E94B619809134
:10475000FC03813011F064E101C060E18AED93E077
:104760000E94E90B64E08EE690E00E94B6198FE8A3
:10477000809317048091DE039091DF0380389105C8
:1047800091F48091E0039091E10380349105E9F484
:104790008091FC03813011F08FEC01C08FE9809390
:1047A000170412E113C08036910579F48091E0037B
:1047B0009091E103409749F48091FC03813011F01E
:1047C0008FEA01C080E18093170412E06AED8AED60
:1047D00093E00E94E90B612F8AED93E00E94E90BC0
:1047E00061E88AED93E00E94E90B609117048AED7D
:1047F00093E00E94E90B69ED8AED93E00E94E90BDA
:104800008091FC03813011F061EF01C062E28AED1A
:1048100093E00E94E90B66E088E690E00E94B619FA
:104820008091F7039091F803892BD1F02091130424
:1048300030911404409115045091160460E074E224
:1048400084EF90E00E945425DA01C9014097A10944
:10485000B109B695A795979587958093B80011C033
:10486000E0910904F0910A04908180910E04892B53
:1048700080838091F5039091F603892B11F00E94BB
:10488000E10B0E94D91B81E090E09093ED038093AF
:10489000EC039093EB038093EA0360E08AED93E0EE
:1048A0000E944A071092F10380E490E09093E7039E
:1048B0008093E60380E290E09093E9038093E8031D
:1048C00081E08093EE038093EF036BE172E08AED69
:1048D00093E00E94490A8AED93E00E94830B68EE00
:1048E00073E080E090E00E94121E0E946B1AB5CD2A
:1048F00088E791E09093DB038093DA038091F903DA
:104900009091FA03009711F00C9457280895EBE06A
:10491000F3E01382128248EE53E060E070E04483DB
:104920005583668377838AE291E09183808385EC67
:1049300090E09587848784EC90E09787868780EC69
:1049400090E0918B808B81EC90E0938B828B82EC5A
:1049500090E0958B848B86EC90E0978B868B118E04
:10496000128E138E148EA8EAB3E013961C921E9238
:10497000129714964D935D936D937C9317978CE3E8
:1049800091E011969C938E93EAE1F4E011821082FB
:1049900080E482831782108611861286138614861D
:1049A00015861686EAEDF3E01382128220E830E0E5
:1049B0003583248380E290E0978386833187208744
:1049C00093878287168A158614861786168681E055
:1049D000858B848B2FEF3FEF338B228B318B208B9A
:1049E000878B108E128E118E88E791E091838083E1
:1049F000148E138EB68FA58F10A2178E8FEF84A3FF
:104A000085A386A387A380A780E586AF17AEA4EB16
:104A1000B3E082E015968C93159786E116968C93F9
:104A20001697E9E6FAE0E4911796EC931797E5E517
:104A3000FAE0E4911896EC93189740E85EE360E0A2
:104A400070E01D964D935D936D937C9350975396B4
:104A50008C9353978CE591E055969C938E93549745
:104A60000A2E1B2E58961C920E92112457974FEF28
:104A70005FEFBA0159964D935D936D937C935C976C
:104A80008EE491E05E969C938E935D970A2E1B2E8A
:104A900091961C920E921124909792964D935D934D
:104AA0006D937C9395970895A1E21A2EAA1BBB1BC8
:104AB000FD010DC0AA1FBB1FEE1FFF1FA217B307EA
:104AC000E407F50720F0A21BB30BE40BF50B661F00
:104AD000771F881F991F1A9469F7609570958095C4
:104AE00090959B01AC01BD01CF010895EE0FFF1F12
:104AF0000590F491E02D09945058BB27AA270E94F5
:104B000094250C940E270E94002738F00E94072756
:104B100020F039F49F3F19F426F40C94FD260EF48E
:104B2000E095E7FB0C94F726E92F0E941F2758F326
:104B3000BA17620773078407950720F079F4A6F582
:104B40000C9441270EF4E0950B2EBA2FA02D0B01EB
:104B5000B90190010C01CA01A0011124FF27591BC2
:104B600099F0593F50F4503E68F11A16F040A22FC8
:104B7000232F342F4427585FF3CF46953795279539
:104B8000A795F0405395C9F77EF41F16BA0B620B38
:104B9000730B840BBAF09150A1F0FF0FBB1F661F7F
:104BA000771F881FC2F70EC0BA0F621F731F841FC2
:104BB00048F4879577956795B795F7959E3F08F0E8
:104BC000B0CF9395880F08F09927EE0F97958795AA
:104BD00008950E94D32608F481E008950E940226D9
:104BE0000C940E270E94072758F00E94002740F0DF
:104BF00029F45F3F29F00C94F72651110C944227B9
:104C00000C94FD260E941F2768F39923B1F35523C6
:104C100091F3951B550BBB27AA27621773078407CF
:104C200038F09F5F5F4F220F331F441FAA1FA9F365
:104C300035D00E2E3AF0E0E832D091505040E69553
:104C4000001CCAF72BD0FE2F29D0660F771F881FB4
:104C5000BB1F261737074807AB07B0E809F0BB0BA7
:104C6000802DBF01FF2793585F4F3AF09E3F5105BB
:104C700078F00C94F7260C9442275F3FE4F3983EBB
:104C8000D4F3869577956795B795F7959F5FC9F7A4
:104C9000880F911D9695879597F90895E1E0660F25
:104CA000771F881FBB1F621773078407BA0720F09E
:104CB000621B730B840BBA0BEE1F88F7E095089507
:104CC0000E9467266894B1110C94422708950E94AF
:104CD000272788F09F5798F0B92F9927B751B0F040
:104CE000E1F0660F771F881F991F1AF0BA95C9F770
:104CF00014C0B13091F00E944127B1E008950C94A6
:104D00004127672F782F8827B85F39F0B93FCCF358
:104D1000869577956795B395D9F73EF490958095EC
:104D2000709561957F4F8F4F9F4F0895E89409C00C
:104D300097FB3EF490958095709561957F4F8F4FCE
:104D40009F4F9923A9F0F92F96E9BB279395F695E4
:104D5000879577956795B795F111F8CFFAF4BB0F62
:104D600011F460FF1BC06F5F7F4F8F4F9F4F16C0C6
:104D7000882311F096E911C0772321F09EE8872F50
:104D8000762F05C0662371F096E8862F70E060E00C
:104D90002AF09A95660F771F881FDAF7880F969585
:104DA000879597F90895990F0008550FAA0BE0E829
:104DB000FEEF16161706E807F907C0F012161306DD
:104DC000E407F50798F0621B730B840B950B39F41D
:104DD0000A2661F0232B242B252B21F408950A2683
:104DE00009F4A140A6958FEF811D811D089597F9C3
:104DF0009F6780E870E060E008959FEF80EC089581
:104E000000240A94161617061806090608950024A9
:104E10000A9412161306140605060895092E039423
:104E2000000C11F4882352F0BB0F40F4BF2B11F497
:104E300060FF04C06F5F7F4F8F4F9F4F089557FDF6
:104E40009058440F551F59F05F3F71F04795880FF8
:104E500097FB991F61F09F3F79F08795089512168F
:104E600013061406551FF2CF4695F1DF08C016163B
:104E700017061806991FF1CF8695710561050894EC
:104E80000895E894BB2766277727CB0197F9089503
:104E90000E94D32608F48FEF08950E9460270C9497
:104EA0000E270E94002738F00E94072720F0952344
:104EB00011F00C94F7260C94FD2611240C94422733
:104EC0000E941F2770F3959FC1F3950F50E0551F67
:104ED000629FF001729FBB27F00DB11D639FAA274F
:104EE000F00DB11DAA1F649F6627B00DA11D661F9E
:104EF000829F2227B00DA11D621F739FB00DA11DBF
:104F0000621F839FA00D611D221F749F3327A00D78
:104F1000611D231F849F600D211D822F762F6A2F14
:104F200011249F5750409AF0F1F088234AF0EE0F79
:104F3000FF1FBB1F661F771F881F91505040A9F7A6
:104F40009E3F510580F00C94F7260C9442275F3F5A
:104F5000E4F3983ED4F3869577956795B795F795E2
:104F6000E7959F5FC1F7FE2B880F911D969587955A
:104F700097F908950E94D326880B990B08950F93F3
:104F80001F93CF93DF938230910510F482E090E07D
:104F9000E0913004F091310420E030E0A0E0B0E096
:104FA000309719F1408151810281138148175907C7
:104FB000C8F08417950769F4109731F012960C9396
:104FC000129713961C9327C000933004109331045A
:104FD00022C02115310519F04217530718F49A0120
:104FE000BD01EF01DF01F801DBCF21153105F9F03B
:104FF000281B390B2430310580F48A819B8161158F
:10500000710521F0FB019383828304C090933104E6
:1050100080933004FE01329644C0FE01E20FF31F7C
:105020008193919322503109398328833AC020918A
:105030002E0430912F04232B41F420910201309152
:10504000030130932F0420932E042091000130910E
:1050500001012115310541F42DB73EB740910401FE
:1050600050910501241B350BE0912E04F0912F0483
:10507000E217F307A0F42E1B3F0B2817390778F02F
:10508000AC014E5F5F4F2417350748F04E0F5F1F8E
:1050900050932F0440932E048193919302C0E0E03B
:1050A000F0E0CF01DF91CF911F910F910895CF9341
:1050B000DF93009709F481C0FC01329713821282BA
:1050C000A0913004B0913104109781F42081318196
:1050D000820F931F20912E0430912F042817390737
:1050E00051F5F0932F04E0932E0467C0ED0120E00A
:1050F00030E0CE17DF0740F44A815B819E01411505
:105100005105F1F0EA01F5CFD383C283408151818B
:10511000840F951FC817D90759F488819981840F86
:10512000951F0296918380838A819B8193838283DA
:105130002115310529F4F0933104E09330043DC08A
:10514000E901FB83EA8349915991C40FD51FEC17FC
:10515000FD0761F480819181840F951F0296E9011A
:1051600099838883828193819B838A83E0E0F0E046
:1051700012968D919C911397009719F0FD01DC0117
:10518000F7CF8D919C9111979D012E5F3F4F820F1C
:10519000931F20912E0430912F042817390769F4AA
:1051A000309729F4109231041092300402C0138217
:1051B0001282B0932F04A0932E04DF91CF91089513
:1051C00081E090E0F8940C94FB28DC0101C06D9321
:1051D00041505040E0F70895FB01DC014150504040
:1051E00048F001900D920020C9F701C01D92415076
:1051F0005040E0F7089515E0C3E5D5E004C0FE0196
:105200000E9476252196C435D107C9F7F894FFCFBF
:1052100000003204200016001700180019001A00C0
:105220001B001C001D001E001F002000210022008A
:105230002300240025000000000013068005AA05B5
:105240006006DB05B905CD05000000001817EB1658
:105250004817AA15E316CF16C01600000000B119B2
:1052600024184B1770085F0700000000B2192618B9
:105270004B17F608DD0700000000000000004B1788
:105280007E057E05000000004C1780054817471773
:105290008C06AA15D315AB15C715BB15DA15AA15BB
:1052A0004A074F0CB309F709F314D61469140A140A
:1052B00050696E2C004C6967687420496E74656E85
:1052C000736974792C0054656D7020432C00487507
:1052D0006D69646974792C00566F6C746167652818
:1052E0006D56292C00416D706572616765286D41AE
:1052F000292C00506F776572286D57290050696E10
:105300003A20004C696768743A20005627733A20A7
:10531000006D4127733A200054656D703A20006398
:105320000048756D69643A200025004C6F6164691E
:105330006E672E2E2E006E616E00696E66006F76AF
:1053400066000D0A0044485431310044485431325B
:1053500000444854323100444854323200444854E6
:025360003F000C
:00000001FF
