:100000000C9454050C947C050C947C050C947C0594
:100010000C947C050C947C050C947C050C947C055C
:100020000C947C050C947C050C947C050C947C054C
:100030000C947C050C947C050C947C050C947C053C
:100040000C94B11B0C947C050C94720D0C944C0D0B
:100050000C947C050C947C050C947C050C947C051C
:100060000C946C0E0C947C05DB40A4A62EAF2000F3
:10007000A1C8D300408DAED580A80000600000006C
:100080000000000000000000000000E00000000090
:1000900000000000000000000001E000000000007F
:1000A000000000000000000001F00000000000005F
:1000B0000000000000000003F0000000000000004D
:1000C00000000000000007F0000000000000000039
:1000D000000000000007F800000000000000000021
:1000E000000000000FF800000003C0007E000001C7
:1000F000E0007F0FF800000003C000FE000001E0F8
:1001000000FFEFF800000003C000FE000001E00067
:10011000FFFFF800000003C000F00000000F007FA8
:10012000FE7FC0000003C000F00000000F003FFE93
:100130007FF83FF1FBCFFCFEF3BC3DEFE01FFE7FFD
:10014000FF7FFBFFDFFEFEFFBC3DEFE01FC6FFFFB2
:100150007FFBFFDFFEFEFFBC3DEFE00FE3C7FE7855
:100160007BC3DE1EF0FFBC3DEF0007FF87FC787B02
:10017000C3DE1EF0F83C3DEF0001FFFFF0007BC343
:10018000C01EF0F03C3DEF0001F37FE03FFBC3CF2A
:10019000FEF0F03C3DEF0003E33F807FFBC3DFFE5A
:1001A000F0F03C3DEF0007E73C00787BC3DE1EF03B
:1001B000F03C3DEF0007FFBE00787BC3DE1EF0F091
:1001C0003C3DEF0007FFFE00787BC3DE1EF0F03CF5
:1001D0003DEF000FFFFE007FFBFFDFFEF0F03FFD75
:1001E000EFE00FFFFF007FFBFFDFFEF0F03FFDEFD2
:1001F000E00FF9FF003E79F9CF9EF0F01F3DE7E0F8
:100200001FF1FF0000000000000000000000001FC0
:1002100080FF007FFFFFFFFFFFFFFFFFFFE01C00ED
:100220007F007FFFFFFFFEB46D888D18E000001F88
:10023000007FFFFFFFFE95AD7DB577E000000F006A
:100240007FFFFFFFFEA5AD9D8D19E0000006007F3A
:10025000FFFFFFFEB5ADEDB57EE000000000000140
:10026000800000000000000000000380000000008B
:10027000000000000007C0000000000000000000B7
:1002800007C00000000000000000000FC0000000D8
:100290000000000000001FE000000000000000005F
:1002A000001FE00000000000000000003FE0000030
:1002B000000000000000003FF0000000000000000F
:1002C00000007FF0000000000000001FF87FF00039
:1002D0000000000000003FFE7FF000000000000072
:1002E000003FFF7FF0000000000000001FFFFBE068
:1002F000000000000000000FFFF9FFC00000000038
:1003000000000FFFF9FFF800000000000007FFF1F8
:10031000FFFF00000000000003FC73FFFF800000EF
:1003200000000001FE3FFFFF80000000000000FF12
:100330001E0FFF000000000000007FFE1FFC0000F9
:1003400000000000003FFFFFF80000000000000078
:100350000FDFFFE0000000000000001F19FFC000D9
:100360000000000000003F3CFF0000000000000013
:10037000007E7CF800000000000000007FFE7C0092
:1003800000000000000000FFFFFC00000000000073
:100390000000FFFFFE0000000000000000FFFFFE65
:1003A0000000000000000001FFEFFE000000000060
:1003B000000001FFCFFE0000000000000003FF0767
:1003C000FE0000000000000003FC07FE000000002B
:1003D00000000003F003FE000000000000000180A8
:1003E00000FE000000000000000000007E00000091
:1003F000000000000000003E0000000000000000BF
:1004000000000C000000000000078000FC0000035A
:10041000C0000000078001FC000003C000000007CE
:100420008001FC000003C0000000078001E0000024
:10043000001E000000078001E00000001E007FE3B6
:10044000F79FF9FDE7787BDFC0FFF7FFBFFDFDFFFA
:10045000787BDFC0FFF7FFBFFDFDFF787BDFC0F0DB
:10046000F787BC3DE1FF787BDE00F0F787BC3DE11C
:10047000F0787BDE0000F787803DE1E0787BDE00EE
:100480007FF7879FFDE1E0787BDE00FFF787BFFD08
:10049000E1E0787BDE00F0F787BC3DE1E0787BDED1
:1004A00000F0F787BC3DE1E0787BDE00F0F787BC29
:1004B0003DE1E0787BDE00FFF7FFBFFDE1E07FFB81
:1004C000DFC0FFF7FFBFFDE1E07FFBDFC07CF3F3A0
:1004D0009F3DE1E03E7BCFC0000000000000000037
:1004E000000000FFFFFFFFFFFFFFFFFFFFC0FFFF58
:1004F000FFFFFD68DB111A31C0FFFFFFFFFD2B5A24
:10050000FB6AEFC0FFFFFFFFFD4B5B3B1A33C0FFF1
:10051000FFFFFFFD6B5BDB6AFDC05353443133309B
:100520003620616C6C6F636174696F6E20666169FF
:100530006C656400000000002300260029002200F2
:10054000FF21000404040404040404020202020261
:100550000203030303030301020408102040800187
:1005600002040810200102040810200000000024EA
:100570000027002A0000000000250028002B0000B2
:100580000000080002010000030407000000000052
:10059000000000000103070F1F3F7F0080C0E0F054
:1005A000F8FCFE00000000003E5B4F5B3E3E6B4FE0
:1005B0006B3E1C3E7C3E1C183C7E3C181C577D57F5
:1005C0001C1C5E7F5E1C00183C1800FFE7C3E7FFA1
:1005D0000018241800FFE7DBE7FF30483A060E2634
:1005E00029792926407F050507407F05253F5A3C8C
:1005F000E73C5A7F3E1C1C08081C1C3E7F14227FCF
:1006000022145F5F005F5F06097F017F00668995A6
:100610006A606060606094A2FFA29408047E04088F
:1006200010207E201008082A1C08081C2A08081E12
:10063000101010100C1E0C1E0C30383E3830060EF8
:100640003E0E06000000000000005F0000000700F2
:100650000700147F147F14242A7F2A1223130864AE
:100660006236495620500008070300001C22410052
:100670000041221C002A1C7F1C2A08083E08080092
:100680008070300008080808080000606000201032
:100690000804023E5149453E00427F4000724949EC
:1006A00049462141494D331814127F1027454545CD
:1006B000393C4A49493141211109073649494936EE
:1006C000464949291E000014000000403400000083
:1006D00008142241141414141400412214080201B5
:1006E0005909063E415D594E7C1211127C7F4949E1
:1006F00049363E414141227F4141413E7F4949497E
:10070000417F090909013E414151737F0808087F73
:1007100000417F41002040413F017F081422417F7A
:10072000404040407F021C027F7F0408107F3E4112
:1007300041413E7F090909063E4151215E7F091969
:100740002946264949493203017F01033F40404081
:100750003F1F2040201F3F4038403F631408146370
:1007600003047804036159494D43007F414141022C
:1007700004081020004141417F040201020440406E
:10078000404040000307080020545478407F28442C
:1007900044383844444428384444287F3854545416
:1007A0001800087E090218A4A49C787F0804047825
:1007B00000447D40002040403D007F102844000060
:1007C000417F40007C047804787C08040478384435
:1007D000444438FC1824241818242418FC7C0804E9
:1007E0000408485454542404043F44243C4040200A
:1007F0007C1C2040201C3C4030403C4428102844B5
:100800004C9090907C4464544C4400083641000065
:1008100000770000004136080002010204023C2675
:1008200023263C1EA1A161123A4040207A3854543C
:1008300055592155557941225454784221555478BF
:100840004020545579400C1E527212395555555955
:10085000395454545939555454580000457C41007A
:1008600002457D420001457C407D1211127DF02839
:100870002528F07C545545002054547C547C0A09AA
:100880007F4932494949323A4444443A324A484815
:10089000303A4141217A3A42402078009DA0A07D23
:1008A0003D4242423D3D4040403D3C24FF242448DF
:1008B0007E4943662B2FFC2F2BFF0929F620C08889
:1008C0007E090320545479410000447D413048485A
:1008D0004A32384040227A007A0A0A727D0D193174
:1008E0007D2629292F28262929292630484D4020D0
:1008F000380808080808080808382F10C8ACBA2FAC
:10090000102834FA00007B000008142A1422221454
:100910002A14085500550055AA55AA55AAFF55FF97
:1009200055FF000000FF00101010FF00141414FF0A
:10093000001010FF00FF1010F010F0141414FC0051
:100940001414F700FF0000FF00FF1414F404FC145B
:100950001417101F10101F101F1414141F00101054
:1009600010F0000000001F101010101F10101010C9
:10097000F010000000FF101010101010101010FFE9
:1009800010000000FF140000FF00FF00001F101700
:100990000000FC04F414141710171414F404F400E9
:1009A00000FF00F714141414141414F700F71414AF
:1009B00014171410101F101F141414F4141010F036
:1009C00010F000001F101F0000001F14000000FCAA
:1009D000140000F010F01010FF10FF141414FF1496
:1009E0001010101F00000000F010FFFFFFFFFFF0CD
:1009F000F0F0F0F0FFFFFF0000000000FFFF0F0F1E
:100A00000F0F0F3844443844FC4A4A4A347E0202ED
:100A10000606027E027E0263554941633844443C27
:100A200004407E201E2006027E020299A5E7A599B9
:100A30001C2A492A1C4C7201724C304A4D4D3030F0
:100A400048784830BC625A463D3E494949007E01DB
:100A500001017E2A2A2A2A2A44445F444440514AFA
:100A6000444040444A51400000FF0103E080FF0041
:100A70000008086B6B083612362436060F090F067D
:100A8000000018180000001010003040FF010100A5
:100A90001F01011E00191D1712003C3C3C3C0000C8
:100AA000000000007822FB1B11241FBECFEFD8E00E
:100AB000DEBFCDBF12E0A0E0B1E0E2E7FDE402C09E
:100AC00005900D92A631B107D9F723E0A6E1B2E077
:100AD00001C01D92A53EB207E1F715E0C3E5D5E0E0
:100AE00004C02197FE010E943B23C235D107C9F7FC
:100AF0000E940A1C0C94AC260C940000CF92DF924A
:100B0000EF92FF920F931F93CF93DF936C017A01C3
:100B10008B01C0E0D0E0CE15DF0581F0D8016D91EA
:100B20008D01D601ED91FC910190F081E02DC6017F
:100B30000995892B11F02196EECF7E01C701DF9137
:100B4000CF911F910F91FF90EF90DF90CF9008957C
:100B5000FC01538D448D252F30E0842F90E0821BC3
:100B6000930B541710F0CF96089501970895FC0148
:100B7000918D828D981761F0828DDF01A80FB11DD4
:100B80005D968C91928D9F5F9F73928F90E00895F8
:100B90008FEF9FEF0895FC01918D828D981731F0B2
:100BA000828DE80FF11D858D90E008958FEF9FEF06
:100BB0000895FC01918D228D892F90E0805C9F4FDC
:100BC000821B91098F739927089589EC92E00E9406
:100BD000D90521E0892B09F420E0822F0895FC013A
:100BE000848DDF01A80FB11DA35ABF4F2C91848DB6
:100BF00090E001968F739927848FA689B7892C93EB
:100C0000A089B1898C91837080648C93938D848D3D
:100C1000981306C00288F389E02D80818F7D808340
:100C20000895EF92FF920F931F93CF93DF93EC0100
:100C300081E0888F9B8D8C8D981305C0E889F98998
:100C4000808185FD26C0F62E0B8D10E00F5F1F4FB3
:100C50000F731127E02E8C8DE8120CC00FB607FC25
:100C6000FACFE889F989808185FFF5CFCE010E940E
:100C7000EF05F1CF8B8DFE01E80FF11DE35AFF4F19
:100C8000F0829FB7F8940B8FEA89FB89808180629C
:100C90000AC09FB7F894EE89FF896083E889F989D3
:100CA00080818370806480839FBF81E090E0DF91CA
:100CB000CF911F910F91FF90EF900895CF93DF9305
:100CC000EC01888D8823C9F0EA89FB89808185FD44
:100CD00005C0A889B9898C9186FD0FC00FB607FCA5
:100CE000F5CF808185FFF2CFA889B9898C9185FFE6
:100CF000EDCFCE010E94EF05E7CFDF91CF910895B0
:100D000080E090E0892B29F00E94E50581110C9488
:100D100000000895FC0177FDB9C0808591856817B2
:100D200079070CF0B3C057FDB1C082859385481791
:100D300059070CF008958689823079F48481958171
:100D4000DC01A61BB70BBD0161507109868197813B
:100D5000DC01A41BB50BAD010EC0833009F084C0CB
:100D600064277527CA018627972768277927468130
:100D70005781481B590B415051092130310531F041
:100D800048F12230310509F44AC00895CA0157FDDF
:100D900007969C01A3E035952795AA95E1F7A481D4
:100DA000B5812A9FC0012B9F900D3A9F900D112471
:100DB000680F791F078CF0A1E02DE60FF71F477031
:100DC000552781E090E001C0880F4A95EAF79081AD
:100DD000892B48C0CA0157FD07969C0193E03595C1
:100DE00027959A95E1F7A481B5812A9FC0012B9F91
:100DF000900D3A9F900D1124680F791F078CF0A178
:100E0000E02DE60FF71F4770552781E090E001C005
:100E1000880F4A95EAF780959081892323C0CA01FB
:100E200057FD07969C0183E0359527958A95E1F754
:100E3000A481B5812A9FC0012B9F900D3A9F900DF0
:100E40001124680F791F078CF0A1E02DE60FF71F22
:100E50004770552781E090E001C0880F4A95EAF776
:100E60009081892780830895813009F086CF642797
:100E70007527462757276427752784819581DC01CC
:100E8000A61BB70BBD016150710977CF0895089576
:100E9000FC016370668B8481958126813781613086
:100EA00039F0633029F0918780873387228708954E
:100EB000318720879387828708956F927F928F92E0
:100EC0009F92AF92BF92CF92DF92EF92FF920F93D9
:100ED0001F93CF93DF93EC014B015A016901380155
:100EE000E881F9810284F385E02D0995E881F98193
:100EF0000288F389E02D87019601A501B401CE0196
:100F00000995A501460D571D41505109E881F98108
:100F10000288F389E02D9601B401CE010995E8819C
:100F2000F9810088F189E02D9301A501B401CE017A
:100F30000995C80CD91CB60161507109E881F98185
:100F40000088F189E02D9301A501CE010995E88182
:100F5000F9810688F789E02DCE01DF91CF911F91AD
:100F60000F91FF90EF90DF90CF90BF90AF909F9048
:100F70008F907F906F9009948F929F92AF92BF92C3
:100F8000CF92DF92EF92FF920F931F93CF93DF9355
:100F90004C016B015A01E901DC01ED91FC916217F2
:100FA000730781F40417150724F48B2D5801042FBF
:100FB000182F0A191B0998012F5F3F4F048CF58DDC
:100FC000E02D12C04017510709F52617370724F402
:100FD0008D2D6901C62FD82F9E012C193D092F5F39
:100FE0003F4F068CF78DE02D8701A501B601C401A6
:100FF0000995DF91CF911F910F91FF90EF90DF90B6
:10100000CF90BF90AF909F908F9008950284F3850A
:10101000E02D0995D401ED91FC910488F589E02D2E
:101020009E01A501B601C4010995D401ED91FC9181
:101030000688F789E02DC401DF91CF911F910F91B0
:10104000FF90EF90DF90CF90BF90AF909F908F90E8
:101050000994EF92FF920F931F93DC011A960D9162
:101060001C911B9718962D913C911997ED91FC912D
:1010700000A0F1A1E02D7B0140E050E060E070E0D5
:1010800009951F910F91FF90EF9008954F925F92F5
:101090006F927F928F929F92AF92BF92CF92DF9288
:1010A000EF92FF920F931F93CF93DF936C012B016D
:1010B0005A0139014801DC01ED91FC910284F3856C
:1010C000E02D0995E201640C751CD601ED91FC91AF
:1010D000C615D7055CF40088F189E02D87019401DD
:1010E000A501BE01C60109952196EFCF0688F789B3
:1010F000E02DC601DF91CF911F910F91FF90EF90EE
:10110000DF90CF90BF90AF909F908F907F906F9027
:101110005F904F9009948F929F92AF92BF92CF921F
:10112000DF92EF92FF920F931F93CF93DF93EC0127
:101130005B014A016901E881F9810284F385E02DB0
:10114000099595012C0D3D1D21503109E881F9814A
:101150000488F589E02D78018401A401B501CE0150
:101160000995E881F9810688F789E02DCE01DF91A4
:10117000CF911F910F91FF90EF90DF90CF90BF9094
:10118000AF909F908F9009948F929F92AF92BF9251
:10119000CF92DF92EF92FF920F931F93CF93DF9343
:1011A000EC015B014A0169017801E881F98102845F
:1011B000F385E02D0995C80CD91C86010150110951
:1011C000E881F9810488F589E02D9501A401B50134
:1011D000CE010995E881F9810688F789E02DCE01D5
:1011E000DF91CF911F910F91FF90EF90DF90CF9003
:1011F000BF90AF909F908F9009940895EF92FF92C7
:101200000F931F93DC01ED91FC9100A0F1A1E02D63
:1012100009951F910F91FF90EF9008950F931F93E1
:10122000DC01ED91FC91068CF78DE02D09951F9165
:101230000F9108950F931F93DC01ED91FC91048CA5
:10124000F58DE02D09951F910F910895DC01ED9129
:10125000FC910084F185E02D09942F923F924F92EA
:101260005F926F927F928F929F92AF92BF92CF9236
:10127000DF92EF92FF920F931F93CF93DF9300D0F3
:1012800000D000D0CDB7DEB72C017E836D836A011C
:101290005901C801FC82EB824801841A950A97FE25
:1012A00003C091948194910835012D813E81621A89
:1012B000730A77FE03C0719461947108681479040D
:1012C0005CF43A2D2B2D5C01832F922F3D812E81D2
:1012D000DE82CD82C32ED22EAD81BE81AA16BB0680
:1012E0005CF43C2D2D2D6C01832F922F3D812E819E
:1012F000BE82AD82A32EB22E85012D813E81021BBE
:10130000130B1C012C183D0837FE03C031942194A7
:101310003108780117FF03C03FEFE31AF30AF59491
:10132000E794C816D9062CF08FEF9FEF9A83898334
:1013300004C0A1E0B0E0BA83A9832D813E81A2164A
:10134000B30624F1D201ED91FC910484F585E02DE2
:101350002B813C816814790424F44D815E81B601AF
:1013600003C0A6016D817E81C2010995E218F308D0
:10137000F7FE06C029813A81C20ED31EE00EF11E8F
:101380008D819E8101969E838D83D7CF26960FB641
:10139000F894DEBF0FBECDBFDF91CF911F910F91AB
:1013A000FF90EF90DF90CF90BF90AF909F908F9085
:1013B0007F906F905F904F903F902F90089585EDB4
:1013C0008093BC008091BC0084FDFCCF1092A202EF
:1013D000089540915602262F30E0240F311D21320E
:1013E0003105DCF42091A2022430C9F4FC0180E034
:1013F00090E0861758F4309156022191DC01AA5CE6
:10140000BD4FA30FB11D2C930196F3CF80915602CF
:10141000680F6093560280E0089581E0089582E0AD
:10142000089508950895E091A4028091A302E81719
:1014300030F4F0E0EB55FD4F808190E008958FEFA0
:101440009FEF08959091A4028091A302981750F401
:10145000E92FF0E0EB55FD4F208130E09F5F909346
:10146000A40202C02FEF3FEFC90108958091A302AB
:1014700090E02091A402821B91090895CF92DF92FF
:10148000EF92FF920F931F93CF93DF937C01CB01D9
:101490008A012091C802222389F0EB016B01C40E5E
:1014A000D51ECC15DD0569F06991D701ED91FC9150
:1014B0000190F081E02DC7010995F3CF642F0E94C0
:1014C000E909C801DF91CF911F910F91FF90EF9033
:1014D000DF90CF900895CF93DF931F92CDB7DEB703
:1014E00069832091C8022223D1F02091C5022032C5
:1014F00040F021E030E0FC013383228380E090E083
:1015000015C08091C602E82FF0E0EA5EFD4F998198
:1015100090838F5F8093C6028093C50205C061E00F
:10152000CE0101960E94E90981E090E00F90DF91E1
:10153000CF910895089580E090E008950F931F9350
:10154000CF93DF93DC015696EC915697E23071F021
:10155000E330E9F0E13079F5FB0114960D90BC9190
:10156000A02DA41BB50BA21BB30B18C0EC01EC8182
:10157000FD81E61BF70BBF0161507109EE81FF8110
:10158000DF01A41BB50BAD01421B530B14C0DA01E4
:10159000EC01EE81FF81E61BF70B3197F7FD0DC0E3
:1015A000EC014E815F81E417F5073CF4AF01BD010A
:1015B0000E94911702C00E94F817DF91CF911F91EE
:1015C0000F9108950F931F93DC015696EC91569757
:1015D000E23061F0E33009F1E13081F51496ED91EC
:1015E000FC911597E41BF50B319723C0DC01149691
:1015F000ED91FC911597DF01A61BB70BBD01DC0136
:101600001696ED91FC911797DF01A41BB50BAD0168
:1016100041505109621B730B11C0FA01DC0116968F
:101620004D915C911797DA01A61BB70BBD01621BA8
:10163000730BAB01BF010E94F8170CC057FD0AC025
:10164000DC011696ED91FC9117974E175F0714F485
:101650000E9491171F910F9108958F929F92AF92C0
:10166000CF92EF92FF920F931F93CF93DF93EC01F2
:10167000262F898D9A8D009709F042C06A3059F45F
:101680001D861C862D898E859F8538E0239F800DC1
:10169000911D112443C06D3009F4AAC08F8988239D
:1016A000C9F03C898C859D8546E0349F800D911D55
:1016B0001124488559854817590764F41D861C86EE
:1016C0003D898E859F8548E0349F800D911D1124B2
:1016D0009F878E87EA88FB88088919894E855F85F0
:1016E0006C857D85AD88CC88CE010E945D152C89E6
:1016F0008C859D8536E0239F800D911D11243EC071
:101700006A3079F41D861C862D89FC013896E49197
:101710008E859F852E9F800D911D11249F878E871A
:1017200067C06D3009F464C0FC01349634916317CE
:1017300008F45EC03296E491E61708F459C0462FCB
:10174000431B342FFC0132968590949047E0349FE0
:10175000800C911C1124F401329634913196E4915D
:10176000332311F0E1110DC0F4013496E4912C897A
:101770008C859D85E29F800D911D11249D878C870E
:1017800037C0F401359644915F89552319F15C897E
:10179000E32FF0E0E40FF11D47FDFA955E9FB001E5
:1017A0005F9F700D11244C855D85460F571F68851E
:1017B00079856417750774F41D861C863D89FC01C4
:1017C0003896E4918E859F853E9F800D911D112452
:1017D0009F878E87EA88FB88088919894E855F85EF
:1017E0006C857D85AD88CC88CE010E945D15BCCF0F
:1017F00081E090E0DF91CF911F910F91FF90EF90EA
:10180000CF90AF909F908F900895DC01ED91FC9167
:101810000190F081E02D09946115710579F0FB01CB
:1018200001900020E9F73197AF01461B570BDC010F
:10183000ED91FC910280F381E02D099480E090E02D
:1018400008958F929F92AF92BF92EF92FF920F9363
:101850001F93CF93DF93CDB7DEB7A1970FB6F89460
:10186000DEBF0FBECDBF7C01FA01CB0119A2223031
:1018700008F42AE08E010F5D1F4F822E912CA12CBF
:10188000B12CBF01A50194010E941923F901CA01DD
:10189000015011096A3014F4605D01C0695CD8011F
:1018A0006C93232B242B252B61F7B801C7010E94D1
:1018B0000C0CA1960FB6F894DEBF0FBECDBFDF9122
:1018C000CF911F910F91FF90EF90BF90AF909F909D
:1018D0008F9008957F928F929F92AF92BF92CF92F6
:1018E000DF92EF92FF920F931F93CF93DF938C01C0
:1018F0006A017B01722E9A01AB01C701B6010E94F9
:101900007F25882319F066E771E027C0460157015B
:10191000E894B7F82FEF3FEF4FE75FE7C501B40159
:101920000E947F2581110DC02FEF3FEF4FE75FE74A
:10193000C501B4010E94AE2318161CF46AE771E0D9
:101940000CC02FEF3FEF4FE75FE4C701B6010E94E5
:101950000D25181694F46EE771E0C801DF91CF9160
:101960001F910F91FF90EF90DF90CF90BF90AF90BD
:101970009F908F907F900C940C0C2FEF3FEF4FE7D0
:101980005FECC701B6010E94AE2387FDE4CF20E0E3
:1019900030E0A901C701B6010E94AE2387FF0AC04B
:1019A0006DE2C8010E94050CEC01F7FAF094F7F81B
:1019B000F09402C0C0E0D0E0B12C60E070E080E0C4
:1019C0009FE37B1441F020E030E040E251E40E94CC
:1019D000B323B394F6CFA70196010E9442236B0173
:1019E0007C010E942C244B015C012AE0AB01BC016C
:1019F000C8010E94210CC80FD91F7720C1F1C50171
:101A0000B4010E945B249B01AC01C701B6010E9496
:101A100041236B017C016EE2C8010E94050CC80FD6
:101A2000D91F20E030E040E251E4C701B6010E9436
:101A300012254B015C010E942C246B01E12CF12C3E
:101A40002AE0B701A601C8010E94210CC80FD91FC6
:101A5000C701B6010E945B249B01AC01C501B40122
:101A60000E9441236B017C017A947110DACFCE0180
:101A7000DF91CF911F910F91FF90EF90DF90CF906A
:101A8000BF90AF909F908F907F90089562E871E033
:101A90000C940C0C0C940C0C1F920F920FB60F921E
:101AA00011242F933F934F935F936F937F938F9363
:101AB0009F93AF93BF93EF93FF9389EC92E00E94C3
:101AC000EF05FF91EF91BF91AF919F918F917F9122
:101AD0006F915F914F913F912F910F900FBE0F909B
:101AE0001F9018951F920F920FB60F9211242F93EB
:101AF0008F939F93EF93FF93E091D902F091DA02D5
:101B00008081E091DF02F091E00282FD12C09081BD
:101B10008091E2028F5F8F732091E302821751F070
:101B2000E091E202F0E0E753FD4F958F8093E202EF
:101B300001C08081FF91EF919F918F912F910F9024
:101B40000FBE0F901F90189508958EBD00000DB424
:101B500007FEFDCF8EB508951F93CF93DF93FC0151
:101B6000858D968D009729F1162FEF0121A131E087
:101B70003093C8022093C7021092C6021092C50289
:101B8000DC01ED91FC910190F081E02D60E0099580
:101B90008D8D9E8DDC01ED91FC910190F081E02D09
:101BA000612F09958D8D9E8DDF91CF911F910C94A2
:101BB000F50FA5A5B6A59C9183A9809589238C9343
:101BC000838D948D892B31F0862FDF91CF911F91DA
:101BD0000C94A50D28E030E080E8A1A5B2A591A95C
:101BE000462F482319F04C91942B03C04C919095AB
:101BF00094239C93A3A5B4A54C9192A9942B9C9358
:101C0000A3A5B4A54C9192A9909594239C938695F5
:101C10002150310911F7DF91CF911F9108958CBDAB
:101C20009DBD08951F93CF93DF93EC01162F8D8DEB
:101C30009E8D892BB1F02DA93EA94FA958AD60E02A
:101C400074E284EF90E00E941923DA01C901409701
:101C5000A109B109B695A795979587958093B80086
:101C60000FC08B8D9C8D892B21F08EAD9FAD0E9476
:101C70000F0EEFA5F8A990818CA980958923808308
:101C8000111102C066EA01C067EACE010E94AC0DE4
:101C90008D8D9E8D892BB1F029AD3AAD4BAD5CADEC
:101CA00060E074E284EF90E00E941923DA01C90138
:101CB0004097A109B109B695A79597958795809307
:101CC000B80006C0EFA5F8A990818CA9892B808364
:101CD000DF91CF911F9108951F920F920FB60F922F
:101CE00011242F933F934F935F936F937F938F9321
:101CF0009F93AF93BF93EF93FF938091B900887F39
:101D0000803609F49CC068F5883209F45BC090F411
:101D1000803109F454C038F4882309F4F6C08830BF
:101D200009F44DC0F6C0883109F44CC0803209F482
:101D30005DC0EFC0803409F468C048F4803309F412
:101D400055C0883309F0E5C08093A002D8C0803523
:101D500009F44FC0883509F45DC0883409F0D9C052
:101D6000D6C0883909F4C7C0A8F4883709F467C019
:101D700038F4883609F463C0803709F460C0C9C0FC
:101D8000883809F4B8C0803909F45FC0803809F098
:101D9000C0C05BC0803B09F486C038F4803A09F4C7
:101DA00066C0883A09F47FC0B4C0803C09F4A7C07B
:101DB000883C09F4A4C0883B09F48AC0AAC0809179
:101DC0009D0210C090919F0280919E02981770F51D
:101DD000E0919F0281E08E0F80939F02F0E0E45833
:101DE000FD4F80818093BB0085EC86C08093A0026C
:101DF0008EC0E0919F0281E08E0F80939F028091C0
:101E0000BB00F0E0E458FD4F808390919F028091E9
:101E10009E026EC0E0919F0281E08E0F80939F0230
:101E20008091BB00F0E0E458FD4F80838091A102D7
:101E300081116DC081E080939C0284EA61C083E0DF
:101E40008093A20210927802CFCF809178028032E4
:101E500008F051C0E091780281E08E0F8093780203
:101E60008091BB00F0E0E85AFD4F8083BDCF85EC48
:101E70008093BC001092A20280917802803230F4EC
:101E8000E0917802F0E0E85AFD4F1082609178020C
:101E900070E0E091D403F091D50388E592E00995D4
:101EA0001092780236C084E08093A202109257020A
:101EB00010925602E091D603F091D70309958091D4
:101EC0005602811105C081E08093560210923602BD
:101ED000E091570281E08E0F80935702F0E0EA5CB8
:101EE000FD4F80818093BB009091570280915602F4
:101EF000981708F479CF85E88093BC000AC085EC78
:101F00008093BC001092A20204C01092A0020E9412
:101F1000DF09FF91EF91BF91AF919F918F917F91D9
:101F20006F915F914F913F912F910F900FBE0F9046
:101F30001F9018953091C502313208F04AC0809147
:101F4000A2028111FCCF9091C70222E02093A2024D
:101F50006093A1022FEF2093A00210929F02309372
:101F60009E02E6E1F2E0ACE7B2E020E0321721F0B9
:101F700041914D932F5FFACF10929D0220919D02C7
:101F8000990F922B90939D0290919C02913061F455
:101F900010929C0290919D029093BB009091BC0086
:101FA00093FDF8CF95EC01C095EE9093BC00909115
:101FB000A2029230E1F39091A0029F3F79F08091CC
:101FC000A002803241F08091A002803331F084E0A1
:101FD00005C081E003C082E001C083E01092C60228
:101FE0001092C5021092C802089561E00C949A0FF5
:101FF000DF92EF92FF920F931F93CF93DF93D82E30
:10200000D92FC62F8091A2039091A303009709F4C2
:1020100054C02091A60331E03093C8022093C70238
:102020001092C6021092C502DC01ED91FC91019064
:10203000F081E02D60E00995ED2CFD2E11E0D1E05E
:102040008091A2039091A303CC2371F11032C8F0C8
:102050000E94F50F8091A603D093C8028093C70217
:102060001092C6021092C5028091A2039091A30320
:10207000DC01ED91FC910190F081E02D60E009958B
:1020800011E08091A2039091A303F7016491DC0118
:10209000ED91FC910190F081E02D09951F5FC150F9
:1020A000BFEFEB1AFB0ACCCFDF91CF911F910F91BD
:1020B000FF90EF90DF900C94F50FE091B203F09158
:1020C000B30390818091B8038095892380830D2D7F
:1020D0001D2FCC2309F439C0F80184912091A0036D
:1020E0003091A103232B31F00E94A50DC1500F5F49
:1020F0001F4FEFCF28E030E040E8E091AE03F091D1
:10210000AF039091B603582F542319F05081952BAB
:1021100003C05081909595239083E091B003F09196
:10212000B10350819091B703952B9083E091B00358
:10213000F091B10350819091B703909595239083CE
:10214000469521503109C9F6D1CFDF91CF911F912A
:102150000F91FF90EF90DF900895EF92FF920F9311
:102160001F93CF93DF938091A2039091A303892BB8
:10217000D1F02091BA033091BB034091BC03509140
:10218000BD0360E074E284EF90E00E941923DA015D
:10219000C9014097A109B109B695A795979587956B
:1021A0008093B80016C08091A0039091A103892B61
:1021B00031F08091C3039091C4030E940F0EE0910F
:1021C000B403F091B50390818091B9038095892380
:1021D000808365E08EE395E00E94F80F60918903AB
:1021E000615085E893E00E94AC0D20918B03309103
:1021F0008C03C901079697FD079633E0959587955F
:102200003A95E1F72091890330918A03829F8001FA
:10221000839F100D929F100D1124C091A403D091A3
:10222000A5038091A2039091A3030C0F1D1F00979B
:1022300009F44CC02091A60331E03093C8022093EA
:10224000C7021092C6021092C502DC01ED91FC910A
:102250000190F081E02D60E40995FF24F394EE24D1
:10226000E3948091A2039091A3030C171D0759F1E9
:10227000BFE1BF15D0F40E94F50F8091A603E09254
:10228000C8028093C7021092C6021092C5028091C4
:10229000A2039091A303DC01ED91FC910190F081E8
:1022A000E02D60E40995FF24F3948091A2039091BE
:1022B000A3036991DC01ED91FC910190F081E02D87
:1022C0000995F394CECF0E94F50F41C0E091B2037F
:1022D000F091B30390818091B803892B80830C1710
:1022E0001D07A9F189912091A0033091A103232B0F
:1022F00019F00E94A50DF3CF28E030E040E8E0910E
:10230000AE03F091AF039091B603582F542319F008
:102310005081952B03C05081909595239083E09137
:10232000B003F091B10350819091B703952B908346
:10233000E091B003F091B10350819091B703909573
:1023400095239083469521503109C9F6C8CF8091D5
:10235000A2039091A303892BD1F02091BE03309169
:10236000BF034091C0035091C10360E074E284EF69
:1023700090E00E941923DA01C9014097A109B1092F
:10238000B695A795979587958093B80017C0E0916B
:10239000B403F091B50390818091B903892B8083B8
:1023A0008091A0039091A103892B41F0DF91CF91FF
:1023B0001F910F91FF90EF900C94A40DDF91CF919E
:1023C0001F910F91FF90EF900895CF92DF92EF92BF
:1023D000FF920F931F93CF93DF936B01770FEE085C
:1023E000FF08F7FE1BC0EC016DE20E94050C8C019A
:1023F00044275527BA014C195D096E097F092AE067
:10240000CE010E94210C800F911FDF91CF911F916F
:102410000F91FF90EF90DF90CF9008952AE0B701E1
:10242000A601DF91CF911F910F91FF90EF90DF9068
:10243000CF900C94210C20918B0330918C03C90117
:10244000079697FD079623E0959587952A95E1F7DE
:102450002091890330918A03829FA001839F500DB0
:10246000929F500D112460E070E08091A403909140
:10247000A5030C94A5266F927F928F929F92AF92A4
:10248000BF92CF92DF92EF92FF920F931F93CF9361
:10249000DF9300D0CDB7DEB78C016B01DC0116965F
:1024A0008C91169717969C91179789839A83ED9034
:1024B000FC901197E114F10409F48AC019964C912B
:1024C00050E0F701848195818417950710F480E02E
:1024D000F9C0808191E09093C8028093C702109266
:1024E000C6021092C50220E0BE016F5F7F4FC70198
:1024F0000E94AD18882359F3F701848195810297D2
:1025000030F38091A2028111FCCFD7012C9181E0A0
:102510008093A2028093A1029FEF9093A002109259
:102520009F0280939E0280939D0290919D02822F34
:10253000880F892B80939D0280919C02813061F4E9
:1025400010929C0280919D028093BB008091BC0000
:1025500083FDF8CF85EC01C085EE8093BC008091AF
:10256000A2028130E1F380919F02823018F49091B1
:102570009F0201C092E0ACE7B2E0E5EAF2E080E061
:10258000891721F02D9121938F5FFACF1092A40229
:102590008093A302823009F09ACFF7018181928162
:1025A000DC01ED91FC910284F385E02D0995F801A1
:1025B0008387D70111968D919C911297DC01ED9143
:1025C000FC910284F385E02D0995F80184875EC0B3
:1025D000D8011296ED90FC901397E114F10409F4E0
:1025E00076CF14962D913C9115972115310511F454
:1025F000806809C02230310511F48F7704C0213082
:10260000310511F4806C8983F8016184712CD70144
:102610008D919C911197892B41F01296ED91FC912F
:102620001397808191810E940F0E60E0F7018385EE
:102630000E94D018CE0101964C015C01C501881999
:10264000990986159705D8F06FEFC7010E945619B2
:10265000D8011B968C936FEFC7010E945619F801A1
:10266000848761E0D7011B968C910E94D018F701F6
:1026700080819181892B51F00E94A40D07C0D50162
:102680006D915D01C7010E945619D8CF81E0F80114
:10269000928591110AC0248530E0322F2227D6017D
:1026A00011963C932E9393850AC0F801238530E060
:1026B000322F2227D60111963C932E939485292BF5
:1026C0002D933C930F900F90DF91CF911F910F911D
:1026D000FF90EF90DF90CF90BF90AF909F908F9042
:1026E0007F906F9008958F929F92AF92BF92CF92FA
:1026F000DF92EF92FF920F931F93CF93DF9300D05F
:10270000CDB7DEB78C01DC011A968C911A9788231D
:1027100019F01C964C9302C0F8014387452F562FA1
:10272000672F7727882321F0D8011B964C9302C08E
:10273000F8014487D80116968C91169717969C91AC
:10274000179789839A83CD90DC901197C114D10497
:10275000B9F11996EC90F12C97012E5F3F4FF601DD
:10276000848195818217930710F480E082C0808174
:1027700091E09093C8028093C7021092C602109213
:10278000C502E114F10451F4B801655F7F4F21E007
:1027900042E050E0C6010E94AD186BC0F601818195
:1027A0009281DC01ED91FC910280F381E02DA70183
:1027B000BE016F5F7F4F0995E816F906B1F6E4CFC9
:1027C000F801E280F380E114F10479F2248135818B
:1027D0002115310511F48F770AC02230310511F42B
:1027E000806805C02130310519F48F7780648983B2
:1027F000D8011996AC90B12CF70180819181892B79
:1028000039F00280F381E02D808191810E940F0ECA
:1028100060E0D7011B968C910E94D018FE01319682
:102820004F016F01C601881999098A159B05C8F0E7
:10283000D8011B966C91C7010E945619F801648556
:10284000C7010E94561961E0D7011B968C910E9426
:10285000D018F70180819181892B51F00E94A40D3D
:1028600007C0D6016D916D01C7010E945619DACFDC
:1028700081E00F900F90DF91CF911F910F91FF900A
:10288000EF90DF90CF90BF90AF909F908F90089582
:10289000CF92DF92EF92FF92CF93DF93B0917903C3
:1028A000882311F0AB2F01C0A0E080917A0390E063
:1028B000880F991F8C5C9A4FC0907F03D090800343
:1028C000E0908103F090820320E030E0FC01C591AC
:1028D000D491E881EB23A90160E070E0EA130CC019
:1028E0002F5F3F4F4C155D056E057F0578F33FEF79
:1028F0002FEF8FEF9FEF03C0322F252FCB01632FD8
:10290000722FDF91CF91FF90EF90DF90CF900895DD
:10291000833081F028F4813099F08230A1F008955D
:102920008730A9F08830B9F08430D1F480918000EC
:102930008F7D03C0809180008F7780938000089501
:1029400084B58F7702C084B58F7D84BD0895809152
:10295000B0008F7703C08091B0008F7D8093B0006E
:102960000895CF93DF93282F30E0F901E158FA4F13
:102970008491F901E95AFA4FD491F901ED5BFA4FCC
:10298000C491CC2391F081110E948814EC2FF0E0C7
:10299000EE0FFF1FEC5CFA4FA591B491EC91ED2383
:1029A00081E090E021F480E002C080E090E0DF91DF
:1029B000CF9108953F924F925F926F927F928F9244
:1029C0009F92AF92BF92CF92DF92EF92FF920F93BE
:1029D0001F93CF93DF9300D000D000D0CDB7DEB7E8
:1029E0002C013B014A015901C901079697FD079641
:1029F0009C0193E0359527959A95E1F73C832B83CD
:102A0000C12CD12CE12CF12C312CC3018E0D9F1D3A
:102A10009A838983E016F106C4F51E821D822D81FA
:102A20003E812A153B054CF5C90187709927892BF2
:102A300011F0330C0EC0ED81FE81F7FD379683E077
:102A4000F595E7958A95E1F7EC0DFD1DE80DF91D6B
:102A5000349037FE0CC021E030E049815A816D810D
:102A60007E81640D751D85E893E00E9426098D81A5
:102A70009E8101969E838D83D2CF9FEFE91AF90A3A
:102A80002B813C81C20ED31EC0CF26960FB6F89480
:102A9000DEBF0FBECDBFDF91CF911F910F91FF9091
:102AA000EF90DF90CF90BF90AF909F908F907F90EE
:102AB0006F905F904F903F9008952F923F924F926A
:102AC0005F926F927F928F929F92AF92BF92CF92BE
:102AD000DF92EF92FF920F931F93CF93DF93CDB7C7
:102AE000DEB76B970FB6F894DEBF0FBECDBF9B8FDE
:102AF0008A8F1B014A01D22E198708873701A982C4
:102B0000DC0159962D913C915A972115310509F018
:102B1000FFC018968D919C911997681779070CF052
:102B2000E7C11A968D919C911B97481759070CF095
:102B3000DFC1EC2DF0E0FB83EA839B0146E0C49EFD
:102B4000200D311D11243D872C87121613060CF021
:102B5000CFC16A2D70E07B876A8783E0660F771F9D
:102B60008A95E1F77F876E87CB01880D991D18162E
:102B700019060CF0BDC158968C91811104C08FEAE2
:102B80008D1508F4D394AA8DBB8DED91FC9111970E
:102B90000284F385E02DCD010995B5E0DB9EC001EF
:102BA0001124EC2DF0E0F98BE88B91012B5F3F4F66
:102BB0003B8B2A8B3D822C822101AC0142195309A7
:102BC0005D8B4C8B7981672F70E07F8B6E8BC4019E
:102BD0000896998F888FEC89FD89E40DF51DED55D8
:102BE000FA4FD49054019F828E82D0FE16C0AA8DD7
:102BF000BB8DED91FC91B1E0CB1209C02981213050
:102C000031F40484F585E02D2885398519C00684C2
:102C1000F785E02DE884F9841DC04885598546155F
:102C2000570519F1AA8DBB8DED91FC91B1E0CB1246
:102C30000DC02981213051F40484F585E02D9301E4
:102C4000A501B2018A8D9B8D09950FC00684F78579
:102C5000E02D73010A851B852A813B814E815F81AE
:102C60006C817D818A8D9B8D0995D6943FEFA31A47
:102C7000B30A4E815F816E897F89460F571F5F833C
:102C80004E83888D998DA816B90609F0AECF9FEFB7
:102C9000491A590AAC81BD81E889F989AE0FBF1F75
:102CA000BD83AC832A893B894216530609F093CF32
:102CB000488559854615570509F4F8C0AA8DBB8D7E
:102CC000ED91FC91B1E0CB1211C02981213071F45A
:102CD000B1016B5F7F4F0088F189E02D830128E00F
:102CE00030E0A4018A8D9B8D0995E0C06C857D85BF
:102CF0004A815B81641B750B0684F785E02D7301A7
:102D00000E851F859A01A4018A8D9B8D0995CEC0E1
:102D1000F9013496E491DE1AF90132968591949185
:102D2000B7E0DB9E800D911D1124F90125913491AE
:102D30003B8B2A8BFC01259134915901FC01329681
:102D40005490319634913C87329674903196149118
:102D500041E04C1518F05981523068F0672D072C6E
:102D6000000C770B7D836C83812F012E000C990B57
:102D70009B838A8304C01B821A821D821C82AA8DB7
:102D8000BB8DED91FC9111970284F385E02DCD016F
:102D90000995412CD12C612CF981EF2FF0E0FF83B4
:102DA000EE832C2D30E03B872A87A401410F511D73
:102DB00017FD5A955F8B4E8BB101670D711D77FC26
:102DC0007A95798F688F7C85671608F06FC0262DFD
:102DD00030E04A815B81420F531FAE81BF81A49FC7
:102DE000C001A59F900DB49F900D1124F401E80F30
:102DF000F91FF98BE88B842D712C4E895F89420F66
:102E0000531F5D8B4C8B751408F04DC051E0580F6B
:102E10005E87877041F4C5010196EA89FB89EA0D56
:102E2000FB1DD4905C01D7FE3AC061E0C61216C00B
:102E30007981713099F4AA8DBB8DED91FC91119738
:102E40000484F585E02D288539854C895D89688D58
:102E5000798D670D711DCD01099521C08C819D81F2
:102E6000870D911DEA85FB858E9FB0018F9F700DA8
:102E70009E9F700D1124620D731DAA8DBB8DED9167
:102E8000FC9111970684F785E02DE884F9840E8182
:102E90001F812A853B8548895989CD010995DD0C1B
:102EA00073948E85B0CF450C63948DCFAA8DBB8D66
:102EB000ED91FC9111970688F789E02DCD016B9675
:102EC0000FB6F894DEBF0FBECDBFDF91CF911F913B
:102ED0000F91FF90EF90DF90CF90BF90AF909F90B9
:102EE0008F907F906F905F904F903F902F900994BC
:102EF0006B960FB6F894DEBF0FBECDBFDF91CF91BA
:102F00001F910F91FF90EF90DF90CF90BF90AF9007
:102F10009F908F907F906F905F904F903F902F90F9
:102F200008950F931F93CF93DF9377FF04C0260F6D
:102F3000371F60E070E0DC011496CD91DC911597AD
:102F4000FB01E20FF31FCE17DF071CF49E01261BC7
:102F5000370B121613060CF046C0FA0157FD3796D0
:102F6000DF01E3E0B595A795EA95E1F7AC9FF001A5
:102F7000AD9FF00DBC9FF00D11246E0F7F1FDC0183
:102F80005F96ED91FC919097E60FF71F47705527DC
:102F900081E090E001C0880F4A95EAF7482F0130A0
:102FA000110539F078F002301105E9F42E0F3F1FBA
:102FB00013C02E0F3F1FE217F307A9F08081842B67
:102FC0008193F9CF80952E0F3F1FE217F30759F039
:102FD000908198239193F9CFE217F30721F0808134
:102FE00084278193F9CFDF91CF911F910F9108959D
:102FF000EF92FF920F931F93CF93DF93EC0177FD36
:10300000A5C0EC80FD806E157F050CF09FC057FFBA
:1030100004C0240F351F40E050E08E819F81FA01EB
:10302000E20FF31F8E179F071CF49C01241B350B26
:10303000121613060CF08AC0922F842F869586955F
:1030400086958E9DD0018F9DB00D11246A0F7B1F38
:10305000AF8DB8A1A60FB71F4770B1F188E0841BF0
:10306000482F682F70E0FB01E556FA4FE4912817CE
:1030700098F4621B71092FEF30E002C03595279557
:103080006A95E2F7E2230130110549F078F0023049
:10309000110509F05BC00EC00130110519F48C91C7
:1030A000E82B0AC00130110508F049C0E0958C9169
:1030B000E82302C08C91E827EC93941708F446C0EB
:1030C0002C813D81A20FB31FE92FE41BE830F8F0FB
:1030D0000230110561F48E2F9C9190959C932C8168
:1030E0003D81A20FB31F88508830B0F70FC081E038
:1030F0000115110509F480E081959E2F8C932C8198
:103100003D81A20FB31F98509830C0F7E770EE23AF
:10311000E9F0F0E0ED56FA4FE4910130110539F095
:1031200048F00230110591F48C91E82706C08C918B
:10313000E82B03C0E0958C91E823EC9307C00230A4
:10314000110509F4B7CFAE0DBF1DBECFDF91CF91F2
:103150001F910F91FF90EF900895FF920F931F938F
:10316000CF93DF93EC018A01F22E89819A81DC01F1
:10317000ED91FC910280F381E02D09950817190764
:1031800039F46F2D89819A810E949A0F91E0811103
:1031900090E0892FDF91CF911F910F91FF900895BB
:1031A0001F93CF93DF93282F30E0F901E158FA4FB6
:1031B0008491F901E95AFA4FD491F901ED5BFA4F84
:1031C000C491CC23C1F0162F81110E948814EC2FDA
:1031D000F0E0EE0FFF1FEB58FA4FA591B4919FB7A7
:1031E000F894111104C08C91D095D82302C0EC91B1
:1031F000DE2BDC939FBFDF91CF911F91089510923A
:10320000A4021092A3021092C6021092C50210925C
:10321000A20281E08093A10210929C0261E082E10F
:103220000E94D01861E083E10E94D018E9EBF0E041
:1032300080818E7F808380818D7F808388E48093EE
:10324000B80085E48093BC0081E19AE09093D703B5
:103250008093D60382E19AE09093D5038093D403C0
:103260000895CF93DF93EC018B8181110AC00E94F6
:10327000FF1881E08B83CE010E943119982F88239B
:1032800089F0888191E09093C8028093C7021092E0
:10329000C6021092C50289819A810E94F50F91E0C1
:1032A000811190E0892FDF91CF910895CF92DF9225
:1032B000EF92FF920F931F93CF93DF93EC018881DE
:1032C0009981892B09F091C088859985892BE9F42A
:1032D00020E030E000E070E0E7E0F0E0AB01022E3B
:1032E00002C0559547950A94E2F741705527CF01E2
:1032F000821B930B01C0440F8A95EAF7042B2F5FC2
:103300003F4F2830310551F701C0062F10E087E00C
:10331000E82EF12CCC24C394D12C110F8A85877F01
:10332000E1F48D858F3F49F0B6010E2C01C0660F88
:103330000A94EAF760230E94D01861E08C850E940D
:10334000D0188E858F3F29F00E94B114892B09F087
:1033500052C060E08C850E94D0188A85877F8430B7
:10336000D9F461E08C850E94D0188D858F3F49F09B
:10337000B6010E2C01C0660F0A94EAF760230E9482
:10338000D01860E08C850E94D0188E858F3F21F088
:103390000E94B114892B89F581E0E81AF10808F040
:1033A000BCCF88859985892BF1F420E030E080E05E
:1033B000A12FB0E0E7E0F0E0AD01022E02C055958C
:1033C00047950A94E2F741705527BF01621B730BC2
:1033D00001C0440F6A95EAF7842B2F5F3F4F2830D6
:1033E000310551F70CC0812F0AC06EBD0DB407FE28
:1033F000FDCF8EB504C01160ACCF1160CDCFDF9191
:10340000CF911F910F91FF90EF90DF90CF90089593
:10341000CF93DF9390E0FC01E95AFA4F2491FC012D
:10342000ED5BFA4F8491882361F190E0880F991F3A
:10343000FC01E559FA4FC591D491FC01EB58FA4FC4
:10344000A591B491611109C09FB7F8948881209526
:1034500082238883EC912E230BC0623061F49FB7E6
:10346000F8948881322F309583238883EC912E2B1A
:103470002C939FBF06C08FB7F894E8812E2B28832A
:103480008FBFDF91CF9108958F929F92AF92BF929D
:10349000CF92DF92EF92FF926B017C010E948C1B16
:1034A0004B015C01C114D104E104F104F1F00E946C
:1034B0008C1BDC01CB0188199909AA09BB09883E3C
:1034C0009340A105B10570F321E0C21AD108E108CB
:1034D000F10888EE880E83E0981EA11CB11CC1146F
:1034E000D104E104F10419F7DDCFFF90EF90DF90F4
:1034F000CF90BF90AF909F908F900895CF92DF9222
:10350000EF92FF920F931F93CF93DF93CDB7DEB768
:10351000C054D1400FB6F894DEBF0FBECDBF2FB759
:10352000F8948091D8039091D903A091DA03B091D7
:10353000DB032FBF40917B0350917C0360917D039F
:1035400070917E038C019D01041B150B260B370B1C
:10355000B901A801403D57406105710518F48091FB
:103560008303CAC080937B0390937C03A0937D0365
:10357000B0937E0310927603109275031092740339
:10358000109273031092720362E0809177030E949D
:10359000081A61E070E080E090E00E94441A61E067
:1035A000809177030E94081A60E0809177030E945F
:1035B000D018809178038551823028F48BE291E114
:1035C0000197F1F706C064E170E080E090E00E94AE
:1035D000441A62E0809177030E94081A8091840364
:1035E00090E08230910538F0880F991F880F991F5D
:1035F00005970197F1F7F89480E00E9448146F3F17
:103600007F4F8F4F9F4F21F410928303789441C0D6
:1036100081E00E9448146F3F7F4F8F4F9F4FA1F36F
:103620008E010F5F1F4F6E018FEBC81A8EEFD80A05
:10363000780180E00E944814F701608371838283DF
:10364000938381E00E944814F70164837583868325
:103650009783F8E0EF0EF11CEC14FD0451F7789419
:1036600020E030E0F801C080D180E280F380448126
:10367000558166817781FFEFCF16DF06EF06FF06E3
:1036800031F04F3F8FEF58076807780721F4109209
:10369000830380E031C0F90183E0F595E7958A95D1
:1036A000E1F7EE58FC4F8081880FC416D506E60678
:1036B000F70608F4816080832F5F3F4F085F1F4F3C
:1036C0002832310579F62091760330E0409172037B
:1036D0008091730390E0840F911D40917403840FD7
:1036E000911D40917503840F911D99272817390763
:1036F00071F681E080938303C05CDE4F0FB6F894CF
:10370000DEBF0FBECDBFDF91CF911F910F91FF9014
:10371000EF90DF90CF9008953FB7F8948091DD034C
:103720009091DE03A091DF03B091E00326B5A89B42
:1037300005C02F3F19F00196A11DB11D3FBFBA2F43
:10374000A92F982F8827820F911DA11DB11DBC01A3
:10375000CD0142E0660F771F881F991F4A95D1F768
:1037600008951F920F920FB60F9211242F933F933B
:103770008F939F93AF93BF938091D8039091D90378
:10378000A091DA03B091DB033091DC0323E0230F37
:103790002D3720F40196A11DB11D05C026E8230F89
:1037A0000296A11DB11D2093DC038093D803909352
:1037B000D903A093DA03B093DB038091DD039091EA
:1037C000DE03A091DF03B091E0030196A11DB11DBE
:1037D0008093DD039093DE03A093DF03B093E003B7
:1037E000BF91AF919F918F913F912F910F900FBEFD
:1037F0000F901F9018958EE491E09093860380932C
:1038000085038091A4039091A503009711F00C9477
:103810001C260895CF93DF93CDB7DEB7AC970FB6D4
:10382000F894DEBF0FBECDBF789484B5826084BDAE
:1038300084B5816084BD85B5826085BD85B58160B4
:1038400085BD80916E00816080936E001092810032
:1038500080918100826080938100809181008160ED
:1038600080938100809180008160809380008091AE
:10387000B10084608093B1008091B000816080933A
:10388000B00080917A00846080937A0080917A0001
:10389000826080937A0080917A00816080937A00C0
:1038A00080917A00806880937A001092C100E09144
:1038B000D902F091DA0212E0E12EE082E091D50225
:1038C000F091D6021082E091D702F091D8028FECED
:1038D00080831092E102E091DD02F091DE0286E049
:1038E0008083E091DB02F091DC0280818061808343
:1038F000E091DB02F091DC02808188608083E091BE
:10390000DB02F091DC02808180688083E091DB0241
:10391000F091DC0280818F7D808389EC92E00E94AF
:10392000460D62E0809177030E94081A2FB7F89441
:103930008091D8039091D903A091DA03B091DB0371
:103940002FBF805D9740A109B10980937B039093BD
:103950007C03A0937D03B0937E0387E3809384036D
:1039600086E090E00E9484258C018091C703D801F5
:103970008C9386E693E012969C938E931197139600
:103980001C92139780E290E015969C938E93149767
:103990001093C6030093C5030E94FF18FF24F394FD
:1039A000F801F382C8010E943119882309F450C03C
:1039B00080E090E1A0E0B0E08093C8039093C90359
:1039C000A093CA03B093CB038AE090E0A0E0B0E0FC
:1039D0008093CC039093CD03A093CE03B093CF03F9
:1039E00080E090E0A0E0B0E48093D0039093D10316
:1039F000A093D203B093D3038091C5039091C603E3
:103A0000998B888B1B8A1A8AF98E85E090E09F8BB0
:103A10008E8BFA8EE88E40E050E160E070E0CE01DF
:103A200040960E9473138091C5039091C6039A83B8
:103A300089831C821B82FA8618861F82FB86E98690
:103A40004FE959E360E070E0CE0101960E947313E4
:103A500065E871E089EC92E00E944A0D60E971E04E
:103A600089EC92E00E944A0D65E971E089EC92E0F0
:103A70000E944A0D66EA71E089EC92E00E944A0DCC
:103A80006EEA71E089EC92E00E944A0D68EB71E009
:103A900089EC92E00E944A0D64EC71E089EC92E0BE
:103AA0000E944A0D62ED71E089EC92E00E944A0D9D
:103AB00089EC92E00E94460D8091A4039091A503A9
:103AC000892B09F0D6C220918B0330918C03C90158
:103AD000079697FD0796B3E095958795BA95E1F718
:103AE0002091890330918A03AC01429FC001439F1A
:103AF000900D529F900D11240E9484259093A50350
:103B00008093A403892B09F0B4C20AE115E0F801FF
:103B10006491611105C089EC92E00E94460D49C292
:103B200089EC92E00E9411060F5F1F4F892B79F7F5
:103B3000F2CF809178038B3008F455C28D3008F0B5
:103B40003DC26091730370E080E090E00E945D24CC
:103B50002DEC3CEC4CEC5DE30E9412256B017C01EA
:103B60006091720370E080E090E00E945D249B0110
:103B7000AC01C701B6010E9442236B017C010E9487
:103B80007E1A882309F470C2809178038C3009F47E
:103B900049C208F02FC28B3009F066C260917403ED
:103BA00070E080E090E00E945B244B015C0110918A
:103BB000750317FF0AC09B01AC0160E070E080E86C
:103BC0009FEB0E9441234B015C01612F6F7070E0FD
:103BD00080E090E00E945D242DEC3CEC4CEC5DE339
:103BE0000E941225A50194010E9442230E942524CF
:103BF0007CA36BA326E031E03AA329A311E002E005
:103C0000CB01092E000CAA0BBB0B89A79AA7ABA767
:103C1000BCA720E4222E312C80917A0290917B0265
:103C2000019690937B0280937A0291E490937C00BA
:103C300080917A00806480937A0080917A0086FD7A
:103C4000FCCF8090780080917900912CD401B82B22
:103C5000B8A7AFA38091C5039091C6039A838983C7
:103C60001C821B821A87E2E0F0E0F887EF831B8753
:103C70000987BE01605F7F4FCE0101960E943B1213
:103C80006889798983E0769567958A95E1F7660F6B
:103C9000771F660F771F072E000C880B990B0E9469
:103CA0005D242FE632E143E85AE30E9412254B01DE
:103CB0005C0161E08CE00E94081A64EF71E080E032
:103CC00090E00E94441A8091C5039091C603998B9D
:103CD000888B1B8A1A8A198F25E030E03F8B2E8B48
:103CE0001A8F088F4091C8035091C9036091CA038D
:103CF0007091CB03CE0140960E9473138091C5034F
:103D00009091C6039A8389831C821B821A8744E0A0
:103D100050E058874F831B870987BE01615E7F4F44
:103D2000CE0101960E943B126F8D78A1072E000CE8
:103D3000880B990B0E945D242B013C016091CC0300
:103D40007091CD038091CE039091CF030E945B24AC
:103D50009B01AC01C301B2010E94B3232B013C01C2
:103D600060E08CE00E94081A64EF71E080E090E06F
:103D70000E94441AA9A1BAA1ED91FD91BAA3A9A3E9
:103D8000FEA3EDA360917A0270917B0289EC92E030
:103D90000E94E51160ED71E089EC92E00E944A0D0D
:103DA0006DA17EA189EC92E00E94E51160ED71E0C9
:103DB00089EC92E00E944A0D6FA178A589EC92E00F
:103DC0000E94E51160ED71E089EC92E00E944A0DDD
:103DD00069A57AA58BA59CA50E945D24AB01BC01B9
:103DE00022E089EC92E00E946A0C60ED71E089ECBF
:103DF00092E00E944A0D22E0B701A60189EC92E010
:103E00000E946A0C60ED71E089EC92E00E944A0D1C
:103E100022E0B501A40189EC92E00E946A0C60EDF9
:103E200071E089EC92E00E944A0D22E0B301A20108
:103E300089EC92E00E946A0C60ED71E089EC92E0FE
:103E40000E944A0DA5019401C301B2010E941225EE
:103E5000AB01BC0122E089EC92E00E946A0C89EC83
:103E600092E00E94460D0E941B1210929203109243
:103E7000910310929403109293036CED71E085E826
:103E800093E00E944A0D6DA17EA185E893E00E9417
:103E9000E51185E893E00E94460D3092920320924E
:103EA0009103109294031092930362EE71E085E8FF
:103EB00093E00E944A0D6FA178A585E893E00E94E7
:103EC000E51110929203109291032AE030E03093B2
:103ED0009403209393036AEE71E085E893E00E94D7
:103EE0004A0D22E0B501A40185E893E00E946A0C26
:103EF00030929203209291034AE050E05093940351
:103F00004093930360EF71E085E893E00E944A0DCF
:103F100022E0B301A20185E893E00E946A0C1092AE
:103F200092031092910384E190E090939403809324
:103F3000930367EF71E085E893E00E944A0D6BA15F
:103F40007CA185E893E00E94E5116EEF71E085E8C1
:103F500093E00E944A0D3092920320929103A4E1D3
:103F6000B0E0B0939403A093930360E072E085E81F
:103F700093E00E944A0DC701B6010E94252485E8FE
:103F800093E00E94E51168E072E085E893E00E940A
:103F90004A0D0E94AD10E9A1FAA1E652F14009F0E4
:103FA0003BCE68E776EE8FEF9FEF0E94441A0E94A7
:103FB00080060E947E1A8111BCCD15C085518230C9
:103FC00090F46091720370917303762767277627C8
:103FD00080E090E00E945B242DEC3CEC4CEC5DE337
:103FE0000E941225CACDC12CD12C40ECE42E4FE703
:103FF000F42EC5CD85518230B8F510917403612F30
:104000006F7770E0762F662780917503682B80E0CC
:1040100090E00E945B242DEC3CEC4CEC5DE30E94B4
:1040200012251EC010917403609175036F7070E0CB
:1040300080E090E00E945D242DEC3CEC4CEC5DE3D4
:104040000E9412254B015C01612F70E080E090E03E
:104050000E945B249B01AC01C501B4010E94422374
:1040600017FFC4CD9058C2CD60E070E080EC9FE7B0
:10407000BDCD0E941B1220918B0330918C03809147
:10408000890390918A0321323105A4F0B90160546B
:10409000710977FF02C06F5F7F4F759567958255F5
:1040A000910997FD019600E410E022E530E04AE531
:1040B00052E013C0B9016052710977FF02C06F5F0F
:1040C0007F4F759567958357910997FD019600E29B
:1040D00010E023E730E04AE750E0959587950E948D
:1040E000DA1482E08093A7038091A2039091A30346
:1040F000892B31F08CE38093A6030E94FF18BEC089
:1041000061E08091AB030E94081A61E08091AC03EA
:104110000E94081A8091AB03082E000C990BFC0139
:10412000ED5BFA4FE491F0E0EE0FFF1FEB58FA4F12
:10413000259134913093B3032093B203FC01E95AE3
:10414000FA4FE491E093B8038091AC03082E000C81
:10415000990BFC01ED5BFA4FE491F0E0EE0FFF1FCD
:10416000EB58FA4FA591B491B093B503A093B40363
:10417000FC01E95AFA4FE491E093B9038C91E82BE2
:10418000EC938091A0039091A103892B09F434C092
:104190001FB7F89480917902811127C0EDE4F5E012
:1041A0008491E1E6F5E09491E82FF0E0EE0FFF1F37
:1041B000E559FA4FA591B491EC91E92321F461E01E
:1041C0008AE00E94D01861E08AE00E94081A8CB54B
:1041D00080618CBD8CB580648CBD61E08DE00E94F7
:1041E000081A61E08BE00E94081A809179028F5FC3
:1041F000809379021FBF42C061E08091A9030E94B1
:10420000081A61E08091AA030E94081A8091A9030C
:10421000082E000C990BFC01ED5BFA4FE491F0E0E5
:10422000EE0FFF1FEB58FA4F259134913093AF03F7
:104230002093AE03FC01E95AFA4FE491E093B603F0
:104240008091AA03082E000C990BFC01ED5BFA4F3C
:10425000E491F0E0EE0FFF1FEB58FA4FA591B491F7
:10426000B093B103A093B003FC01E95AFA4FE49173
:10427000E093B7038C91E095E823EC938091AD0334
:1042800087FD1EC061E00E94081A61E08091AD03C5
:104290000E94D01861E070E080E090E00E94441A33
:1042A00060E08091AD030E94D0186AE070E080E089
:1042B00090E00E94441A61E08091AD030E94D01802
:1042C0008091A2039091A303892BD1F02091BA038E
:1042D0003091BB034091BC035091BD0360E074E298
:1042E00084EF90E00E941923DA01C9014097A109E7
:1042F000B109B695A795979587958093B80016C094
:104300008091A0039091A103892B31F08091C30388
:104310009091C4030E940F0EE091B403F091B50395
:1043200090818091B90380958923808364E086E73A
:1043300090E00E94F80F60918B03615085E893E054
:104340000E94AC0D64E082E790E00E94F80F80913B
:10435000A703813011F460E101C064E185E893E0D6
:104360000E94AC0D64E08EE690E00E94F80F8FE8AA
:104370008093C2038091890390918A0380389105CC
:1043800091F480918B0390918C0380349105E9F432
:104390008091A703813011F48FE901C08FEC8093E5
:1043A000C20312E113C08036910579F480918B032A
:1043B00090918C03409749F48091A703813011F4C8
:1043C00080E101C08FEA8093C20312E06AED85E8C4
:1043D00093E00E94AC0D612F85E893E00E94AC0D44
:1043E00061E885E893E00E94AC0D6091C20385E826
:1043F00093E00E94AC0D69ED85E893E00E94AC0D5E
:104400008091A703813011F462E201C061EF85E879
:1044100093E00E94AC0D66E088E690E00E94F80F01
:104420008091A2039091A303892BD1F02091BE0328
:104430003091BF034091C0035091C10360E074E22A
:1044400084EF90E00E941923DA01C9014097A10985
:10445000B109B695A795979587958093B80011C037
:10446000E091B403F091B50390818091B903892B59
:1044700080838091A0039091A103892B11F00E9469
:10448000A40D0E941B1281E090E09093980380930A
:104490009703909396038093950360E085E893E0FB
:1044A0000E94480710929C0380E490E0909392034E
:1044B0008093910380E290E0909394038093930320
:1044C00081E08093990380939A036AE072E085E823
:1044D00093E00E940C0C85E893E00E94460D68EE84
:1044E00073E080E090E00E94441A0E94AD1061CD1C
:1044F000E9ECF2E01382128248EE53E060E070E0F3
:1045000044835583668377838AE291E09183808335
:1045100085EC90E09587848784EC90E09787868788
:1045200080EC90E0918B808B81EC90E0938B828B80
:1045300082EC90E0958B848B86EC90E0978B868B59
:10454000118E128E138E148EA6E6B3E013961C9273
:104550001E92129714964D935D936D937C931797CB
:104560008CE391E011969C938E93E5ECF3E011823D
:10457000108280E482831782108611861286138649
:10458000148615861686E5E8F3E01382128220E889
:1045900030E03583248380E290E0978386833187FF
:1045A000208793878287168A158614861786168633
:1045B00081E0858B848B2FEF3FEF338B228B318B08
:1045C000208B878B108E128E118E8EE491E091835A
:1045D0008083148E138EB68FA58F10A2178E8FEF47
:1045E00084A385A386A387A380A780E586AF17AEA3
:1045F000A2E7B3E082E015968C93159786E11696B4
:104600008C931697E9E5F5E0E4911796EC931797EC
:10461000E5E4F5E0E4911896EC93189740E85EE342
:1046200060E070E01D964D935D936D937C93509781
:104630000895A1E21A2EAA1BBB1BFD010DC0AA1FE3
:10464000BB1FEE1FFF1FA217B307E407F50720F0FB
:10465000A21BB30BE40BF50B661F771F881F991F76
:104660001A9469F760957095809590959B01AC01BF
:10467000BD01CF010895EE0FFF1F0590F491E02DCD
:1046800009945058BB27AA270E9459230C94D3247D
:104690000E94C52438F00E94CC2420F039F49F3FBA
:1046A00019F426F40C94C2240EF4E095E7FB0C9464
:1046B000BC24E92F0E94E42458F3BA176207730759
:1046C0008407950720F079F4A6F50C9406250EF4DE
:1046D000E0950B2EBA2FA02D0B01B90190010C0112
:1046E000CA01A0011124FF27591B99F0593F50F42A
:1046F000503E68F11A16F040A22F232F342F442782
:10470000585FF3CF469537952795A795F040539579
:10471000C9F77EF41F16BA0B620B730B840BBAF049
:104720009150A1F0FF0FBB1F661F771F881FC2F7B4
:104730000EC0BA0F621F731F841F48F487957795C8
:104740006795B795F7959E3F08F0B0CF9395880F82
:1047500008F09927EE0F9795879508950E94982461
:1047600008F481E008950E94C7230C94D3240E948A
:10477000CC2458F00E94C52440F029F45F3F29F072
:104780000C94BC2451110C9407250C94C2240E9453
:10479000E42468F39923B1F3552391F3951B550B4A
:1047A000BB27AA2762177307840738F09F5F5F4F04
:1047B000220F331F441FAA1FA9F335D00E2E3AF043
:1047C000E0E832D091505040E695001CCAF72BD05B
:1047D000FE2F29D0660F771F881FBB1F26173707AC
:1047E0004807AB07B0E809F0BB0B802DBF01FF27DE
:1047F00093585F4F3AF09E3F510578F00C94BC24DB
:104800000C9407255F3FE4F3983ED4F386957795A3
:104810006795B795F7959F5FC9F7880F911D969596
:10482000879597F90895E1E0660F771F881FBB1FF2
:10483000621773078407BA0720F0621B730B840B9F
:10484000BA0BEE1F88F7E09508950E942C24689417
:10485000B1110C94072508950E94EC2488F09F570D
:1048600098F0B92F9927B751B0F0E1F0660F771F94
:10487000881F991F1AF0BA95C9F714C0B13091F08A
:104880000E940625B1E008950C940625672F782F25
:104890008827B85F39F0B93FCCF38695779567954F
:1048A000B395D9F73EF490958095709561957F4FBB
:1048B0008F4F9F4F0895E89409C097FB3EF4909561
:1048C0008095709561957F4F8F4F9F4F9923A9F0E9
:1048D000F92F96E9BB279395F69587957795679578
:1048E000B795F111F8CFFAF4BB0F11F460FF1BC0BC
:1048F0006F5F7F4F8F4F9F4F16C0882311F096E94F
:1049000011C0772321F09EE8872F762F05C06623FC
:1049100071F096E8862F70E060E02AF09A95660FB5
:10492000771F881FDAF7880F9695879597F908956E
:10493000990F0008550FAA0BE0E8FEEF16161706B0
:10494000E807F907C0F012161306E407F50798F018
:10495000621B730B840B950B39F40A2661F0232B31
:10496000242B252B21F408950A2609F4A140A695AD
:104970008FEF811D811D089597F99F6780E870E092
:1049800060E008959FEF80EC089500240A941616C5
:10499000170618060906089500240A94121613062D
:1049A000140605060895092E0394000C11F48823BB
:1049B00052F0BB0F40F4BF2B11F460FF04C06F5FD7
:1049C0007F4F8F4F9F4F089557FD9058440F551FAD
:1049D00059F05F3F71F04795880F97FB991F61F081
:1049E0009F3F79F087950895121613061406551FF8
:1049F000F2CF4695F1DF08C0161617061806991F64
:104A0000F1CF86957105610508940895E894BB2758
:104A100066277727CB0197F908950E94982408F418
:104A20008FEF08950E9425250C94D3240E94C5245D
:104A300038F00E94CC2420F0952311F00C94BC2473
:104A40000C94C22411240C9407250E94E42470F3D2
:104A5000959FC1F3950F50E0551F629FF001729F23
:104A6000BB27F00DB11D639FAA27F00DB11DAA1F32
:104A7000649F6627B00DA11D661F829F2227B00D7F
:104A8000A11D621F739FB00DA11D621F839FA00D0A
:104A9000611D221F749F3327A00D611D231F849F5A
:104AA000600D211D822F762F6A2F11249F575040B1
:104AB0009AF0F1F088234AF0EE0FFF1FBB1F661F2C
:104AC000771F881F91505040A9F79E3F510580F0F5
:104AD0000C94BC240C9407255F3FE4F3983ED4F378
:104AE000869577956795B795F795E7959F5FC1F799
:104AF000FE2B880F911D9695879597F908950E9432
:104B00009824880B990B08950F931F93CF93DF93ED
:104B10008230910510F482E090E0E091E303F0919F
:104B2000E40320E030E0A0E0B0E0309719F14081EC
:104B300051810281138148175907C8F084179507DE
:104B400069F4109731F012960C93129713961C93F8
:104B500027C00093E3031093E40322C0211531051D
:104B600019F04217530718F49A01BD01EF01DF0154
:104B7000F801DBCF21153105F9F0281B390B243062
:104B8000310580F48A819B816115710521F0FB015B
:104B90009383828304C09093E4038093E303FE0134
:104BA000329644C0FE01E20FF31F8193919322508D
:104BB0003109398328833AC02091E1033091E2031F
:104BC000232B41F420910201309103013093E20341
:104BD0002093E1032091000130910101211531055D
:104BE00041F42DB73EB74091040150910501241BBB
:104BF000350BE091E103F091E203E217F307A0F433
:104C00002E1B3F0B2817390778F0AC014E5F5F4F22
:104C10002417350748F04E0F5F1F5093E20340936F
:104C2000E1038193919302C0E0E0F0E0CF01DF91D6
:104C3000CF911F910F910895CF93DF93009709F4BF
:104C400081C0FC01329713821282A091E303B091DC
:104C5000E403109781F420813181820F931F20910A
:104C6000E1033091E2032817390751F5F093E2038D
:104C7000E093E10367C0ED0120E030E0CE17DF07ED
:104C800040F44A815B819E0141155105F1F0EA0132
:104C9000F5CFD383C28340815181840F951FC817FC
:104CA000D90759F488819981840F951F02969183C1
:104CB00080838A819B81938382832115310529F426
:104CC000F093E403E093E3033DC0E901FB83EA834F
:104CD00049915991C40FD51FEC17FD0761F48081EC
:104CE0009181840F951F0296E901998388838281BF
:104CF00093819B838A83E0E0F0E012968D919C91F2
:104D00001397009719F0FD01DC01F7CF8D919C916D
:104D100011979D012E5F3F4F820F931F2091E1035A
:104D20003091E2032817390769F4309729F410927B
:104D3000E4031092E30302C013821282B093E203F1
:104D4000A093E103DF91CF910895DC0101C06D9341
:104D500041505040E0F7089515E0C3E5D5E004C0A8
:104D6000FE010E943B232196C435D107C9F7F89470
:024D7000FFCF73
:104D72000000E503200016001700180019001A00B1
:104D82001B001C001D001E001F002000210022002D
:104D92002300240025000000000011067E05A8055E
:104DA2005E06D905B705CB05000000006B0A3E0A76
:104DB2009B0AFD08360A220A130A000000002D0B86
:104DC2007E059B0A9A0A8A06FD082609FE081A0928
:104DD2000E092D09FD084807120E9E0AE20A46082E
:104DE2002908BC075D076E616E00696E66006F760A
:104DF20066000D0A00497465726174696F6E2C0059
:104E020050696E2C004C6967687420496E74656E37
:104E1200736974792C0054656D7020432C004875B9
:104E22006D69646974792C00566F6C7461676528CA
:104E320056292C00416D706572616765286D4129A4
:104E42002C00506F776572286D57290050696E3AB1
:104E520020004C696768743A20005627733A200094
:104E62006D4127733A200054656D703A200063004B
:104E720048756D69643A200025004C6F6164696E63
:064E8200672E2E2E000039
:00000001FF
