:100000000C9451050C9479050C9479050C947905A0
:100010000C9479050C9479050C9479050C94790568
:100020000C9479050C9479050C9479050C94790558
:100030000C9479050C9479050C9479050C94790548
:100040000C94D30D0C9479050C942C0B0C94060B8A
:100050000C9479050C9479050C9479050C94790528
:100060000C94620B0C947905DB40A4A62EAF200003
:10007000A1C8D300408DAED580A80000600000006C
:100080000000000000000000000000E00000000090
:1000900000000000000000000001E000000000007F
:1000A000000000000000000001F00000000000005F
:1000B0000000000000000003F0000000000000004D
:1000C00000000000000007F0000000000000000039
:1000D000000000000007F800000000000000000021
:1000E000000000000FF800000003C0007E000001C7
:1000F000E0007F0FF800000003C000FE000001E0F8
:1001000000FFEFF800000003C000FE000001E00067
:10011000FFFFF800000003C000F00000000F007FA8
:10012000FE7FC0000003C000F00000000F003FFE93
:100130007FF83FF1FBCFFCFEF3BC3DEFE01FFE7FFD
:10014000FF7FFBFFDFFEFEFFBC3DEFE01FC6FFFFB2
:100150007FFBFFDFFEFEFFBC3DEFE00FE3C7FE7855
:100160007BC3DE1EF0FFBC3DEF0007FF87FC787B02
:10017000C3DE1EF0F83C3DEF0001FFFFF0007BC343
:10018000C01EF0F03C3DEF0001F37FE03FFBC3CF2A
:10019000FEF0F03C3DEF0003E33F807FFBC3DFFE5A
:1001A000F0F03C3DEF0007E73C00787BC3DE1EF03B
:1001B000F03C3DEF0007FFBE00787BC3DE1EF0F091
:1001C0003C3DEF0007FFFE00787BC3DE1EF0F03CF5
:1001D0003DEF000FFFFE007FFBFFDFFEF0F03FFD75
:1001E000EFE00FFFFF007FFBFFDFFEF0F03FFDEFD2
:1001F000E00FF9FF003E79F9CF9EF0F01F3DE7E0F8
:100200001FF1FF0000000000000000000000001FC0
:1002100080FF007FFFFFFFFFFFFFFFFFFFE01C00ED
:100220007F007FFFFFFFFEB46D888D18E000001F88
:10023000007FFFFFFFFE95AD7DB577E000000F006A
:100240007FFFFFFFFEA5AD9D8D19E0000006007F3A
:10025000FFFFFFFEB5ADEDB57EE000000000000140
:10026000800000000000000000000380000000008B
:10027000000000000007C0000000000000000000B7
:1002800007C00000000000000000000FC0000000D8
:100290000000000000001FE000000000000000005F
:1002A000001FE00000000000000000003FE0000030
:1002B000000000000000003FF0000000000000000F
:1002C00000007FF0000000000000001FF87FF00039
:1002D0000000000000003FFE7FF000000000000072
:1002E000003FFF7FF0000000000000001FFFFBE068
:1002F000000000000000000FFFF9FFC00000000038
:1003000000000FFFF9FFF800000000000007FFF1F8
:10031000FFFF00000000000003FC73FFFF800000EF
:1003200000000001FE3FFFFF80000000000000FF12
:100330001E0FFF000000000000007FFE1FFC0000F9
:1003400000000000003FFFFFF80000000000000078
:100350000FDFFFE0000000000000001F19FFC000D9
:100360000000000000003F3CFF0000000000000013
:10037000007E7CF800000000000000007FFE7C0092
:1003800000000000000000FFFFFC00000000000073
:100390000000FFFFFE0000000000000000FFFFFE65
:1003A0000000000000000001FFEFFE000000000060
:1003B000000001FFCFFE0000000000000003FF0767
:1003C000FE0000000000000003FC07FE000000002B
:1003D00000000003F003FE000000000000000180A8
:1003E00000FE000000000000000000007E00000091
:1003F000000000000000003E0000000000000000BF
:1004000000000C000000000000078000FC0000035A
:10041000C0000000078001FC000003C000000007CE
:100420008001FC000003C0000000078001E0000024
:10043000001E000000078001E00000001E007FE3B6
:10044000F79FF9FDE7787BDFC0FFF7FFBFFDFDFFFA
:10045000787BDFC0FFF7FFBFFDFDFF787BDFC0F0DB
:10046000F787BC3DE1FF787BDE00F0F787BC3DE11C
:10047000F0787BDE0000F787803DE1E0787BDE00EE
:100480007FF7879FFDE1E0787BDE00FFF787BFFD08
:10049000E1E0787BDE00F0F787BC3DE1E0787BDED1
:1004A00000F0F787BC3DE1E0787BDE00F0F787BC29
:1004B0003DE1E0787BDE00FFF7FFBFFDE1E07FFB81
:1004C000DFC0FFF7FFBFFDE1E07FFBDFC07CF3F3A0
:1004D0009F3DE1E03E7BCFC0000000000000000037
:1004E000000000FFFFFFFFFFFFFFFFFFFFC0FFFF58
:1004F000FFFFFD68DB111A31C0FFFFFFFFFD2B5A24
:10050000FB6AEFC0FFFFFFFFFD4B5B3B1A33C0FFF1
:10051000FFFFFFFD6B5BDB6AFDC05353443133309B
:100520003620616C6C6F636174696F6E20666169FF
:100530006C65640000000000003E5B4F5B3E3E6B5C
:100540004F6B3E1C3E7C3E1C183C7E3C181C577D6D
:10055000571C1C5E7F5E1C00183C1800FFE7C3E7B9
:10056000FF0018241800FFE7DBE7FF30483A060ECB
:100570002629792926407F050507407F05253F5A12
:100580003CE73C5A7F3E1C1C08081C1C3E7F142282
:100590007F22145F5F005F5F06097F017F0066892D
:1005A000956A606060606094A2FFA29408047E0473
:1005B0000810207E201008082A1C08081C2A080899
:1005C0001E101010100C1E0C1E0C30383E38300659
:1005D0000E3E0E06000000000000005F0000000755
:1005E000000700147F147F14242A7F2A1223130883
:1005F000646236495620500008070300001C22415F
:10060000000041221C002A1C7F1C2A08083E080802
:1006100000807030000808080808000060600020B2
:10062000100804023E5149453E00427F4000724995
:100630004949462141494D331814127F1027454539
:1006400045393C4A4949314121110907364949494F
:1006500036464949291E00001400000040340000BD
:100660000008142241141414141400412214080226
:10067000015909063E415D594E7C1211127C7F4999
:100680004949363E414141227F4141413E7F4949EE
:1006900049417F090909013E414151737F0808081A
:1006A0007F00417F41002040413F017F08142241EB
:1006B0007F404040407F021C027F7F0408107F3E45
:1006C0004141413E7F090909063E4151215E7F09B2
:1006D000192946264949493203017F01033F404019
:1006E000403F1F2040201F3F4038403F6314081404
:1006F0006303047804036159494D43007F4141413C
:100700000204081020004141417F0402010204401C
:1007100040404040000307080020545478407F28A0
:100720004444383844444428384444287F38545496
:10073000541800087E090218A4A49C787F080404B9
:100740007800447D40002040403D007F1028440058
:1007500000417F40007C047804787C0804047838E9
:1007600044444438FC1824241818242418FC7C0819
:10077000040408485454542404043F44243C404096
:10078000207C1C2040201C3C4030403C4428102849
:10079000444C9090907C4464544C44000836410092
:1007A0000000770000004136080002010204023C0C
:1007B0002623263C1EA1A161123A4040207A3854DB
:1007C0005455592155557941225454784221555454
:1007D000784020545579400C1E52721239555555A7
:1007E00059395454545939555454580000457C4192
:1007F0000002457D420001457C407D1211127DF0D2
:10080000282528F07C545545002054547C547C0AFB
:10081000097F4932494949323A4444443A324A48C4
:1008200048303A4141217A3A42402078009DA0A0C8
:100830007D3D4242423D3D4040403D3C24FF24241A
:10084000487E4943662B2FFC2F2BFF0929F620C039
:10085000887E090320545479410000447D4130488A
:10086000484A32384040227A007A0A0A727D0D19CD
:10087000317D2629292F28262929292630484D402F
:1008800020380808080808080808382F10C8ACBA2B
:100890002F102834FA00007B000008142A142222AA
:1008A000142A14085500550055AA55AA55AAFF55F3
:1008B000FF55FF000000FF00101010FF001414147B
:1008C000FF001010FF00FF1010F010F0141414FCC3
:1008D000001414F700FF0000FF00FF1414F404FCE0
:1008E000141417101F10101F101F1414141F0010C1
:1008F0001010F0000000001F101010101F1010103A
:1009000010F010000000FF10101010101010101048
:10091000FF10000000FF140000FF00FF00001F1088
:10092000170000FC04F414141710171414F404F442
:100930000000FF00F714141414141414F700F71433
:100940001414171410101F101F141414F414101082
:10095000F010F000001F101F0000001F1400000026
:10096000FC140000F010F01010FF10FF141414FF1E
:10097000141010101F00000000F010FFFFFFFFFF19
:10098000F0F0F0F0F0FFFFFF0000000000FFFF0FAD
:100990000F0F0F0F3844443844FC4A4A4A347E0251
:1009A000020606027E027E026355494163384444D2
:1009B0003C04407E201E2006027E020299A5E7A587
:1009C000991C2A492A1C4C7201724C304A4D4D30F8
:1009D0003048784830BC625A463D3E494949007E1D
:1009E0000101017E2A2A2A2A2A44445F44444051B4
:1009F0004A444040444A51400000FF0103E080FF68
:100A0000000008086B6B083612362436060F090FF3
:100A100006000018180000001010003040FF01010F
:100A2000001F01011E00191D1712003C3C3C3C0038
:100A300000000000000103070F1F3F7F0080C0E09F
:100A4000F0F8FCFE00000000240027002A0000004F
:100A50000000250028002B00000000080002010013
:100A60000003040700000000000000000000000078
:100A700023002600290004040404040404040202E0
:100A8000020202020303030303030102040810200D
:100A90004080010204081020010204081020DA211D
:100AA000151D11241FBECFEFD8E0DEBFCDBF11E072
:100AB000A0E0B1E0E8ECFCE402C005900D92AA3F92
:100AC000B107D9F723E0AAEFB1E001C01D92AA3D1A
:100AD000B207E1F715E0C0E5D5E004C02197FE01BB
:100AE0000E94D922CF34D107C9F70E94241D0C944B
:100AF00057260C940000CF92DF92EF92FF920F9353
:100B00001F93CF93DF936C017A018B01C0E0D0E09B
:100B1000CE15DF0581F0D8016D918D01D601ED91E3
:100B2000FC910190F081E02DC6010995892B11F00F
:100B30002196EECF7E01C701DF91CF911F910F91DA
:100B4000FF90EF90DF90CF900895FC01538D448D7E
:100B5000252F30E0842F90E0821B930B541710F068
:100B6000CF96089501970895FC01918D828D981775
:100B700061F0828DDF01A80FB11D5D968C91928D81
:100B80009F5F9F73928F90E008958FEF9FEF08957E
:100B9000FC01918D828D981731F0828DE80FF11D47
:100BA000858D90E008958FEF9FEF0895FC01918D62
:100BB000228D892F90E0805C9F4F821B91098F735B
:100BC0009927089588EB92E00E94D60521E0892BB1
:100BD00009F420E0822F0895FC01848DDF01A80F25
:100BE000B11DA35ABF4F2C91848D90E001968F7355
:100BF0009927848FA689B7892C93A089B1898C9174
:100C0000837080648C93938D848D981306C00288C2
:100C1000F389E02D80818F7D80830895EF92FF928C
:100C20000F931F93CF93DF93EC0181E0888F9B8D0F
:100C30008C8D981305C0E889F989808185FD26C0CF
:100C4000F62E0B8D10E00F5F1F4F0F731127E02E54
:100C50008C8DE8120CC00FB607FCFACFE889F98931
:100C6000808185FFF5CFCE010E94EC05F1CF8B8D01
:100C7000FE01E80FF11DE35AFF4FF0829FB7F89491
:100C80000B8FEA89FB89808180620AC09FB7F89444
:100C9000EE89FF896083E889F989808183708064A7
:100CA00080839FBF81E090E0DF91CF911F910F91F2
:100CB000FF90EF900895CF93DF93EC01888D882308
:100CC000C9F0EA89FB89808185FD05C0A889B989B9
:100CD0008C9186FD0FC00FB607FCF5CF808185FF94
:100CE000F2CFA889B9898C9185FFEDCFCE010E9402
:100CF000EC05E7CFDF91CF91089580E090E0892B5C
:100D000029F00E94E20581110C9400000895FC0175
:100D100077FDB9C080859185681779070CF0B3C05D
:100D200057FDB1C082859385481759070CF0089587
:100D30008689823079F484819581DC01A61BB70B0A
:100D4000BD016150710986819781DC01A41BB50B3F
:100D5000AD010EC0833009F084C064277527CA0135
:100D6000862797276827792746815781481B590B83
:100D7000415051092130310531F048F1223031051F
:100D800009F44AC00895CA0157FD07969C01A3E0E3
:100D900035952795AA95E1F7A481B5812A9FC001D1
:100DA0002B9F900D3A9F900D1124680F791F078C8F
:100DB000F0A1E02DE60FF71F4770552781E090E086
:100DC00001C0880F4A95EAF79081892B48C0CA0173
:100DD00057FD07969C0193E0359527959A95E1F785
:100DE000A481B5812A9FC0012B9F900D3A9F900D41
:100DF0001124680F791F078CF0A1E02DE60FF71F73
:100E00004770552781E090E001C0880F4A95EAF7C6
:100E100080959081892323C0CA0157FD07969C01C4
:100E200083E0359527958A95E1F7A481B5812A9FBE
:100E3000C0012B9F900D3A9F900D1124680F791FD0
:100E4000078CF0A1E02DE60FF71F4770552781E0D2
:100E500090E001C0880F4A95EAF790818927808346
:100E60000895813009F086CF6427752746275727D4
:100E70006427752784819581DC01A61BB70BBD0112
:100E80006150710977CF089585ED8093BC00809102
:100E9000BC0084FDFCCF1092B302089540913A0249
:100EA000262F30E0240F311D21323105DCF4209152
:100EB000B3022430C9F4FC0180E090E0861758F4B6
:100EC00030913A022191DC01A65EBD4FA30FB11D06
:100ED0002C930196F3CF80913A02680F60933A0207
:100EE00080E0089581E0089582E0089508950895CE
:100EF000E091B7028091B602E81730F4F0E0E957CC
:100F0000FD4F808190E008958FEF9FEF08959091BD
:100F1000B7028091B602981750F4E92FF0E0E95734
:100F2000FD4F208130E09F5F9093B70202C02FEF0A
:100F30003FEFC90108958091B60290E02091B70279
:100F4000821B91090895CF92DF92EF92FF920F9347
:100F50001F93CF93DF937C01CB018A012091AC02D8
:100F6000222389F0EB016B01C40ED51ECC15DD05E3
:100F700069F06991D701ED91FC910190F081E02D2C
:100F8000C7010995F3CF642F0E944E07C801DF9176
:100F9000CF911F910F91FF90EF90DF90CF90089528
:100FA000CF93DF931F92CDB7DEB769832091AC0258
:100FB0002223D1F02091B402203240F021E030E031
:100FC000FC013383228380E090E015C08091B5025C
:100FD000E82FF0E0E650FE4F998190838F5F809379
:100FE000B5028093B40205C061E0CE0101960E9473
:100FF0004E0781E090E00F90DF91CF910895089522
:1010000080E090E0089508950F931F93CF93DF93AE
:101010008C01EB0188E2DB011D928A95E9F7F8016A
:10102000838194810E94921181E090E0A0E0B0E081
:101030008C879D87AE87BF87F80185819681A781C0
:10104000B085888B998BAA8BBB8B8CE090E0A0E05D
:10105000B0E08C8B9D8BAE8BBF8BBE018381948166
:101060000E94BF11D8011396ED91FC9114978389CA
:101070008C3069F038F48B30A1F580E090E0A0EA84
:10108000B2E409C08531C1F08631B1F02AC080E0F8
:1010900090E0AEEBB2E4888F998FAA8FBB8F80E08F
:1010A00090E0A0EAB1E48C8F9D8FAE8FBF8F80E07F
:1010B00090E0A0EAB0E410C080E090E0A8ECB2E4D8
:1010C000888F998FAA8FBB8F1C8E1D8E1E8E1F8EB0
:1010D0008DEC9CECACECBDE388A399A3AAA3BBA3C5
:1010E0000CC0188E198E1A8E1B8E1C8E1D8E1E8E95
:1010F0001F8E18A219A21AA21BA2DF91CF911F91D5
:101100000F9108950F931F93CF93DF938C01EB0101
:1011100088E2DB011D928A95E9F7F80183819481C9
:101120000E94921181E090E0A0E0B0E08C879D8762
:10113000AE87BF87F80185819681A781B085888BAE
:10114000998BAA8BBB8B8DE090E0A0E0B0E08C8BFC
:101150009D8BAE8BBF8BBE01838194810E94BF119A
:10116000D8011396ED91FC91149783898C30F1F09E
:10117000A0F48B3009F048C080E090E0A8E4B2E42D
:10118000888F998FAA8FBB8F1C8E1D8E1E8E1F8EEF
:1011900080E090E0A0E0B0E432C08531E1F086313B
:1011A00099F580E090E0AAEFB2E419C080E090E009
:1011B000A0E7B2E4888F998FAA8FBB8F80E090E080
:1011C000A0EAB1EC8C8F9D8FAE8FBF8F80E090E056
:1011D000A0E0BFE314C080E090E0A0EAB2E4888F12
:1011E000998FAA8FBB8F80E090E0A0E2B2EC8C8F49
:1011F0009D8FAE8FBF8F8DEC9CECACECBDE388A3D4
:1012000099A3AAA3BBA30CC0188E198E1A8E1B8E8D
:101210001C8E1D8E1E8E1F8E18A219A21AA21BA232
:10122000DF91CF911F910F910895CF92DF92EF92AE
:10123000FF920F931F93CF93DF93EB0124E2FB0107
:1012400011922A95E9F744E250E060E070E04883AB
:1012500059836A837B83FC01458156816781708550
:101260004C835D836E837F834CE050E060E070E0F0
:10127000488759876A877B872FB7F8944091A702E0
:101280005091A8026091A9027091AA022FBF488BC9
:10129000598B6A8B7B8B03811481C8010E94330EAA
:1012A0008823B9F1F80186818B3098F18D30A0F058
:1012B0008551823070F5F80160817181762767274A
:1012C000762780E090E00E94F2232DEC3CEC4CEC81
:1012D0005DE30E94A92421C0F801618170E080E0F3
:1012E00090E00E94F4232DEC3CEC4CEC5DE30E947A
:1012F000A9246B017C01F801608170E080E090E03E
:101300000E94F4239B01AC01C701B6010E94E022B8
:1013100004C060E070E080EC9FE76C8B7D8B8E8B6F
:101320009F8B81E0DF91CF911F910F91FF90EF9004
:10133000DF90CF9008958F929F92AF92BF92EF92DD
:10134000FF921F93CF93DF93EB0124E2FB011192F5
:101350002A95E9F744E250E060E070E04883598361
:101360006A837B83FC0145815681678170854C834C
:101370005D836E837F834DE050E060E070E04887DE
:1013800059876A877B872FB7F8944091A7025091BD
:10139000A8026091A9027091AA022FBF488B598BB5
:1013A0006A8B7B8BE380F480C7010E94330E882315
:1013B00009F46BC0F70186818C3009F445C018F43C
:1013C0008B30C9F062C08551823008F05EC0F701F1
:1013D0001281612F6F7770E0762F66278381682BEB
:1013E00080E090E00E94F2232DEC3CEC4CEC5DE3BD
:1013F0000E94A92446C0F701628170E080E090E07D
:101400000E94F2234B015C01F701138117FF0AC010
:101410009B01AC0160E070E080E89FEB0E94DF225E
:101420004B015C01612F6F7070E080E090E00E94E2
:10143000F4232DEC3CEC4CEC5DE30E94A924A501C7
:1014400094010E94E02225C0F701128163816F7030
:1014500070E080E090E00E94F4232DEC3CEC4CEC3A
:101460005DE30E94A9244B015C01612F70E080E0E4
:1014700090E00E94F2239B01AC01C501B4010E94DF
:10148000E02217FF06C0905804C060E070E080ECD6
:101490009FE76C8B7D8B8E8B9F8B81E0DF91CF9153
:1014A0001F91FF90EF90BF90AF909F908F90089505
:1014B0000F931F93CF93DF93DC015696EC915697D1
:1014C000E23071F0E330E9F0E13079F5FB01149698
:1014D0000D90BC91A02DA41BB50BA21BB30B18C083
:1014E000EC01EC81FD81E61BF70BBF016150710936
:1014F000EE81FF81DF01A41BB50BAD01421B530B35
:1015000014C0DA01EC01EE81FF81E61BF70B319785
:10151000F7FD0DC0EC014E815F81E417F5073CF447
:10152000AF01BD010E94761002C00E94DD10DF9164
:10153000CF911F910F9108950F931F93DC01569641
:10154000EC915697E23061F0E33009F1E13081F53A
:101550001496ED91FC911597E41BF50B319723C080
:10156000DC011496ED91FC911597DF01A61BB70BDA
:10157000BD01DC011696ED91FC911797DF01A41BCC
:10158000B50BAD0141505109621B730B11C0FA013B
:10159000DC0116964D915C911797DA01A61BB70BEB
:1015A000BD01621B730BAB01BF010E94DD100CC0BB
:1015B00057FD0AC0DC011696ED91FC9117974E1766
:1015C0005F0714F40E9476101F910F9108950C94F8
:1015D000B3250C94B3256115710579F0FB010190D9
:1015E0000020E9F73197AF01461B570BDC01ED9165
:1015F000FC910280F381E02D099480E090E0089551
:1016000060E871E00C94EB0A0C94EB0A1F920F92C5
:101610000FB60F9211242F933F934F935F936F93C5
:101620007F938F939F93AF93BF93EF93FF9388EB39
:1016300092E00E94EC05FF91EF91BF91AF919F91D5
:101640008F917F916F915F914F913F912F910F906B
:101650000FBE0F901F9018951F920F920FB60F920A
:1016600011242F938F939F93EF93FF93E091C802E0
:10167000F091C9028081E091CE02F091CF0282FD0B
:1016800012C090818091D1028F5F8F732091D2021E
:10169000821751F0E091D102F0E0E854FD4F958FB0
:1016A0008093D10201C08081FF91EF919F918F9132
:1016B0002F910F900FBE0F901F90189508958CBD1D
:1016C0009DBD08951F920F920FB60F9211242F9374
:1016D0003F934F935F936F937F938F939F93AF93BA
:1016E000BF93EF93FF938091B900887F803609F410
:1016F0009CC068F5883209F45BC090F4803109F42D
:1017000054C038F4882309F4F6C0883009F44DC079
:10171000F6C0883109F44CC0803209F45DC0EFC0D6
:10172000803409F468C048F4803309F455C0883324
:1017300009F0E5C080938602D8C0803509F44FC017
:10174000883509F45DC0883409F0D9C0D6C088391D
:1017500009F4C7C0A8F4883709F467C038F488369C
:1017600009F463C0803709F460C0C9C0883809F43F
:10177000B8C0803909F45FC0803809F0C0C05BC0D0
:10178000803B09F486C038F4803A09F466C0883A90
:1017900009F47FC0B4C0803C09F4A7C0883C09F4B8
:1017A000A4C0883B09F48AC0AAC08091830210C0FB
:1017B0009091850280918402981770F5E0918502DE
:1017C00081E08E0F80938502F0E0ED59FD4F80811E
:1017D0008093BB0085EC86C0809386028EC0E0912A
:1017E000850281E08E0F809385028091BB00F0E03E
:1017F000ED59FD4F808390918502809184026EC0E7
:10180000E091850281E08E0F809385028091BB007C
:10181000F0E0ED59FD4F80838091B20281116DC0DF
:1018200081E08093B10284EA61C083E08093B302D7
:1018300010925C02CFCF80915C02803208F051C0E0
:10184000E0915C0281E08E0F80935C028091BB008E
:10185000F0E0E45CFD4F8083BDCF85EC8093BC005D
:101860001092B30280915C02803230F4E0915C020D
:10187000F0E0E45CFD4F108260915C0270E0E0916A
:10188000AD02F091AE028CE392E0099510925C02F9
:1018900036C084E08093B30210923B0210923A0269
:1018A000E091AF02F091B002099580913A02811166
:1018B00005C081E080933A0210921A02E0913B0247
:1018C00081E08E0F80933B02F0E0E65EFD4F808169
:1018D0008093BB0090913B0280913A02981708F4E4
:1018E00079CF85E88093BC000AC085EC8093BC006A
:1018F0001092B30204C0109286020E944407FF9126
:10190000EF91BF91AF919F918F917F916F915F9177
:101910004F913F912F910F900FBE0F901F901895F0
:101920003091B402313208F04AC08091B302811183
:10193000FCCF9091AB0222E02093B3026093B202FD
:101940002FEF209386021092850230938402EAEFF3
:10195000F1E0A3E6B2E020E0321721F041914D938F
:101960002F5FFACF1092830220918302990F922B5E
:10197000909383029091B102913061F41092B10280
:10198000909183029093BB009091BC0093FDF8CF9F
:1019900095EC01C095EE9093BC009091B30292300B
:1019A000E1F3909186029F3F79F080918602803228
:1019B00041F080918602803331F084E005C081E0FF
:1019C00003C082E001C083E01092B5021092B4021D
:1019D0001092AC0208951F93CF93DF93FC01858D85
:1019E000968D009731F1162FEF0121A131E0309350
:1019F000AC022093AB021092B5021092B402DC014B
:101A0000ED91FC910190F081E02D60E009958D8DC4
:101A10009E8DDC01ED91FC910190F081E02D612F14
:101A2000099561E08D8D9E8DDF91CF911F910C9472
:101A3000900CA5A5B6A59C9183A9809589238C932C
:101A4000838D948D892B39F06EBD00000DB407FE97
:101A5000FDCF8EB521C028E030E090E8A1A5B2A569
:101A600081A9462F492319F04C91842B03C04C9136
:101A7000809584238C93A3A5B4A54C9182A9842B33
:101A80008C93A3A5B4A54C9182A9809584238C93B3
:101A900096952150310911F7DF91CF911F9108954B
:101AA0001F93CF93DF93EC01162F8D8D9E8D892B85
:101AB000B1F02DA93EA94FA958AD60E074E284EFC2
:101AC00090E00E94B722DA01C9014097A109B1094B
:101AD000B695A795979587958093B8000FC08B8D85
:101AE0009C8D892B21F08EAD9FAD0E945F0BEFA5E1
:101AF000F8A990818CA9809589238083111102C057
:101B000066EA01C067EACE010E94EB0C8D8D9E8DC6
:101B1000892BB1F029AD3AAD4BAD5CAD60E074E21C
:101B200084EF90E00E94B722DA01C9014097A10931
:101B3000B109B695A795979587958093B80006C08B
:101B4000EFA5F8A990818CA9892B8083DF91CF9193
:101B50001F910895089508950E943C263FB7F89478
:101B600080915F0290916002A0916102B091620247
:101B700026B5A89B05C02F3F19F00196A11DB11DE8
:101B80003FBFBA2FA92F982F8827820F911DA11D23
:101B9000B11DBC01CD0142E0660F771F881F991F60
:101BA0004A95D1F708951F920F920FB60F92112404
:101BB0002F933F938F939F93AF93BF938091A702EF
:101BC0009091A802A091A902B091AA0230915E0260
:101BD00023E0230F2D3720F40196A11DB11D05C070
:101BE00026E8230F0296A11DB11D20935E0280936B
:101BF000A7029093A802A093A902B093AA02809191
:101C00005F0290916002A0916102B0916202019620
:101C1000A11DB11D80935F0290936002A0936102A9
:101C2000B0936202BF91AF919F918F913F912F919D
:101C30000F900FBE0F901F9018950895FC016370D0
:101C4000668B8481958126813781613039F06330DC
:101C500029F09187808733872287089531872087ED
:101C60009387828708958F929F92AF92BF92CF926F
:101C7000DF92EF92FF920F931F93CF93DF93CDB735
:101C8000DEB7C054D1400FB6F894DEBF0FBECDBF53
:101C90002FB7F8944091A7025091A8026091A90231
:101CA0007091AA022FBFFC0101851285238534851E
:101CB0006A017B01C01AD10AE20AF30AE0EDCE16EE
:101CC000E7E0DE06E104F10418F4FC018189C2C0FA
:101CD0008C01FC01418752876387748714821382C9
:101CE00012821182108262E085810E94E01861E018
:101CF00070E080E090E00E941C1961E0F8018581AD
:101D00000E94E01860E0F80185810E94FF17F80149
:101D100086818551823028F48BE291E10197F1F7B9
:101D200006C064E170E080E090E00E941C1962E06F
:101D3000F80185810E94E018F801828990E08230E4
:101D4000910538F0880F991F880F991F0597019703
:101D5000F1F7F89460E0C8010E94D81C6F3F7F4FF4
:101D60008F4F9F4F21F4F801118A789444C061E0AD
:101D7000C8010E94D81C6F3F7F4F8F4F9F4F99F330
:101D8000CE0101967C015E019FEBA91A9EEFB90A74
:101D9000670160E0C8010E94D81CF601608371836E
:101DA0008283938361E0C8010E94D81CF60164839A
:101DB000758386839783F8E0CF0ED11CCA14DB04A9
:101DC00041F7789420E030E0F70180809180A28094
:101DD000B3804481558166817781FFEF8F169F061E
:101DE000AF06BF0631F04F3F8FEF580768077807FF
:101DF00021F4F801118A80E02DC0F90183E0F59506
:101E0000E7958A95E1F7E00FF11F8081880F84162E
:101E10009506A606B70608F4816080832F5F3F4FC2
:101E2000F8E0EF0EF11C2832310571F6F80124813B
:101E300030E04081818190E0840F911D4281840FC8
:101E4000911D4381840F911D99272817390789F621
:101E500081E0818BC05CDE4F0FB6F894DEBF0FBE11
:101E6000CDBFDF91CF911F910F91FF90EF90DF9049
:101E7000CF90BF90AF909F908F9008956F927F9278
:101E80008F929F92AF92BF92CF92DF92EF92FF928A
:101E90000F931F93CF93DF9300D0CDB7DEB78C01A4
:101EA0006B01DC0116968C91169717969C911797EB
:101EB00089839A83ED90FC901197E114F10409F461
:101EC0008AC019964C9150E0F7018481958184175E
:101ED000950710F480E0F9C0808191E09093AC0206
:101EE0008093AB021092B5021092B40220E0BE01C2
:101EF0006F5F7F4FC7010E94B617882359F3F70120
:101F000084819581029730F38091B3028111FCCFD7
:101F1000D7012C9181E08093B3028093B2029FEFAE
:101F200090938602109285028093840280938302AC
:101F300090918302822F880F892B80938302809156
:101F4000B102813061F41092B102809183028093DA
:101F5000BB008091BC0083FDF8CF85EC01C085EE0D
:101F60008093BC008091B3028130E1F380918502BF
:101F7000823018F49091850201C092E0A3E6B2E0AD
:101F8000E7E8F2E080E0891721F02D9121938F5F3F
:101F9000FACF1092B7028093B602823009F09ACF3E
:101FA000F70181819281DC01ED91FC910284F3853E
:101FB000E02D0995F8018387D70111968D919C91A9
:101FC0001297DC01ED91FC910284F385E02D0995D7
:101FD000F80184875EC0D8011296ED90FC901397AB
:101FE000E114F10409F476CF14962D913C911597E4
:101FF0002115310511F4806809C02230310511F432
:102000008F7704C02130310511F4806C8983F80189
:102010006184712CD7018D919C911197892B41F08E
:102020001296ED91FC911397808191810E945F0B34
:1020300060E0F70183850E94FF17CE0101964C01F5
:102040005C01C5018819990986159705D8F06FEFCD
:10205000C7010E942E18D8011B968C936FEFC70101
:102060000E942E18F801848761E0D7011B968C919D
:102070000E94FF17F70180819181892B51F00E9406
:102080005E0B07C0D5016D915D01C7010E942E183E
:10209000D8CF81E0F801928591110AC0248530E003
:1020A000322F2227D60111963C932E9393850AC096
:1020B000F801238530E0322F2227D60111963C9378
:1020C0002E939485292B2D933C930F900F90DF91A5
:1020D000CF911F910F91FF90EF90DF90CF90BF9025
:1020E000AF909F908F907F906F9008950F931F9364
:1020F000CF93DF9377FF04C0260F371F60E070E0B7
:10210000DC011496CD91DC911597FB01E20FF31FD2
:10211000CE17DF071CF49E01261B370B1216130681
:102120000CF046C0FA0157FD3796DF01E3E0B595A4
:10213000A795EA95E1F7AC9FF001AD9FF00DBC9F2C
:10214000F00D11246E0F7F1FDC015F96ED91FC9165
:102150009097E60FF71F4770552781E090E001C088
:10216000880F4A95EAF7482F0130110539F078F0C9
:1021700002301105E9F42E0F3F1F13C02E0F3F1F31
:10218000E217F307A9F08081842B8193F9CF809522
:102190002E0F3F1FE217F30759F090819823919378
:1021A000F9CFE217F30721F0808184278193F9CFDB
:1021B000DF91CF911F910F910895EF92FF920F93AE
:1021C0001F93CF93DF93EC0177FDA5C0EC80FD80DA
:1021D0006E157F050CF09FC057FF04C0240F351FFC
:1021E00040E050E08E819F81FA01E20FF31F8E17CD
:1021F0009F071CF49C01241B350B121613060CF0D0
:102200008AC0922F842F8695869586958E9DD001C3
:102210008F9DB00D11246A0F7B1FAF8DB8A1A60F43
:10222000B71F4770B1F188E0841B482F682F70E01A
:10223000FB01E45CF54FE491281798F4621B7109E7
:102240002FEF30E002C0359527956A95E2F7E2233B
:102250000130110549F078F00230110509F05BC03A
:102260000EC00130110519F48C91E82B0AC0013021
:10227000110508F049C0E0958C91E82302C08C91CB
:10228000E827EC93941708F446C02C813D81A20FF7
:10229000B31FE92FE41BE830F8F00230110561F4B8
:1022A0008E2F9C9190959C932C813D81A20FB31F02
:1022B00088508830B0F70FC081E00115110509F48E
:1022C00080E081959E2F8C932C813D81A20FB31FBE
:1022D00098509830C0F7E770EE23E9F0F0E0EC5C3E
:1022E000F54FE4910130110539F048F00230110545
:1022F00091F48C91E82706C08C91E82B03C0E095FF
:102300008C91E823EC9307C00230110509F4B7CF94
:10231000AE0DBF1DBECFDF91CF911F910F91FF90EA
:10232000EF900895CF93DF93EB01FC0183898C300C
:1023300089F038F48B30C1F44BE050E060ED71E08F
:1023400017C0853161F0863179F44BE050E062EEE0
:1023500071E00EC04BE050E066ED71E009C04BE06B
:1023600050E06CED71E004C04BE050E068EE71E0CD
:10237000CE010E9448261B86DF91CF910895FB0174
:10238000DC0153968C918C3041F038F48B3029F479
:1023900080E492E4AFE0B0E004C080E894E8AEE10D
:1023A000B0E084A395A3A6A3B7A308952F923F926C
:1023B0004F925F926F927F928F929F92AF92BF9255
:1023C000CF92DF92EF92FF920F931F93CF93DF9301
:1023D000CDB7DEB76B970FB6F894DEBF0FBECDBF9B
:1023E0009B8F8A8F1B014A01D22E198708873701DC
:1023F000A982DC0159962D913C915A9721153105FE
:1024000009F0FFC018968D919C911997681779076C
:102410000CF0E7C11A968D919C911B9748175907AC
:102420000CF0DFC1EC2DF0E0FB83EA839B0146E07A
:10243000C49E200D311D11243D872C8712161306D2
:102440000CF0CFC16A2D70E07B876A8783E0660F4E
:10245000771F8A95E1F77F876E87CB01880D991DDD
:10246000181619060CF0BDC158968C91811104C044
:102470008FEA8D1508F4D394AA8DBB8DED91FC9154
:1024800011970284F385E02DCD010995B5E0DB9E1F
:10249000C0011124EC2DF0E0F98BE88B91012B5F4A
:1024A0003F4F3B8B2A8B3D822C822101AC0142198C
:1024B00053095D8B4C8B7981672F70E07F8B6E8B1E
:1024C000C4010896998F888FEC89FD89E40DF51D6C
:1024D000EC5CFA4FD49054019F828E82D0FE16C0DD
:1024E000AA8DBB8DED91FC91B1E0CB1209C0298181
:1024F000213031F40484F585E02D2885398519C013
:102500000684F785E02DE884F9841DC04885598547
:102510004615570519F1AA8DBB8DED91FC91B1E0DF
:10252000CB120DC02981213051F40484F585E02DB2
:102530009301A501B2018A8D9B8D09950FC0068478
:10254000F785E02D73010A851B852A813B814E8129
:102550005F816C817D818A8D9B8D0995D6943FEF3B
:10256000A31AB30A4E815F816E897F89460F571F78
:102570005F834E83888D998DA816B90609F0AECF7A
:102580009FEF491A590AAC81BD81E889F989AE0FDC
:10259000BF1FBD83AC832A893B894216530609F0CD
:1025A00093CF488559854615570509F4F8C0AA8D7B
:1025B000BB8DED91FC91B1E0CB1211C0298121308E
:1025C00071F4B1016B5F7F4F0088F189E02D8301C9
:1025D00028E030E0A4018A8D9B8D0995E0C06C85D0
:1025E0007D854A815B81641B750B0684F785E02D30
:1025F00073010E851F859A01A4018A8D9B8D099513
:10260000CEC0F9013496E491DE1AF9013296859133
:102610009491B7E0DB9E800D911D1124F901259165
:1026200034913B8B2A8BFC01259134915901FC019B
:1026300032965490319634913C873296749031960C
:10264000149141E04C1518F05981523068F0672D13
:10265000072C000C770B7D836C83812F012E000CDF
:10266000990B9B838A8304C01B821A821D821C8261
:10267000AA8DBB8DED91FC9111970284F385E02D1D
:10268000CD010995412CD12C612CF981EF2FF0E07F
:10269000FF83EE832C2D30E03B872A87A401410F76
:1026A000511D17FD5A955F8B4E8BB101670D711D42
:1026B00077FC7A95798F688F7C85671608F06FC0F4
:1026C000262D30E04A815B81420F531FAE81BF81CE
:1026D000A49FC001A59F900DB49F900D1124F401FB
:1026E000E80FF91FF98BE88B842D712C4E895F89D7
:1026F000420F531F5D8B4C8B751408F04DC051E099
:10270000580F5E87877041F4C5010196EA89FB89FD
:10271000EA0DFB1DD4905C01D7FE3AC061E0C61201
:1027200016C07981713099F4AA8DBB8DED91FC9121
:1027300011970484F585E02D288539854C895D89BC
:10274000688D798D670D711DCD01099521C08C8132
:102750009D81870D911DEA85FB858E9FB0018F9F1E
:10276000700D9E9F700D1124620D731DAA8DBB8D7F
:10277000ED91FC9111970684F785E02DE884F984AA
:102780000E811F812A853B8548895989CD0109958C
:10279000DD0C73948E85B0CF450C63948DCFAA8DDC
:1027A000BB8DED91FC9111970688F789E02DCD0145
:1027B0006B960FB6F894DEBF0FBECDBFDF91CF9101
:1027C0001F910F91FF90EF90DF90CF90BF90AF904F
:1027D0009F908F907F906F905F904F903F902F9041
:1027E00009946B960FB6F894DEBF0FBECDBFDF9194
:1027F000CF911F910F91FF90EF90DF90CF90BF90FE
:10280000AF909F908F907F906F905F904F903F9090
:102810002F9008956F927F928F929F92AF92BF9266
:10282000CF92DF92EF92FF920F931F93CF93DF939C
:10283000EC014B015A0169013801E881F9810284F8
:10284000F385E02D0995E881F9810288F389E02D6F
:1028500087019601A501B401CE010995A501460D98
:10286000571D41505109E881F9810288F389E02D13
:102870009601B401CE010995E881F9810088F189BA
:10288000E02D9301A501B401CE010995C80CD91C16
:10289000B60161507109E881F9810088F189E02D64
:1028A0009301A501CE010995E881F9810688F78990
:1028B000E02DCE01DF91CF911F910F91FF90EF900E
:1028C000DF90CF90BF90AF909F908F907F906F9050
:1028D00009948F929F92AF92BF92CF92DF92EF9224
:1028E000FF920F931F93CF93DF934C016B015A011B
:1028F000E901DC01ED91FC916217730781F4041783
:10290000150724F48B2D5801042F182F0A191B09C1
:1029100098012F5F3F4F048CF58DE02D12C04017BA
:10292000510709F52617370724F48D2D6901C62FA5
:10293000D82F9E012C193D092F5F3F4F068CF78D34
:10294000E02D8701A501B601C4010995DF91CF9162
:102950001F910F91FF90EF90DF90CF90BF90AF90BD
:102960009F908F9008950284F385E02D0995D401FE
:10297000ED91FC910488F589E02D9E01A501B60139
:10298000C4010995D401ED91FC910688F789E02DE9
:10299000C401DF91CF911F910F91FF90EF90DF90D5
:1029A000CF90BF90AF909F908F900994EF92FF923D
:1029B0000F931F93DC011A960D911C911B9718968B
:1029C0002D913C911997ED91FC9100A0F1A1E02D82
:1029D0007B0140E050E060E070E009951F910F91AD
:1029E000FF90EF9008954F925F926F927F928F9237
:1029F0009F92AF92BF92CF92DF92EF92FF920F938E
:102A00001F93CF93DF936C012B015A0139014801C9
:102A1000DC01ED91FC910284F385E02D0995E20142
:102A2000640C751CD601ED91FC91C615D7055CF4BC
:102A30000088F189E02D87019401A501BE01C6013E
:102A400009952196EFCF0688F789E02DC601DF9121
:102A5000CF911F910F91FF90EF90DF90CF90BF909B
:102A6000AF909F908F907F906F905F904F90099460
:102A70008F929F92AF92BF92CF92DF92EF92FF928E
:102A80000F931F93CF93DF93EC015B014A01690120
:102A9000E881F9810284F385E02D099595012C0DDB
:102AA0003D1D21503109E881F9810488F589E02D27
:102AB00078018401A401B501CE010995E881F9816D
:102AC0000688F789E02DCE01DF91CF911F910F91FC
:102AD000FF90EF90DF90CF90BF90AF909F908F903E
:102AE00009948F929F92AF92BF92CF92DF92EF9212
:102AF000FF920F931F93CF93DF93EC015B014A0189
:102B000069017801E881F9810284F385E02D099556
:102B1000C80CD91C860101501109E881F98104888B
:102B2000F589E02D9501A401B501CE010995E88153
:102B3000F9810688F789E02DCE01DF91CF911F91B1
:102B40000F91FF90EF90DF90CF90BF90AF909F904C
:102B50008F9009940895EF92FF920F931F93DC01D9
:102B6000ED91FC9100A0F1A1E02D09951F910F912D
:102B7000FF90EF9008950F931F93DC01ED91FC916E
:102B8000068CF78DE02D09951F910F9108950F93F5
:102B90001F93DC01ED91FC91048CF58DE02D0995DE
:102BA0001F910F910895DC01ED91FC910084F18556
:102BB000E02D09942F923F924F925F926F927F92F5
:102BC0008F929F92AF92BF92CF92DF92EF92FF923D
:102BD0000F931F93CF93DF9300D000D000D0CDB7D9
:102BE000DEB72C017E836D836A015901C801FC8226
:102BF000EB824801841A950A97FE03C09194819450
:102C0000910835012D813E81621A730A77FE03C057
:102C1000719461947108681479045CF43A2D2B2D39
:102C20005C01832F922F3D812E81DE82CD82C32EC7
:102C3000D22EAD81BE81AA16BB065CF43C2D2D2D93
:102C40006C01832F922F3D812E81BE82AD82A32EF7
:102C5000B22E85012D813E81021B130B1C012C1805
:102C60003D0837FE03C0319421943108780117FFE5
:102C700003C03FEFE31AF30AF594E794C816D906A8
:102C80002CF08FEF9FEF9A83898304C0A1E0B0E01E
:102C9000BA83A9832D813E81A216B30624F1D20105
:102CA000ED91FC910484F585E02D2B813C81681425
:102CB000790424F44D815E81B60103C0A6016D81C3
:102CC0007E81C2010995E218F308F7FE06C029814A
:102CD0003A81C20ED31EE00EF11E8D819E810196B7
:102CE0009E838D83D7CF26960FB6F894DEBF0FBE96
:102CF000CDBFDF91CF911F910F91FF90EF90DF90AB
:102D0000CF90BF90AF909F908F907F906F905F908B
:102D10004F903F902F900895833081F028F48130B8
:102D200099F08230A1F008958730A9F08830B9F089
:102D30008430D1F4809180008F7D03C08091800029
:102D40008F7780938000089584B58F7702C084B513
:102D50008F7D84BD08958091B0008F7703C08091EE
:102D6000B0008F7D8093B0000895CF93DF93282F1C
:102D700030E0F901E85AF54F8491F901E657F54F33
:102D8000D491F901EA58F54FC491CC2391F0811107
:102D90000E948C16EC2FF0E0EE0FFF1FE459F54F68
:102DA000A591B491EC91ED2381E090E021F480E0D5
:102DB00002C080E090E0DF91CF9108958F929F92C2
:102DC000AF92CF92EF92FF920F931F93CF93DF9327
:102DD000EC01262F898D9A8D009709F042C06A3048
:102DE00059F41D861C862D898E859F8538E0239F8A
:102DF000800D911D112443C06D3009F4AAC08F8944
:102E00008823C9F03C898C859D8546E0349F800DE0
:102E1000911D1124488559854817590764F41D866A
:102E20001C863D898E859F8548E0349F800D911DCD
:102E300011249F878E87EA88FB88088919894E8527
:102E40005F856C857D85AD88CC88CE010E94D611CA
:102E50002C898C859D8536E0239F800D911D112442
:102E60003EC06A3079F41D861C862D89FC01389697
:102E7000E4918E859F852E9F800D911D11249F8743
:102E80008E8767C06D3009F464C0FC0134963491BC
:102E9000631708F45EC03296E491E61708F459C04F
:102EA000462F431B342FFC0132968590949047E0C7
:102EB000349F800C911C1124F40132963491319688
:102EC000E491332311F0E1110DC0F4013496E49143
:102ED0002C898C859D85E29F800D911D11249D87F5
:102EE0008C8737C0F401359644915F89552319F1D9
:102EF0005C89E32FF0E0E40FF11D47FDFA955E9F3A
:102F0000B0015F9F700D11244C855D85460F571FE2
:102F1000688579856417750774F41D861C863D895C
:102F2000FC013896E4918E859F853E9F800D911D12
:102F300011249F878E87EA88FB88088919894E8526
:102F40005F856C857D85AD88CC88CE010E94D611C9
:102F5000BCCF81E090E0DF91CF911F910F91FF9066
:102F6000EF90CF90AF909F908F900895FF920F9326
:102F70001F93CF93DF93EC018A01F22E89819A810E
:102F8000DC01ED91FC910280F381E02D0995081799
:102F9000190739F46F2D89819A810E94900C91E074
:102FA000811190E0892FDF91CF911F910F91FF90B8
:102FB0000895CF93DF93EC018B8181110AC00E94A9
:102FC000F91981E08B83CE010E94D917982F8823AD
:102FD00091F0888191E09093AC028093AB021092C3
:102FE000B5021092B40261E089819A810E94900C2E
:102FF00091E0811190E0892FDF91CF9108951F9387
:10300000CF93DF93282F30E0F901E85AF54F8491F0
:10301000F901E657F54FD491F901EA58F54FC491FB
:10302000CC23C1F0162F81110E948C16EC2FF0E0FA
:10303000EE0FFF1FE25BF54FA591B4919FB7F89497
:10304000111104C08C91D095D82302C0EC91DE2BD5
:10305000DC939FBFDF91CF911F910895CF92DF92B4
:10306000EF92FF920F931F93CF93DF93EC01888130
:103070009981892B09F091C088859985892BE9F47C
:1030800020E030E000E070E0E7E0F0E0AB01022E8D
:1030900002C0559547950A94E2F741705527CF0134
:1030A000821B930B01C0440F8A95EAF7042B2F5F14
:1030B0003F4F2830310551F701C0062F10E087E05F
:1030C000E82EF12CCC24C394D12C110F8A85877F54
:1030D000E1F48D858F3F49F0B6010E2C01C0660FDB
:1030E0000A94EAF760230E94FF1761E08C850E9432
:1030F000FF178E858F3F29F00E94B516892B09F0A6
:1031000052C060E08C850E94FF178A85877F8430DB
:10311000D9F461E08C850E94FF178D858F3F49F0BF
:10312000B6010E2C01C0660F0A94EAF760230E94D4
:10313000FF1760E08C850E94FF178E858F3F21F07E
:103140000E94B516892B89F581E0E81AF10808F08C
:10315000BCCF88859985892BF1F420E030E080E0B0
:10316000A12FB0E0E7E0F0E0AD01022E02C05595DE
:1031700047950A94E2F741705527BF01621B730B14
:1031800001C0440F6A95EAF7842B2F5F3F4F283028
:10319000310551F70CC0812F0AC06EBD0DB407FE7A
:1031A000FDCF8EB504C01160ACCF1160CDCFDF91E3
:1031B000CF911F910F91FF90EF90DF90CF900895E6
:1031C000CF93DF9390E0FC01E657F54F2491FC018B
:1031D000EA58F54F8491882361F190E0880F991F98
:1031E000FC01EC5BF54FC591D491FC01E25BF54F1E
:1031F000A591B491611109C09FB7F8948881209579
:1032000082238883EC912E230BC0623061F49FB738
:10321000F8948881322F309583238883EC912E2B6C
:103220002C939FBF06C08FB7F894E8812E2B28837C
:103230008FBFDF91CF9108958F929F92AF92BF92EF
:10324000CF92DF92EF92FF926B017C010E94AE0D54
:103250004B015C01C114D104E104F104F1F00E94BE
:10326000AE0DDC01CB0188199909AA09BB09883E7A
:103270009340A105B10570F321E0C21AD108E1081D
:10328000F10888EE880E83E0981EA11CB11CC114C1
:10329000D104E104F10419F7DDCFFF90EF90DF9046
:1032A000CF90BF90AF909F908F90089520918D0305
:1032B00030918E03C901079697FD079623E09595F7
:1032C00087952A95E1F720918B0330918C03829F9B
:1032D000A001839F500D929F500D112460E070E07B
:1032E0008091A6039091A7030C9441263F924F92A0
:1032F0005F926F927F928F929F92AF92BF92CF9286
:10330000DF92EF92FF920F931F93CF93DF9300D042
:1033100000D000D0CDB7DEB72C013B014A015901E6
:10332000C901079697FD07969C0193E0359527956F
:103330009A95E1F73C832B83C12CD12CE12CF12C05
:10334000312CC3018E0D9F1D9A838983E016F106EF
:10335000C4F51E821D822D813E812A153B054CF548
:10336000C90187709927892B11F0330C0EC0ED81AC
:10337000FE81F7FD379683E0F595E7958A95E1F7AD
:10338000EC0DFD1DE80DF91D349037FE0CC021E059
:1033900030E049815A816D817E81640D751D87E819
:1033A00093E00E94D3158D819E8101969E838D832B
:1033B000D2CF9FEFE91AF90A2B813C81C20ED31EAE
:1033C000C0CF26960FB6F894DEBF0FBECDBFDF91FB
:1033D000CF911F910F91FF90EF90DF90CF90BF9012
:1033E000AF909F908F907F906F905F904F903F90A5
:1033F00008951092B7021092B6021092B502109280
:10340000B4021092B30281E08093B2021092B10232
:1034100061E082E10E94FF1761E083E10E94FF17F3
:10342000E9EBF0E080818E7F808380818D7F8083D7
:1034300088E48093B80085E48093BC0086E797E039
:103440009093B0028093AF0287E797E09093AE022B
:103450008093AD020895FF920F931F93CF93DF9354
:10346000F82ED92FC62F8091A4039091A503009721
:1034700009F453C02091A80331E03093AC022093AB
:10348000AB021092B5021092B402DC01ED91FC91F6
:103490000190F081E02D60E009950F2D1D2FD1E006
:1034A0008091A4039091A503CC2379F1D032D8F078
:1034B00061E00E94900C8091A80391E09093AC028F
:1034C0008093AB021092B5021092B4028091A403D3
:1034D0009091A503DC01ED91FC910190F081E02D2C
:1034E00060E00995D1E08091A4039091A503F801D3
:1034F0006491DC01ED91FC910190F081E02D099542
:10350000DF5FC1500F5F1F4FCBCF61E0DF91CF91E5
:103510001F910F91FF900C94900CE091B403F091E7
:10352000B50390818091BA03809589238083EF2D24
:10353000FD2FC15008F43AC054918091A20390919C
:10354000A303892B41F05EBD00000DB407FEFDCF43
:103550008EB53196EECF28E030E090E8A091B00330
:10356000B091B1038091B803452F492319F04C91D4
:10357000842B03C04C91809584238C93A091B2033B
:10358000B091B3034C918091B903842B8C93A0919B
:10359000B203B091B3034C918091B9038095842319
:1035A0008C93969521503109C9F6D3CFDF91CF91F5
:1035B0001F910F91FF9008958F929F92AF92BF92AB
:1035C000CF92DF92EF92FF920F931F93CF93DF93EF
:1035D00000D0CDB7DEB78C01DC011A968C911A971A
:1035E000882319F01C964C9302C0F8014387452F9D
:1035F000562F672F7727882321F0D8011B964C93ED
:1036000002C0F8014487D80116968C911697179638
:103610009C91179789839A83CD90DC901197C11460
:10362000D104B9F11996EC90F12C97012E5F3F4F20
:10363000F601848195818217930710F480E082C09F
:10364000808191E09093AC028093AB021092B5021E
:103650001092B402E114F10451F4B801655F7F4F98
:1036600021E042E050E0C6010E94B6176BC0F601AF
:1036700081819281DC01ED91FC910280F381E02D4A
:10368000A701BE016F5F7F4F0995E816F906B1F6F5
:10369000E4CFF801E280F380E114F10479F22481AF
:1036A00035812115310511F48F770AC0223031059B
:1036B00011F4806805C02130310519F48F778064DA
:1036C0008983D8011996AC90B12CF7018081918142
:1036D000892B39F00280F381E02D808191810E9455
:1036E0005F0B60E0D7011B968C910E94FF17FE01D3
:1036F00031964F016F01C601881999098A159B05FA
:10370000C8F0D8011B966C91C7010E942E18F801D1
:103710006485C7010E942E1861E0D7011B968C9129
:103720000E94FF17F70180819181892B51F00E943F
:103730005E0B07C0D6016D916D01C7010E942E1866
:10374000DACF81E00F900F90DF91CF911F910F9111
:10375000FF90EF90DF90CF90BF90AF909F908F90B1
:1037600008952F923F924F925F926F927F928F9225
:103770009F92AF92BF92CF92DF92EF92FF920F9300
:103780001F93CF93DF93CDB7DEB7A4970FB6F8940E
:10379000DEBF0FBECDBF4B015C01F42E9B01AC011F
:1037A0000E941625882319F06DEE71E027C02401D0
:1037B0003501E89477F82FEF3FEF4FE75FE7C3015C
:1037C000B2010E94162581110DC02FEF3FEF4FE788
:1037D0005FE7C301B2010E944C2318161CF461EF8D
:1037E00071E00CC02FEF3FEF4FE75FE4C501B4017C
:1037F0000E94A42418163CF465EF71E088EB92E077
:103800000E94EB0ABCC02FEF3FEF4FE75FECC50112
:10381000B4010E944C2387FDEFCF20E030E0A901E6
:10382000C501B4010E944C2387FF0BC06DE288EBF9
:1038300092E00E940E063C01B7FAB094B7F8B0943B
:1038400002C0612C712C10E060E070E080E09FE32A
:10385000F11641F020E030E040E251E40E945123B3
:103860001F5FF6CFA50194010E94E0224B015C018D
:103870000E94C3236AA3C72ED82EE92E19A2262F91
:10388000372F482F592F8E010F5D1F4F0BA31CA3FD
:103890009AE0292E312C412C512CCA01B901A201E8
:1038A00091010E94B722605DF80162938F0121159A
:1038B00031054105510589F7BF0188EB92E00E946F
:1038C000EB0A8301080F191FFF2009F457C06AA1F2
:1038D0007C2D8D2D9E2D0E94F2239B01AC01C501F4
:1038E000B4010E94DF224B015C016EE288EB92E0A2
:1038F0000E940E06080F191F8AE0282E312C412C39
:10390000512C20E030E040E251E4C501B4010E94B6
:10391000A9244B015C010E94C3239B0140E050E0BD
:1039200019A2CBA0DCA0762E3AA3642EE52ECA0104
:10393000B901A20191010E94B722605DF601629374
:103940006F01211531054105510589F7BF0188EB4C
:1039500092E00E94EB0A080F191F672D7AA1862DAD
:103960009E2D0E94F2239B01AC01C501B4010E946F
:10397000DF224B015C01FA94F110C3CFC801A49679
:103980000FB6F894DEBF0FBECDBFDF91CF911F9170
:103990000F91FF90EF90DF90CF90BF90AF909F90EE
:1039A0008F907F906F905F904F903F902F900895F1
:1039B000CF92DF92EF92FF921F93CF93DF93EC01B0
:1039C0001F81662311F0912F01C090E0288530E01F
:1039D000220F331F2459354FA0E0B0E0F901459183
:1039E0005491FA0180818123AD0160E070E0891378
:1039F0000FC01196CD84DE84EF84F8884C155D05E8
:103A00006E057F0558F33FEF2FEF8FEF9FEF03C059
:103A10003A2F252FCB01632F722FDF91CF911F916A
:103A2000FF90EF90DF90CF90089588E591E090931C
:103A30008803809387038091A6039091A703009742
:103A400011F00C94B3250895CF93DF93CDB7DEB773
:103A5000E5970FB6F894DEBF0FBECDBF789484B55E
:103A6000826084BD84B5816084BD85B5826085BD7A
:103A700085B5816085BD80916E00816080936E0008
:103A800010928100809181008260809381008091FA
:103A900081008160809381008091800081608093AB
:103AA00080008091B10084608093B1008091B0006B
:103AB00081608093B00080917A00846080937A0066
:103AC00080917A00826080937A0080917A00816090
:103AD00080937A0080917A00806880937A001092B7
:103AE000C100E091C802F091C90212E0E12EE0822B
:103AF000E091C402F091C5021082E091C602F091FB
:103B0000C7028FEC80831092D002E091CC02F0913A
:103B1000CD0286E08083E091CA02F091CB028081E1
:103B200080618083E091CA02F091CB02808188603D
:103B30008083E091CA02F091CB028081806880830B
:103B4000E091CA02F091CB0280818F7D808388EB67
:103B500092E00E94000B62E080915A030E94E018FC
:103B60002FB7F8948091A7029091A802A091A90282
:103B7000B091AA022FBF805D9740A109B10980933F
:103B80005E0390935F03A0936003B093610387E3A8
:103B90008093670386E090E00E941B258C01809152
:103BA000C903F80180838BE793E0928381831382BA
:103BB00080E290E0958384831093C8030093C70349
:103BC0000E94F919FF24F394F801F382C8010E94BE
:103BD000D917882309F450C080E090E1A0E0B0E05C
:103BE0008093CA039093CB03A093CC03B093CD03EF
:103BF0008AE090E0A0E0B0E08093CE039093CF0302
:103C0000A093D003B093D10380E090E0A0E0B0E4B3
:103C10008093D2039093D303A093D403B093D5039E
:103C20008091C7039091C8039EA38DA318A61FA2DD
:103C3000FEA685E090E09CA78BA7FFA6EDA640E03E
:103C400050E160E070E0CE0185960E94DC1A809120
:103C5000C7039091C8039A8389831C821B82FA86CA
:103C600018861F82FB86E9864FE959E360E070E021
:103C7000CE0101960E94DC1A63E871E088EB92E0C5
:103C80000E94040B68E871E088EB92E00E94040B4C
:103C900069E971E088EB92E00E94040B61EA71E04F
:103CA00088EB92E00E94040B6BEA71E088EB92E0F3
:103CB0000E94040B68EB71E088EB92E00E94040B19
:103CC00066EC71E088EB92E00E94040B88EB92E0D6
:103CD0000E94000B8091A6039091A703892B99F570
:103CE00020918D0330918E03C901079697FD0796A9
:103CF000B3E095958795BA95E1F720918B033091C4
:103D00008C03AC01429FC001439F900D529F900DC8
:103D100011240E941B259093A7038093A603892B4F
:103D200091F40AE115E0F8016491611103C088EB98
:103D300092E03FC288EB92E00E940E060F5F1F4F99
:103D4000892B89F7F4CF0E94561920918D03309169
:103D50008E0380918B0390918C0321323105A4F066
:103D6000B9016054710977FF02C06F5F7F4F75958D
:103D700067958255910997FD019600E410E022E5D0
:103D800030E04AE552E013C0B9016052710977FF93
:103D900002C06F5F7F4F759567958357910997FDB7
:103DA000019600E210E023E730E04AE750E0959505
:103DB00087950E94761982E08093A9038091A403DD
:103DC0009091A503892B31F080E48093A8030E9491
:103DD000F919BEC061E08091AD030E94E01861E076
:103DE0008091AE030E94E0188091AD03082E000C74
:103DF000990BFC01EA58F54FE491F0E0EE0FFF1F3C
:103E0000E25BF54F259134913093B5032093B403D1
:103E1000FC01E657F54FE491E093BA038091AE03BD
:103E2000082E000C990BFC01EA58F54FE491F0E0E4
:103E3000EE0FFF1FE25BF54FA591B491B093B7036E
:103E4000A093B603FC01E657F54FE491E093BB0362
:103E50008C91E82BEC938091A2039091A303892B82
:103E600009F434C01FB7F89480915D02811127C016
:103E7000E0E8FAE08491E4E9FAE09491E82FF0E0D8
:103E8000EE0FFF1FEC5BF54FA591B491EC91E92388
:103E900021F461E08AE00E94FF1761E08AE00E945D
:103EA000E0188CB580618CBD8CB580648CBD61E000
:103EB0008DE00E94E01861E08BE00E94E0188091A4
:103EC0005D028F5F80935D021FBF42C061E0809101
:103ED000AB030E94E01861E08091AC030E94E018FF
:103EE0008091AB03082E000C990BFC01EA58F54FAA
:103EF000E491F0E0EE0FFF1FE25BF54F2591349166
:103F00003093B1032093B003FC01E657F54FE491E1
:103F1000E093B8038091AC03082E000C990BFC01D0
:103F2000EA58F54FE491F0E0EE0FFF1FE25BF54F2A
:103F3000A591B491B093B303A093B203FC01E657EB
:103F4000F54FE491E093B9038C91E095E823EC936D
:103F50008091AF0387FD1EC061E00E94E01861E020
:103F60008091AF030E94FF1761E070E080E090E075
:103F70000E941C1960E08091AF030E94FF176AE065
:103F800070E080E090E00E941C1961E08091AF0336
:103F90000E94FF178091A4039091A503892BD1F073
:103FA0002091BC033091BD034091BE035091BF03EB
:103FB00060E074E284EF90E00E94B722DA01C90168
:103FC0004097A109B109B695A795979587958093D4
:103FD000B80016C08091A2039091A303892B31F001
:103FE0008091C5039091C6030E945F0BE091B603D8
:103FF000F091B70390818091BB03809589238083E2
:1040000064E086E790E00E942B1A60918D03615076
:1040100087E893E00E94EB0C64E082E790E00E9466
:104020002B1A8091A903813011F064E101C060E195
:1040300087E893E00E94EB0C64E08EE690E00E943B
:104040002B1A8FE88093C40380918B0390918C038B
:104050008038910591F480918D0390918E03803486
:104060009105E9F48091A903813011F08FEC01C032
:104070008FE98093C40312E113C08036910579F46F
:1040800080918D0390918E03409749F48091A9030C
:10409000813011F08FEA01C080E18093C40312E007
:1040A0006AED87E893E00E94EB0C612F87E893E0CC
:1040B0000E94EB0C61E887E893E00E94EB0C6091B2
:1040C000C40387E893E00E94EB0C69ED87E893E076
:1040D0000E94EB0C8091A903813011F061EF01C0C7
:1040E00062E287E893E00E94EB0C66E088E690E0ED
:1040F0000E942B1A8091A4039091A503892BD1F0E3
:104100002091C0033091C1034091C2035091C30379
:1041100060E074E284EF90E00E94B722DA01C90106
:104120004097A109B109B695A79597958795809372
:10413000B80011C0E091B603F091B703908180916F
:10414000BB03892B80838091A2039091A303892BC9
:1041500011F00E945E0B0E94561963E871E087E837
:1041600093E00E94040B68E871E087E893E00E9406
:10417000040B69E971E087E893E00E94040B61EAAF
:1041800071E087E893E00E94040B6BEA71E087E836
:1041900093E00E94040B68EB71E087E893E00E94D3
:1041A000040B66EC71E087E893E00E94040B87E85B
:1041B00093E00E94000B11E022E0A22EB12C02E05D
:1041C0003CE3832E31E0932E4EE2242E41E0342E48
:1041D000F1E4F0937C0080917A00806480937A000F
:1041E00080917A0086FDFCCF8091780080917900E3
:1041F0008091C7039091C8039A8389831C821B8294
:104200001A87B886AF821B870987BE016B5D7F4F17
:10421000CE0101960E943E0F6DA17EA183E07695AE
:1042200067958A95E1F7660F771F660F771F072E50
:10423000000C880B990B0E94F4232FE632E143E82F
:104240005AE30E94A9246B017C018091C7039091DD
:10425000C8039EA38DA318A61FA21EA745E050E089
:104260005CA74BA71FA70DA74091CA035091CB0392
:104270006091CC037091CD03CE0185960E94DC1A2B
:104280008091C7039091C8039A8389831C821B8203
:104290001A8784E090E098878F831B870987BE0187
:1042A0006C5C7F4FCE0101960E943E0F6CA97DA9E8
:1042B000072E000C880B990B0E94F4232B013C0164
:1042C0006091CE037091CF038091D0039091D10380
:1042D0000E94F2239B01AC01C301B2010E94512351
:1042E0002B013C0180916B038FA39EA28DA2809134
:1042F0006C0390916D0399A788A780916E039091AC
:104300006F03A0917003B09171038AA79BA7ACA71C
:10431000BDA7BE016F5F7F4FCE0185960E949B09AE
:10432000809174038FA33EA22DA28091750390917A
:10433000760399A788A78091770390917803A0913D
:104340007903B0917A038AA79BA7ACA7BDA7BE014A
:104350006F5F7F4FCE0185960E94150942E0C7012D
:10436000B6010E94B11B64EC71E088EB92E00E9400
:10437000040B42E0C301B2010E94B11B64EC71E086
:1043800088EB92E00E94040BA7019601C301B201E1
:104390000E94A92442E00E94B11B88EB92E00E9497
:1043A000000B68EE73E080E090E00E941C190E9410
:1043B0007D060ECFE8EBF2E01382128248EE53E066
:1043C00060E070E044835583668377838AE091E000
:1043D0009183808385EC90E09587848784EC90E0DE
:1043E0009787868780EC90E0918B808B81EC90E0C2
:1043F000938B828B82EC90E0958B848B86EC90E0A3
:10440000978B868B118E128E138E148EABE7B3E0D2
:1044100013961C921E92129714964D935D936D9372
:104420007C9317978CE191E011969C938E93E7EC27
:10443000F3E01182108280E4828317821086118655
:1044400012861386148615861686E7E8F3E0138233
:10445000128220E830E03583248380E490E0978363
:1044600086833187208793878287168A15861486EC
:104470001786168681E0858B848B2FEF3FEF338B79
:10448000228B318B208B878B108E128E118E88E5BC
:1044900091E091838083148E138EB68FA58F10A226
:1044A000178E8FEF84A385A386A387A380A780E8B8
:1044B0009AE1A6E0B0E085AB96ABA7ABB0AF80EADF
:1044C00096E8A1E0B0E081AF92AFA3AFB4AF80E5D2
:1044D00086AF17AEA5E5B3E082E015968C931597ED
:1044E00086E116968C931697ECE8FAE0E49117961D
:1044F000EC931797E8E7FAE0E4911896EC93189795
:1045000040E85EE360E070E01D964D935D936D932F
:104510007C93509753968C9353978CE391E05596E8
:104520009C938E9354970A2E1B2E58961C920E9293
:10453000112457974FEF5FEFBA0159964D935D9352
:104540006D937C935C978EE291E05E969C938E9344
:104550005D970A2E1B2E91961C920E921124909715
:1045600092964D935D936D937C9395970895A1E2F8
:104570001A2EAA1BBB1BFD010DC0AA1FBB1FEE1FDD
:10458000FF1FA217B307E407F50720F0A21BB30B28
:10459000E40BF50B661F771F881F991F1A9469F7A4
:1045A00060957095809590959B01AC01BD01CF0100
:1045B0000895EE0FFF1F0590F491E02D09945058D7
:1045C000BB27AA270E94F7220C946A240E945C242D
:1045D00038F00E94632420F039F49F3F19F426F448
:1045E0000C9459240EF4E095E7FB0C945324E92F26
:1045F0000E947B2458F3BA17620773078407950754
:1046000020F079F4A6F50C949D240EF4E0950B2E81
:10461000BA2FA02D0B01B90190010C01CA01A00114
:104620001124FF27591B99F0593F50F4503E68F16F
:104630001A16F040A22F232F342F4427585FF3CFB0
:10464000469537952795A795F0405395C9F77EF481
:104650001F16BA0B620B730B840BBAF09150A1F0CA
:10466000FF0FBB1F661F771F881FC2F70EC0BA0F50
:10467000621F731F841F48F4879577956795B795D8
:10468000F7959E3F08F0B0CF9395880F08F09927D3
:10469000EE0F9795879508950E942F2408F481E0E6
:1046A00008950E9465230C946A240E94632458F0A4
:1046B0000E945C2440F029F45F3F29F00C945324BD
:1046C00051110C949E240C9459240E947B2468F36D
:1046D0009923B1F3552391F3951B550BBB27AA27BB
:1046E00062177307840738F09F5F5F4F220F331FF5
:1046F000441FAA1FA9F335D00E2E3AF0E0E832D0BD
:1047000091505040E695001CCAF72BD0FE2F29D0BF
:10471000660F771F881FBB1F261737074807AB0791
:10472000B0E809F0BB0B802DBF01FF2793585F4F06
:104730003AF09E3F510578F00C9453240C949E243B
:104740005F3FE4F3983ED4F3869577956795B795E8
:10475000F7959F5FC9F7880F911D9695879597F9F3
:104760000895E1E0660F771F881FBB1F621773076C
:104770008407BA0720F0621B730B840BBA0BEE1F81
:1047800088F7E09508950E94832488F09F5798F059
:10479000B92F9927B751B0F0E1F0660F771F881F46
:1047A000991F1AF0BA95C9F714C0B13091F00E9460
:1047B0009D24B1E008950C949D24672F782F8827BD
:1047C000B85F39F0B93FCCF3869577956795B39587
:1047D000D9F73EF490958095709561957F4F8F4FF6
:1047E0009F4F0895E89409C097FB3EF490958095FB
:1047F000709561957F4F8F4F9F4F9923A9F0F92FA7
:1048000096E9BB279395F695879577956795B79524
:10481000F111F8CFFAF4BB0F11F460FF1BC06F5F0A
:104820007F4F8F4F9F4F16C0882311F096E911C01C
:10483000772321F09EE8872F762F05C0662371F03D
:1048400096E8862F70E060E02AF09A95660F771F51
:10485000881FDAF7880F9695879597F90895990F2D
:104860000008550FAA0BE0E8FEEF16161706E8073A
:10487000F907C0F012161306E407F50798F0621B5B
:10488000730B840B950B39F40A2661F0232B242B30
:10489000252B21F408950A2609F4A140A6958FEF4F
:1048A000811D811D089597F99F6780E870E060E0A1
:1048B00008959FEF80EC089500240A9416161706B9
:1048C00018060906089500240A9412161306140601
:1048D00005060895092E0394000C11F4882352F064
:1048E000BB0F40F4BF2B11F460FF04C06F5F7F4F1C
:1048F0008F4F9F4F089557FD9058440F551F59F003
:104900005F3F71F04795880F97FB991F61F09F3FBC
:1049100079F087950895121613061406551FF2CFE5
:104920004695F1DF08C0161617061806991FF1CF35
:1049300086957105610508940895E894BB2766275C
:104940007727CB0197F908950E942F2408F48FEF61
:1049500008950E94BC240C946A240E945C2438F0C0
:104960000E94632420F0952311F00C9453240C949E
:10497000592411240C949E240E947B2470F3959F4B
:10498000C1F3950F50E0551F629FF001729FBB2746
:10499000F00DB11D639FAA27F00DB11DAA1F649FE2
:1049A0006627B00DA11D661F829F2227B00DA11D95
:1049B000621F739FB00DA11D621F839FA00D611D1B
:1049C000221F749F3327A00D611D231F849F600D3C
:1049D000211D822F762F6A2F11249F5750409AF065
:1049E000F1F088234AF0EE0FFF1FBB1F661F771FF1
:1049F000881F91505040A9F79E3F510580F00C94BC
:104A000053240C949E245F3FE4F3983ED4F38695A0
:104A100077956795B795F795E7959F5FC1F7FE2B5B
:104A2000880F911D9695879597F908950E942F24D8
:104A3000880B990B08950F931F93CF93DF938230C8
:104A4000910510F482E090E0E091D803F091D90351
:104A500020E030E0A0E0B0E0309719F140815181D2
:104A60000281138148175907C8F08417950769F424
:104A7000109731F012960C93129713961C9327C03F
:104A80000093D8031093D90322C02115310519F0E2
:104A90004217530718F49A01BD01EF01DF01F80135
:104AA000DBCF21153105F9F0281B390B24303105F6
:104AB00080F48A819B816115710521F0FB0193834C
:104AC000828304C09093D9038093D803FE01329669
:104AD00044C0FE01E20FF31F8193919322503109EC
:104AE000398328833AC02091D6033091D703232BF2
:104AF00041F420910201309103013093D7032093B8
:104B0000D60320910001309101012115310541F4B6
:104B10002DB73EB74091040150910501241B350B80
:104B2000E091D603F091D703E217F307A0F42E1B10
:104B30003F0B2817390778F0AC014E5F5F4F241701
:104B4000350748F04E0F5F1F5093D7034093D603AD
:104B50008193919302C0E0E0F0E0CF01DF91CF912B
:104B60001F910F910895CF93DF93009709F481C0AF
:104B7000FC01329713821282A091D803B091D9031D
:104B8000109781F420813181820F931F2091D603E9
:104B90003091D7032817390751F5F093D703E093E5
:104BA000D60367C0ED0120E030E0CE17DF0740F408
:104BB0004A815B819E0141155105F1F0EA01F5CF73
:104BC000D383C28340815181840F951FC817D907B1
:104BD00059F488819981840F951F0296918380836F
:104BE0008A819B81938382832115310529F4F09377
:104BF000D903E093D8033DC0E901FB83EA834991DF
:104C00005991C40FD51FEC17FD0761F48081918184
:104C1000840F951F0296E90199838883828193818D
:104C20009B838A83E0E0F0E012968D919C9113972C
:104C3000009719F0FD01DC01F7CF8D919C91119740
:104C40009D012E5F3F4F820F931F2091D60330911D
:104C5000D7032817390769F4309729F41092D9033C
:104C60001092D80302C013821282B093D703A0938C
:104C7000D603DF91CF91089581E090E0F8940C94F1
:104C80005726DC0101C06D9341505040E0F7089574
:104C9000FB01DC014150504048F001900D92002092
:104CA000C9F701C01D9241505040E0F7089515E04A
:104CB000C0E5D5E004C0FE010E94D9222196C1358D
:084CC000D107C9F7F894FFCFFA
:104CC8000000DA032000000000000E067B05A505A1
:104CD8005B06D605B405C80500000000D007A30789
:104CE8000008AA159B078707780700000000AA0D8F
:104CF800E70A03081509040800000000AB0DE90ADB
:104D080003089B0982080000000000000000030857
:104D1800AC0DAC0D00000000DE167B050008FF0797
:104D28008706AA15D315AB15C715BB15DA15AA152D
:104D38001E0E500D580A9C0AF314D61469140A144E
:104D48000D0A0050696E2C004C6967687420496E22
:104D580074656E736974792C0054656D7020432CEA
:104D68000048756D69646974792C00566F6C7461BC
:104D78006765286D56292C00416D706572616765FD
:104D8800286D41292C00506F776572286D572900CE
:104D98004448543131004448543132004448543274
:104DA80031004448543232004448543F006E616E2A
:0A4DB80000696E66006F7666000069
:00000001FF
